{
  "_format": "hh-sol-artifact-1",
  "contractName": "Ebook",
  "sourceName": "contracts/Ebook.sol",
  "abi": [
    {
      "inputs": [],
      "stateMutability": "nonpayable",
      "type": "constructor"
    },
    {
      "anonymous": false,
      "inputs": [
        {
          "indexed": true,
          "internalType": "address",
          "name": "owner",
          "type": "address"
        },
        {
          "indexed": true,
          "internalType": "address",
          "name": "approved",
          "type": "address"
        },
        {
          "indexed": true,
          "internalType": "uint256",
          "name": "tokenId",
          "type": "uint256"
        }
      ],
      "name": "Approval",
      "type": "event"
    },
    {
      "anonymous": false,
      "inputs": [
        {
          "indexed": true,
          "internalType": "address",
          "name": "owner",
          "type": "address"
        },
        {
          "indexed": true,
          "internalType": "address",
          "name": "operator",
          "type": "address"
        },
        {
          "indexed": false,
          "internalType": "bool",
          "name": "approved",
          "type": "bool"
        }
      ],
      "name": "ApprovalForAll",
      "type": "event"
    },
    {
      "anonymous": false,
      "inputs": [
        {
          "indexed": true,
          "internalType": "uint256",
          "name": "tokenId",
          "type": "uint256"
        },
        {
          "indexed": false,
          "internalType": "address",
          "name": "creator",
          "type": "address"
        },
        {
          "indexed": false,
          "internalType": "address",
          "name": "owner",
          "type": "address"
        },
        {
          "indexed": false,
          "internalType": "address",
          "name": "reader",
          "type": "address"
        },
        {
          "indexed": false,
          "internalType": "string",
          "name": "category",
          "type": "string"
        },
        {
          "indexed": false,
          "internalType": "bool",
          "name": "read",
          "type": "bool"
        }
      ],
      "name": "LibraryItemCreated",
      "type": "event"
    },
    {
      "anonymous": false,
      "inputs": [
        {
          "indexed": true,
          "internalType": "address",
          "name": "from",
          "type": "address"
        },
        {
          "indexed": true,
          "internalType": "address",
          "name": "to",
          "type": "address"
        },
        {
          "indexed": true,
          "internalType": "uint256",
          "name": "tokenId",
          "type": "uint256"
        }
      ],
      "name": "Transfer",
      "type": "event"
    },
    {
      "inputs": [
        {
          "internalType": "address",
          "name": "to",
          "type": "address"
        },
        {
          "internalType": "uint256",
          "name": "tokenId",
          "type": "uint256"
        }
      ],
      "name": "approve",
      "outputs": [],
      "stateMutability": "nonpayable",
      "type": "function"
    },
    {
      "inputs": [
        {
          "internalType": "address",
          "name": "owner",
          "type": "address"
        }
      ],
      "name": "balanceOf",
      "outputs": [
        {
          "internalType": "uint256",
          "name": "",
          "type": "uint256"
        }
      ],
      "stateMutability": "view",
      "type": "function"
    },
    {
      "inputs": [
        {
          "internalType": "string",
          "name": "tokenURI",
          "type": "string"
        },
        {
          "internalType": "string",
          "name": "category",
          "type": "string"
        }
      ],
      "name": "createEbook",
      "outputs": [
        {
          "internalType": "uint256",
          "name": "",
          "type": "uint256"
        }
      ],
      "stateMutability": "payable",
      "type": "function"
    },
    {
      "inputs": [
        {
          "internalType": "uint256",
          "name": "tokenId",
          "type": "uint256"
        }
      ],
      "name": "createLibraryRead",
      "outputs": [],
      "stateMutability": "payable",
      "type": "function"
    },
    {
      "inputs": [],
      "name": "fetchAllLibraryItems",
      "outputs": [
        {
          "components": [
            {
              "internalType": "uint256",
              "name": "tokenId",
              "type": "uint256"
            },
            {
              "internalType": "address payable",
              "name": "creator",
              "type": "address"
            },
            {
              "internalType": "address payable",
              "name": "owner",
              "type": "address"
            },
            {
              "internalType": "address payable",
              "name": "reader",
              "type": "address"
            },
            {
              "internalType": "string",
              "name": "category",
              "type": "string"
            },
            {
              "internalType": "bool",
              "name": "read",
              "type": "bool"
            }
          ],
          "internalType": "struct Ebook.LibraryItem[]",
          "name": "",
          "type": "tuple[]"
        }
      ],
      "stateMutability": "view",
      "type": "function"
    },
    {
      "inputs": [],
      "name": "fetchItemsListed",
      "outputs": [
        {
          "components": [
            {
              "internalType": "uint256",
              "name": "tokenId",
              "type": "uint256"
            },
            {
              "internalType": "address payable",
              "name": "creator",
              "type": "address"
            },
            {
              "internalType": "address payable",
              "name": "owner",
              "type": "address"
            },
            {
              "internalType": "address payable",
              "name": "reader",
              "type": "address"
            },
            {
              "internalType": "string",
              "name": "category",
              "type": "string"
            },
            {
              "internalType": "bool",
              "name": "read",
              "type": "bool"
            }
          ],
          "internalType": "struct Ebook.LibraryItem[]",
          "name": "",
          "type": "tuple[]"
        }
      ],
      "stateMutability": "view",
      "type": "function"
    },
    {
      "inputs": [],
      "name": "fetchMyEbooks",
      "outputs": [
        {
          "components": [
            {
              "internalType": "uint256",
              "name": "tokenId",
              "type": "uint256"
            },
            {
              "internalType": "address payable",
              "name": "creator",
              "type": "address"
            },
            {
              "internalType": "address payable",
              "name": "owner",
              "type": "address"
            },
            {
              "internalType": "address payable",
              "name": "reader",
              "type": "address"
            },
            {
              "internalType": "string",
              "name": "category",
              "type": "string"
            },
            {
              "internalType": "bool",
              "name": "read",
              "type": "bool"
            }
          ],
          "internalType": "struct Ebook.LibraryItem[]",
          "name": "",
          "type": "tuple[]"
        }
      ],
      "stateMutability": "view",
      "type": "function"
    },
    {
      "inputs": [
        {
          "internalType": "uint256",
          "name": "tokenId",
          "type": "uint256"
        }
      ],
      "name": "fetchOneItem",
      "outputs": [
        {
          "components": [
            {
              "internalType": "uint256",
              "name": "tokenId",
              "type": "uint256"
            },
            {
              "internalType": "address payable",
              "name": "creator",
              "type": "address"
            },
            {
              "internalType": "address payable",
              "name": "owner",
              "type": "address"
            },
            {
              "internalType": "address payable",
              "name": "reader",
              "type": "address"
            },
            {
              "internalType": "string",
              "name": "category",
              "type": "string"
            },
            {
              "internalType": "bool",
              "name": "read",
              "type": "bool"
            }
          ],
          "internalType": "struct Ebook.LibraryItem",
          "name": "",
          "type": "tuple"
        }
      ],
      "stateMutability": "view",
      "type": "function"
    },
    {
      "inputs": [],
      "name": "fetchReader",
      "outputs": [
        {
          "components": [
            {
              "internalType": "uint256",
              "name": "tokenId",
              "type": "uint256"
            },
            {
              "internalType": "address payable",
              "name": "creator",
              "type": "address"
            },
            {
              "internalType": "address payable",
              "name": "owner",
              "type": "address"
            },
            {
              "internalType": "address payable",
              "name": "reader",
              "type": "address"
            },
            {
              "internalType": "string",
              "name": "category",
              "type": "string"
            },
            {
              "internalType": "bool",
              "name": "read",
              "type": "bool"
            }
          ],
          "internalType": "struct Ebook.LibraryItem[]",
          "name": "",
          "type": "tuple[]"
        }
      ],
      "stateMutability": "view",
      "type": "function"
    },
    {
      "inputs": [],
      "name": "fetchUnreadLibraryItems",
      "outputs": [
        {
          "components": [
            {
              "internalType": "uint256",
              "name": "tokenId",
              "type": "uint256"
            },
            {
              "internalType": "address payable",
              "name": "creator",
              "type": "address"
            },
            {
              "internalType": "address payable",
              "name": "owner",
              "type": "address"
            },
            {
              "internalType": "address payable",
              "name": "reader",
              "type": "address"
            },
            {
              "internalType": "string",
              "name": "category",
              "type": "string"
            },
            {
              "internalType": "bool",
              "name": "read",
              "type": "bool"
            }
          ],
          "internalType": "struct Ebook.LibraryItem[]",
          "name": "",
          "type": "tuple[]"
        }
      ],
      "stateMutability": "view",
      "type": "function"
    },
    {
      "inputs": [
        {
          "internalType": "uint256",
          "name": "tokenId",
          "type": "uint256"
        }
      ],
      "name": "getApproved",
      "outputs": [
        {
          "internalType": "address",
          "name": "",
          "type": "address"
        }
      ],
      "stateMutability": "view",
      "type": "function"
    },
    {
      "inputs": [],
      "name": "getTotalItems",
      "outputs": [
        {
          "internalType": "uint256",
          "name": "",
          "type": "uint256"
        }
      ],
      "stateMutability": "view",
      "type": "function"
    },
    {
      "inputs": [],
      "name": "getTotalRead",
      "outputs": [
        {
          "internalType": "uint256",
          "name": "",
          "type": "uint256"
        }
      ],
      "stateMutability": "view",
      "type": "function"
    },
    {
      "inputs": [
        {
          "internalType": "address",
          "name": "owner",
          "type": "address"
        },
        {
          "internalType": "address",
          "name": "operator",
          "type": "address"
        }
      ],
      "name": "isApprovedForAll",
      "outputs": [
        {
          "internalType": "bool",
          "name": "",
          "type": "bool"
        }
      ],
      "stateMutability": "view",
      "type": "function"
    },
    {
      "inputs": [],
      "name": "name",
      "outputs": [
        {
          "internalType": "string",
          "name": "",
          "type": "string"
        }
      ],
      "stateMutability": "view",
      "type": "function"
    },
    {
      "inputs": [
        {
          "internalType": "uint256",
          "name": "tokenId",
          "type": "uint256"
        }
      ],
      "name": "ownerOf",
      "outputs": [
        {
          "internalType": "address",
          "name": "",
          "type": "address"
        }
      ],
      "stateMutability": "view",
      "type": "function"
    },
    {
      "inputs": [
        {
          "internalType": "uint256",
          "name": "tokenId",
          "type": "uint256"
        },
        {
          "internalType": "string",
          "name": "category",
          "type": "string"
        }
      ],
      "name": "returnBook",
      "outputs": [],
      "stateMutability": "payable",
      "type": "function"
    },
    {
      "inputs": [
        {
          "internalType": "address",
          "name": "from",
          "type": "address"
        },
        {
          "internalType": "address",
          "name": "to",
          "type": "address"
        },
        {
          "internalType": "uint256",
          "name": "tokenId",
          "type": "uint256"
        }
      ],
      "name": "safeTransferFrom",
      "outputs": [],
      "stateMutability": "nonpayable",
      "type": "function"
    },
    {
      "inputs": [
        {
          "internalType": "address",
          "name": "from",
          "type": "address"
        },
        {
          "internalType": "address",
          "name": "to",
          "type": "address"
        },
        {
          "internalType": "uint256",
          "name": "tokenId",
          "type": "uint256"
        },
        {
          "internalType": "bytes",
          "name": "_data",
          "type": "bytes"
        }
      ],
      "name": "safeTransferFrom",
      "outputs": [],
      "stateMutability": "nonpayable",
      "type": "function"
    },
    {
      "inputs": [
        {
          "internalType": "address",
          "name": "operator",
          "type": "address"
        },
        {
          "internalType": "bool",
          "name": "approved",
          "type": "bool"
        }
      ],
      "name": "setApprovalForAll",
      "outputs": [],
      "stateMutability": "nonpayable",
      "type": "function"
    },
    {
      "inputs": [
        {
          "internalType": "bytes4",
          "name": "interfaceId",
          "type": "bytes4"
        }
      ],
      "name": "supportsInterface",
      "outputs": [
        {
          "internalType": "bool",
          "name": "",
          "type": "bool"
        }
      ],
      "stateMutability": "view",
      "type": "function"
    },
    {
      "inputs": [],
      "name": "symbol",
      "outputs": [
        {
          "internalType": "string",
          "name": "",
          "type": "string"
        }
      ],
      "stateMutability": "view",
      "type": "function"
    },
    {
      "inputs": [
        {
          "internalType": "uint256",
          "name": "tokenId",
          "type": "uint256"
        }
      ],
      "name": "tokenURI",
      "outputs": [
        {
          "internalType": "string",
          "name": "",
          "type": "string"
        }
      ],
      "stateMutability": "view",
      "type": "function"
    },
    {
      "inputs": [
        {
          "internalType": "address",
          "name": "from",
          "type": "address"
        },
        {
          "internalType": "address",
          "name": "to",
          "type": "address"
        },
        {
          "internalType": "uint256",
          "name": "tokenId",
          "type": "uint256"
        }
      ],
      "name": "transferFrom",
      "outputs": [],
      "stateMutability": "nonpayable",
      "type": "function"
    }
  ],
  "bytecode": "0x60806040523480156200001157600080fd5b50604080518082018252601b81527f446563656e7472616c697a6564204c6962726172792045626f6f6b0000000000602080830191825283518085019094526005845264222634b12160d91b9084015281519192916200007491600091620000a5565b5080516200008a906001906020840190620000a5565b5050600980546001600160a01b031916331790555062000188565b828054620000b3906200014b565b90600052602060002090601f016020900481019282620000d7576000855562000122565b82601f10620000f257805160ff191683800117855562000122565b8280016001018555821562000122579182015b828111156200012257825182559160200191906001019062000105565b506200013092915062000134565b5090565b5b8082111562000130576000815560010162000135565b600181811c908216806200016057607f821691505b602082108114156200018257634e487b7160e01b600052602260045260246000fd5b50919050565b61297180620001986000396000f3fe60806040526004361061014b5760003560e01c806345f8fa80116100b657806395d89b411161006f57806395d89b4114610382578063a22cb46514610397578063b88d4fde146103b7578063c87b56dd146103d7578063d7ed3282146103f7578063e985e9c51461040a57600080fd5b806345f8fa80146102d85780636352211e146102ed57806370a082311461030d5780637d7487521461032d57806388ceb0df1461034257806395530aea1461036f57600080fd5b806323b872dd1161010857806323b872dd14610246578063290a047b14610266578063310aac691461027b5780633e474b071461029057806342842e0e146102a557806345e3c493146102c557600080fd5b806301ffc9a71461015057806306fdde0314610185578063081812fc146101a7578063095ea7b3146101df5780630c7a792d146102015780632279677414610224575b600080fd5b34801561015c57600080fd5b5061017061016b36600461228a565b610453565b60405190151581526020015b60405180910390f35b34801561019157600080fd5b5061019a6104a5565b60405161017c91906122ff565b3480156101b357600080fd5b506101c76101c2366004612312565b610537565b6040516001600160a01b03909116815260200161017c565b3480156101eb57600080fd5b506101ff6101fa366004612347565b6105c4565b005b34801561020d57600080fd5b506102166106da565b60405190815260200161017c565b34801561023057600080fd5b506102396106ea565b60405161017c91906123d4565b34801561025257600080fd5b506101ff610261366004612436565b6108e3565b34801561027257600080fd5b50610239610914565b34801561028757600080fd5b50610216610afc565b34801561029c57600080fd5b50610239610b07565b3480156102b157600080fd5b506101ff6102c0366004612436565b610d2b565b6101ff6102d336600461251e565b610d46565b3480156102e457600080fd5b50610239610e60565b3480156102f957600080fd5b506101c7610308366004612312565b6110bb565b34801561031957600080fd5b50610216610328366004612565565b611132565b34801561033957600080fd5b506102396111b9565b34801561034e57600080fd5b5061036261035d366004612312565b611408565b60405161017c9190612580565b6101ff61037d366004612312565b61150e565b34801561038e57600080fd5b5061019a611582565b3480156103a357600080fd5b506101ff6103b2366004612593565b611591565b3480156103c357600080fd5b506101ff6103d23660046125cf565b61159c565b3480156103e357600080fd5b5061019a6103f2366004612312565b6115d4565b61021661040536600461264b565b61174b565b34801561041657600080fd5b506101706104253660046126a5565b6001600160a01b03918216600090815260056020908152604080832093909416825291909152205460ff1690565b60006001600160e01b031982166380ac58cd60e01b148061048457506001600160e01b03198216635b5e139f60e01b145b8061049f57506301ffc9a760e01b6001600160e01b03198316145b92915050565b6060600080546104b4906126d8565b80601f01602080910402602001604051908101604052809291908181526020018280546104e0906126d8565b801561052d5780601f106105025761010080835404028352916020019161052d565b820191906000526020600020905b81548152906001019060200180831161051057829003601f168201915b5050505050905090565b60006105428261178d565b6105a85760405162461bcd60e51b815260206004820152602c60248201527f4552433732313a20617070726f76656420717565727920666f72206e6f6e657860448201526b34b9ba32b73a103a37b5b2b760a11b60648201526084015b60405180910390fd5b506000908152600460205260409020546001600160a01b031690565b60006105cf826110bb565b9050806001600160a01b0316836001600160a01b0316141561063d5760405162461bcd60e51b815260206004820152602160248201527f4552433732313a20617070726f76616c20746f2063757272656e74206f776e656044820152603960f91b606482015260840161059f565b336001600160a01b038216148061065957506106598133610425565b6106cb5760405162461bcd60e51b815260206004820152603860248201527f4552433732313a20617070726f76652063616c6c6572206973206e6f74206f7760448201527f6e6572206e6f7220617070726f76656420666f7220616c6c0000000000000000606482015260840161059f565b6106d583836117aa565b505050565b60006106e560085490565b905090565b606060006106f760075490565b90506000808267ffffffffffffffff81111561071557610715612472565b60405190808252806020026020018201604052801561074e57816020015b61073b6121a4565b8152602001906001900390816107335790505b50905060005b838110156108db5730600a600061076c846001612729565b81526020810191909152604001600020600201546001600160a01b031614156108c957600061079c826001612729565b6000818152600a6020908152604091829020825160c0810184528154815260018201546001600160a01b0390811693820193909352600282015483169381019390935260038101549091166060830152600481018054939450909283916080840191610807906126d8565b80601f0160208091040260200160405190810160405280929190818152602001828054610833906126d8565b80156108805780601f1061085557610100808354040283529160200191610880565b820191906000526020600020905b81548152906001019060200180831161086357829003601f168201915b50505091835250506005919091015460ff16151560209091015284518590879081106108ae576108ae612741565b60209081029190910101526108c4600186612729565b945050505b806108d381612757565b915050610754565b509392505050565b6108ed3382611818565b6109095760405162461bcd60e51b815260040161059f90612772565b6106d5838383611901565b6060600061092160075490565b90506000808267ffffffffffffffff81111561093f5761093f612472565b60405190808252806020026020018201604052801561097857816020015b6109656121a4565b81526020019060019003908161095d5790505b50905060005b838110156108db57600a6000610995836001612729565b815260208101919091526040016000206005015460ff16610aea5760006109bd826001612729565b6000818152600a6020908152604091829020825160c0810184528154815260018201546001600160a01b0390811693820193909352600282015483169381019390935260038101549091166060830152600481018054939450909283916080840191610a28906126d8565b80601f0160208091040260200160405190810160405280929190818152602001828054610a54906126d8565b8015610aa15780601f10610a7657610100808354040283529160200191610aa1565b820191906000526020600020905b815481529060010190602001808311610a8457829003601f168201915b50505091835250506005919091015460ff1615156020909101528451859087908110610acf57610acf612741565b6020908102919091010152610ae5600186612729565b945050505b80610af481612757565b91505061097e565b60006106e560075490565b60606000610b1460075490565b90506000808267ffffffffffffffff811115610b3257610b32612472565b604051908082528060200260200182016040528015610b6b57816020015b610b586121a4565b815260200190600190039081610b505790505b50905060005b838110156108db5733600a6000610b89846001612729565b81526020810191909152604001600020600301546001600160a01b0316148015610bda5750600a6000610bbd836001612729565b815260208101919091526040016000206005015460ff1615156001145b15610d19576000610bec826001612729565b6000818152600a6020908152604091829020825160c0810184528154815260018201546001600160a01b0390811693820193909352600282015483169381019390935260038101549091166060830152600481018054939450909283916080840191610c57906126d8565b80601f0160208091040260200160405190810160405280929190818152602001828054610c83906126d8565b8015610cd05780601f10610ca557610100808354040283529160200191610cd0565b820191906000526020600020905b815481529060010190602001808311610cb357829003601f168201915b50505091835250506005919091015460ff1615156020909101528451859087908110610cfe57610cfe612741565b6020908102919091010152610d14600186612729565b945050505b80610d2381612757565b915050610b71565b6106d58383836040518060200160405280600081525061159c565b6000828152600a6020526040902060018101546002909101546001600160a01b0391821691163314610de2576040805162461bcd60e51b81526020600482015260248101919091527f4f6e6c7920746865206f6e6520696e20706f73736573696f6e206f662074686560448201527f20626f6f6b2063616e20706572666f726d2074686973206f7065726174696f6e606482015260840161059f565b6000838152600a6020908152604090912060058101805460ff191690556001810180546001600160a01b0385166001600160a01b03199182161790915560028201805482163017905560038201805490911690558351610e4a926004909201918501906121d8565b50610e556008611a9d565b6106d5333085611901565b60606000610e6d60075490565b905060008060005b83811015610ed05733600a6000610e8d846001612729565b81526020810191909152604001600020600101546001600160a01b03161415610ebe57610ebb600184612729565b92505b80610ec881612757565b915050610e75565b5060008267ffffffffffffffff811115610eec57610eec612472565b604051908082528060200260200182016040528015610f2557816020015b610f126121a4565b815260200190600190039081610f0a5790505b50905060005b848110156110b25733600a6000610f43846001612729565b81526020810191909152604001600020600101546001600160a01b031614156110a0576000610f73826001612729565b6000818152600a6020908152604091829020825160c0810184528154815260018201546001600160a01b0390811693820193909352600282015483169381019390935260038101549091166060830152600481018054939450909283916080840191610fde906126d8565b80601f016020809104026020016040519081016040528092919081815260200182805461100a906126d8565b80156110575780601f1061102c57610100808354040283529160200191611057565b820191906000526020600020905b81548152906001019060200180831161103a57829003601f168201915b50505091835250506005919091015460ff161515602090910152845185908790811061108557611085612741565b602090810291909101015261109b600186612729565b945050505b806110aa81612757565b915050610f2b565b50949350505050565b6000818152600260205260408120546001600160a01b03168061049f5760405162461bcd60e51b815260206004820152602960248201527f4552433732313a206f776e657220717565727920666f72206e6f6e657869737460448201526832b73a103a37b5b2b760b91b606482015260840161059f565b60006001600160a01b03821661119d5760405162461bcd60e51b815260206004820152602a60248201527f4552433732313a2062616c616e636520717565727920666f7220746865207a65604482015269726f206164647265737360b01b606482015260840161059f565b506001600160a01b031660009081526003602052604090205490565b606060006111c660075490565b905060008060005b8381101561122657600a60006111e5836001612729565b815260208101919091526040016000206005015460ff1615156001141561121457611211600184612729565b92505b8061121e81612757565b9150506111ce565b5060008267ffffffffffffffff81111561124257611242612472565b60405190808252806020026020018201604052801561127b57816020015b6112686121a4565b8152602001906001900390816112605790505b50905060005b848110156110b25733600a6000611299846001612729565b81526020810191909152604001600020600301546001600160a01b031614156113f65760006112c9826001612729565b6000818152600a6020908152604091829020825160c0810184528154815260018201546001600160a01b0390811693820193909352600282015483169381019390935260038101549091166060830152600481018054939450909283916080840191611334906126d8565b80601f0160208091040260200160405190810160405280929190818152602001828054611360906126d8565b80156113ad5780601f10611382576101008083540402835291602001916113ad565b820191906000526020600020905b81548152906001019060200180831161139057829003601f168201915b50505091835250506005919091015460ff16151560209091015284518590879081106113db576113db612741565b60209081029190910101526113f1600186612729565b945050505b8061140081612757565b915050611281565b6114106121a4565b6000828152600a6020908152604091829020825160c0810184528154815260018201546001600160a01b0390811693820193909352600282015483169381019390935260038101549091166060830152600481018054608084019190611475906126d8565b80601f01602080910402602001604051908101604052809291908181526020018280546114a1906126d8565b80156114ee5780601f106114c3576101008083540402835291602001916114ee565b820191906000526020600020905b8154815290600101906020018083116114d157829003601f168201915b50505091835250506005919091015460ff16151560209091015292915050565b6000818152600a6020526040902060018082018054600284018054306001600160a01b03199182161790915560058501805460ff1916851790556001600160a01b03821691811682179092556003909301805433921691909117905560088054909101905561157e303384611901565b5050565b6060600180546104b4906126d8565b61157e338383611af4565b6115a63383611818565b6115c25760405162461bcd60e51b815260040161059f90612772565b6115ce84848484611bc3565b50505050565b60606115df8261178d565b6116455760405162461bcd60e51b815260206004820152603160248201527f45524337323155524953746f726167653a2055524920717565727920666f72206044820152703737b732bc34b9ba32b73a103a37b5b2b760791b606482015260840161059f565b6000828152600660205260408120805461165e906126d8565b80601f016020809104026020016040519081016040528092919081815260200182805461168a906126d8565b80156116d75780601f106116ac576101008083540402835291602001916116d7565b820191906000526020600020905b8154815290600101906020018083116116ba57829003601f168201915b5050505050905060006116f560408051602081019091526000815290565b9050805160001415611708575092915050565b81511561173a5780826040516020016117229291906127c3565b60405160208183030381529060405292505050919050565b61174384611bf6565b949350505050565b600061175b600780546001019055565b600061176660075490565b90506117723382611ccd565b61177c8185611e00565b6117868184611e8b565b9392505050565b6000908152600260205260409020546001600160a01b0316151590565b600081815260046020526040902080546001600160a01b0319166001600160a01b03841690811790915581906117df826110bb565b6001600160a01b03167f8c5be1e5ebec7d5bd14f71427d1e84f3dd0314c0f7b2291e5b200ac8c7c3b92560405160405180910390a45050565b60006118238261178d565b6118845760405162461bcd60e51b815260206004820152602c60248201527f4552433732313a206f70657261746f7220717565727920666f72206e6f6e657860448201526b34b9ba32b73a103a37b5b2b760a11b606482015260840161059f565b600061188f836110bb565b9050806001600160a01b0316846001600160a01b031614806118d657506001600160a01b0380821660009081526005602090815260408083209388168352929052205460ff165b806117435750836001600160a01b03166118ef84610537565b6001600160a01b031614949350505050565b826001600160a01b0316611914826110bb565b6001600160a01b0316146119785760405162461bcd60e51b815260206004820152602560248201527f4552433732313a207472616e736665722066726f6d20696e636f72726563742060448201526437bbb732b960d91b606482015260840161059f565b6001600160a01b0382166119da5760405162461bcd60e51b8152602060048201526024808201527f4552433732313a207472616e7366657220746f20746865207a65726f206164646044820152637265737360e01b606482015260840161059f565b6119e56000826117aa565b6001600160a01b0383166000908152600360205260408120805460019290611a0e9084906127f2565b90915550506001600160a01b0382166000908152600360205260408120805460019290611a3c908490612729565b909155505060008181526002602052604080822080546001600160a01b0319166001600160a01b0386811691821790925591518493918716917fddf252ad1be2c89b69c2b068fc378daa952ba7f163c4a11628f55a4df523b3ef91a4505050565b805480611aec5760405162461bcd60e51b815260206004820152601b60248201527f436f756e7465723a2064656372656d656e74206f766572666c6f770000000000604482015260640161059f565b600019019055565b816001600160a01b0316836001600160a01b03161415611b565760405162461bcd60e51b815260206004820152601960248201527f4552433732313a20617070726f766520746f2063616c6c657200000000000000604482015260640161059f565b6001600160a01b03838116600081815260056020908152604080832094871680845294825291829020805460ff191686151590811790915591519182527f17307eab39ab6107e8899845ad3d59bd9653f200f220920489ca2b5937696c31910160405180910390a3505050565b611bce848484611901565b611bda84848484611f99565b6115ce5760405162461bcd60e51b815260040161059f90612809565b6060611c018261178d565b611c655760405162461bcd60e51b815260206004820152602f60248201527f4552433732314d657461646174613a2055524920717565727920666f72206e6f60448201526e3732bc34b9ba32b73a103a37b5b2b760891b606482015260840161059f565b6000611c7c60408051602081019091526000815290565b90506000815111611c9c5760405180602001604052806000815250611786565b80611ca6846120a6565b604051602001611cb79291906127c3565b6040516020818303038152906040529392505050565b6001600160a01b038216611d235760405162461bcd60e51b815260206004820181905260248201527f4552433732313a206d696e7420746f20746865207a65726f2061646472657373604482015260640161059f565b611d2c8161178d565b15611d795760405162461bcd60e51b815260206004820152601c60248201527f4552433732313a20746f6b656e20616c7265616479206d696e74656400000000604482015260640161059f565b6001600160a01b0382166000908152600360205260408120805460019290611da2908490612729565b909155505060008181526002602052604080822080546001600160a01b0319166001600160a01b03861690811790915590518392907fddf252ad1be2c89b69c2b068fc378daa952ba7f163c4a11628f55a4df523b3ef908290a45050565b611e098261178d565b611e6c5760405162461bcd60e51b815260206004820152602e60248201527f45524337323155524953746f726167653a2055524920736574206f66206e6f6e60448201526d32bc34b9ba32b73a103a37b5b2b760911b606482015260840161059f565b600082815260066020908152604090912082516106d5928401906121d8565b6040805160c081018252838152336020808301918252308385019081526000606085018181526080860188815260a08701839052898352600a8552969091208551815593516001850180546001600160a01b03199081166001600160a01b039384161790915592516002860180548516918316919091179055905160038501805490931691161790559251805192939192611f2c92600485019201906121d8565b5060a091909101516005909101805460ff1916911515919091179055611f53333084611901565b817fb00b235d12ad6e3d2e85c8e7749f1bcc0dbf1a31ac6ab928fe652ab91eaa95a133306000856000604051611f8d95949392919061285b565b60405180910390a25050565b60006001600160a01b0384163b1561209b57604051630a85bd0160e11b81526001600160a01b0385169063150b7a0290611fdd9033908990889088906004016128a3565b602060405180830381600087803b158015611ff757600080fd5b505af1925050508015612027575060408051601f3d908101601f19168201909252612024918101906128e0565b60015b612081573d808015612055576040519150601f19603f3d011682016040523d82523d6000602084013e61205a565b606091505b5080516120795760405162461bcd60e51b815260040161059f90612809565b805181602001fd5b6001600160e01b031916630a85bd0160e11b149050611743565b506001949350505050565b6060816120ca5750506040805180820190915260018152600360fc1b602082015290565b8160005b81156120f457806120de81612757565b91506120ed9050600a83612913565b91506120ce565b60008167ffffffffffffffff81111561210f5761210f612472565b6040519080825280601f01601f191660200182016040528015612139576020820181803683370190505b5090505b84156117435761214e6001836127f2565b915061215b600a86612927565b612166906030612729565b60f81b81838151811061217b5761217b612741565b60200101906001600160f81b031916908160001a90535061219d600a86612913565b945061213d565b6040805160c0810182526000808252602082018190529181018290526060808201839052608082015260a081019190915290565b8280546121e4906126d8565b90600052602060002090601f016020900481019282612206576000855561224c565b82601f1061221f57805160ff191683800117855561224c565b8280016001018555821561224c579182015b8281111561224c578251825591602001919060010190612231565b5061225892915061225c565b5090565b5b80821115612258576000815560010161225d565b6001600160e01b03198116811461228757600080fd5b50565b60006020828403121561229c57600080fd5b813561178681612271565b60005b838110156122c25781810151838201526020016122aa565b838111156115ce5750506000910152565b600081518084526122eb8160208601602086016122a7565b601f01601f19169290920160200192915050565b60208152600061178660208301846122d3565b60006020828403121561232457600080fd5b5035919050565b80356001600160a01b038116811461234257600080fd5b919050565b6000806040838503121561235a57600080fd5b6123638361232b565b946020939093013593505050565b805182526000602082015160018060a01b0380821660208601528060408501511660408601528060608501511660608601525050608082015160c060808501526123be60c08501826122d3565b60a0938401511515949093019390935250919050565b6000602080830181845280855180835260408601915060408160051b870101925083870160005b8281101561242957603f19888603018452612417858351612371565b945092850192908501906001016123fb565b5092979650505050505050565b60008060006060848603121561244b57600080fd5b6124548461232b565b92506124626020850161232b565b9150604084013590509250925092565b634e487b7160e01b600052604160045260246000fd5b600067ffffffffffffffff808411156124a3576124a3612472565b604051601f8501601f19908116603f011681019082821181831017156124cb576124cb612472565b816040528093508581528686860111156124e457600080fd5b858560208301376000602087830101525050509392505050565b600082601f83011261250f57600080fd5b61178683833560208501612488565b6000806040838503121561253157600080fd5b82359150602083013567ffffffffffffffff81111561254f57600080fd5b61255b858286016124fe565b9150509250929050565b60006020828403121561257757600080fd5b6117868261232b565b6020815260006117866020830184612371565b600080604083850312156125a657600080fd5b6125af8361232b565b9150602083013580151581146125c457600080fd5b809150509250929050565b600080600080608085870312156125e557600080fd5b6125ee8561232b565b93506125fc6020860161232b565b925060408501359150606085013567ffffffffffffffff81111561261f57600080fd5b8501601f8101871361263057600080fd5b61263f87823560208401612488565b91505092959194509250565b6000806040838503121561265e57600080fd5b823567ffffffffffffffff8082111561267657600080fd5b612682868387016124fe565b9350602085013591508082111561269857600080fd5b5061255b858286016124fe565b600080604083850312156126b857600080fd5b6126c18361232b565b91506126cf6020840161232b565b90509250929050565b600181811c908216806126ec57607f821691505b6020821081141561270d57634e487b7160e01b600052602260045260246000fd5b50919050565b634e487b7160e01b600052601160045260246000fd5b6000821982111561273c5761273c612713565b500190565b634e487b7160e01b600052603260045260246000fd5b600060001982141561276b5761276b612713565b5060010190565b60208082526031908201527f4552433732313a207472616e736665722063616c6c6572206973206e6f74206f6040820152701ddb995c881b9bdc88185c1c1c9bdd9959607a1b606082015260800190565b600083516127d58184602088016122a7565b8351908301906127e98183602088016122a7565b01949350505050565b60008282101561280457612804612713565b500390565b60208082526032908201527f4552433732313a207472616e7366657220746f206e6f6e20455243373231526560408201527131b2b4bb32b91034b6b83632b6b2b73a32b960711b606082015260800190565b6001600160a01b03868116825285811660208301528416604082015260a06060820181905260009061288f908301856122d3565b905082151560808301529695505050505050565b6001600160a01b03858116825284166020820152604081018390526080606082018190526000906128d6908301846122d3565b9695505050505050565b6000602082840312156128f257600080fd5b815161178681612271565b634e487b7160e01b600052601260045260246000fd5b600082612922576129226128fd565b500490565b600082612936576129366128fd565b50069056fea26469706673582212200e8d11d2474125b94306a95130f2fe036229dd03e87738a0ebb8f6a82ebc48fa64736f6c63430008090033",
  "linkReferences": {},
  "deployedLinkReferences": {}
}