{
  "_format": "hh-sol-artifact-1",
  "contractName": "Ebook",
  "sourceName": "contracts/Ebook.sol",
  "abi": [
    {
      "inputs": [],
      "stateMutability": "nonpayable",
      "type": "constructor"
    },
    {
      "anonymous": false,
      "inputs": [
        {
          "indexed": true,
          "internalType": "address",
          "name": "owner",
          "type": "address"
        },
        {
          "indexed": true,
          "internalType": "address",
          "name": "approved",
          "type": "address"
        },
        {
          "indexed": true,
          "internalType": "uint256",
          "name": "tokenId",
          "type": "uint256"
        }
      ],
      "name": "Approval",
      "type": "event"
    },
    {
      "anonymous": false,
      "inputs": [
        {
          "indexed": true,
          "internalType": "address",
          "name": "owner",
          "type": "address"
        },
        {
          "indexed": true,
          "internalType": "address",
          "name": "operator",
          "type": "address"
        },
        {
          "indexed": false,
          "internalType": "bool",
          "name": "approved",
          "type": "bool"
        }
      ],
      "name": "ApprovalForAll",
      "type": "event"
    },
    {
      "anonymous": false,
      "inputs": [
        {
          "indexed": true,
          "internalType": "uint256",
          "name": "tokenId",
          "type": "uint256"
        },
        {
          "indexed": false,
          "internalType": "address",
          "name": "creator",
          "type": "address"
        },
        {
          "indexed": false,
          "internalType": "address",
          "name": "owner",
          "type": "address"
        },
        {
          "indexed": false,
          "internalType": "address",
          "name": "reader",
          "type": "address"
        },
        {
          "indexed": false,
          "internalType": "string",
          "name": "category",
          "type": "string"
        },
        {
          "indexed": false,
          "internalType": "bool",
          "name": "read",
          "type": "bool"
        }
      ],
      "name": "LibraryItemCreated",
      "type": "event"
    },
    {
      "anonymous": false,
      "inputs": [
        {
          "indexed": true,
          "internalType": "address",
          "name": "from",
          "type": "address"
        },
        {
          "indexed": true,
          "internalType": "address",
          "name": "to",
          "type": "address"
        },
        {
          "indexed": true,
          "internalType": "uint256",
          "name": "tokenId",
          "type": "uint256"
        }
      ],
      "name": "Transfer",
      "type": "event"
    },
    {
      "inputs": [
        {
          "internalType": "address",
          "name": "to",
          "type": "address"
        },
        {
          "internalType": "uint256",
          "name": "tokenId",
          "type": "uint256"
        }
      ],
      "name": "approve",
      "outputs": [],
      "stateMutability": "nonpayable",
      "type": "function"
    },
    {
      "inputs": [
        {
          "internalType": "address",
          "name": "owner",
          "type": "address"
        }
      ],
      "name": "balanceOf",
      "outputs": [
        {
          "internalType": "uint256",
          "name": "",
          "type": "uint256"
        }
      ],
      "stateMutability": "view",
      "type": "function"
    },
    {
      "inputs": [
        {
          "internalType": "string",
          "name": "tokenURI",
          "type": "string"
        },
        {
          "internalType": "string",
          "name": "category",
          "type": "string"
        }
      ],
      "name": "createEbook",
      "outputs": [
        {
          "internalType": "uint256",
          "name": "",
          "type": "uint256"
        }
      ],
      "stateMutability": "payable",
      "type": "function"
    },
    {
      "inputs": [
        {
          "internalType": "uint256",
          "name": "tokenId",
          "type": "uint256"
        }
      ],
      "name": "createLibraryRead",
      "outputs": [],
      "stateMutability": "payable",
      "type": "function"
    },
    {
      "inputs": [],
      "name": "fetchAllLibraryItems",
      "outputs": [
        {
          "components": [
            {
              "internalType": "uint256",
              "name": "tokenId",
              "type": "uint256"
            },
            {
              "internalType": "address payable",
              "name": "creator",
              "type": "address"
            },
            {
              "internalType": "address payable",
              "name": "owner",
              "type": "address"
            },
            {
              "internalType": "address payable",
              "name": "reader",
              "type": "address"
            },
            {
              "internalType": "string",
              "name": "category",
              "type": "string"
            },
            {
              "internalType": "bool",
              "name": "read",
              "type": "bool"
            }
          ],
          "internalType": "struct Ebook.LibraryItem[]",
          "name": "",
          "type": "tuple[]"
        }
      ],
      "stateMutability": "view",
      "type": "function"
    },
    {
      "inputs": [
        {
          "internalType": "string",
          "name": "category",
          "type": "string"
        }
      ],
      "name": "fetchItemsByCategory",
      "outputs": [
        {
          "components": [
            {
              "internalType": "uint256",
              "name": "tokenId",
              "type": "uint256"
            },
            {
              "internalType": "address payable",
              "name": "creator",
              "type": "address"
            },
            {
              "internalType": "address payable",
              "name": "owner",
              "type": "address"
            },
            {
              "internalType": "address payable",
              "name": "reader",
              "type": "address"
            },
            {
              "internalType": "string",
              "name": "category",
              "type": "string"
            },
            {
              "internalType": "bool",
              "name": "read",
              "type": "bool"
            }
          ],
          "internalType": "struct Ebook.LibraryItem[]",
          "name": "",
          "type": "tuple[]"
        }
      ],
      "stateMutability": "view",
      "type": "function"
    },
    {
      "inputs": [],
      "name": "fetchItemsListed",
      "outputs": [
        {
          "components": [
            {
              "internalType": "uint256",
              "name": "tokenId",
              "type": "uint256"
            },
            {
              "internalType": "address payable",
              "name": "creator",
              "type": "address"
            },
            {
              "internalType": "address payable",
              "name": "owner",
              "type": "address"
            },
            {
              "internalType": "address payable",
              "name": "reader",
              "type": "address"
            },
            {
              "internalType": "string",
              "name": "category",
              "type": "string"
            },
            {
              "internalType": "bool",
              "name": "read",
              "type": "bool"
            }
          ],
          "internalType": "struct Ebook.LibraryItem[]",
          "name": "",
          "type": "tuple[]"
        }
      ],
      "stateMutability": "view",
      "type": "function"
    },
    {
      "inputs": [],
      "name": "fetchMyEbooks",
      "outputs": [
        {
          "components": [
            {
              "internalType": "uint256",
              "name": "tokenId",
              "type": "uint256"
            },
            {
              "internalType": "address payable",
              "name": "creator",
              "type": "address"
            },
            {
              "internalType": "address payable",
              "name": "owner",
              "type": "address"
            },
            {
              "internalType": "address payable",
              "name": "reader",
              "type": "address"
            },
            {
              "internalType": "string",
              "name": "category",
              "type": "string"
            },
            {
              "internalType": "bool",
              "name": "read",
              "type": "bool"
            }
          ],
          "internalType": "struct Ebook.LibraryItem[]",
          "name": "",
          "type": "tuple[]"
        }
      ],
      "stateMutability": "view",
      "type": "function"
    },
    {
      "inputs": [
        {
          "internalType": "uint256",
          "name": "tokenId",
          "type": "uint256"
        }
      ],
      "name": "fetchOneItem",
      "outputs": [
        {
          "components": [
            {
              "internalType": "uint256",
              "name": "tokenId",
              "type": "uint256"
            },
            {
              "internalType": "address payable",
              "name": "creator",
              "type": "address"
            },
            {
              "internalType": "address payable",
              "name": "owner",
              "type": "address"
            },
            {
              "internalType": "address payable",
              "name": "reader",
              "type": "address"
            },
            {
              "internalType": "string",
              "name": "category",
              "type": "string"
            },
            {
              "internalType": "bool",
              "name": "read",
              "type": "bool"
            }
          ],
          "internalType": "struct Ebook.LibraryItem",
          "name": "",
          "type": "tuple"
        }
      ],
      "stateMutability": "view",
      "type": "function"
    },
    {
      "inputs": [
        {
          "internalType": "uint256",
          "name": "_tokenId",
          "type": "uint256"
        }
      ],
      "name": "fetchOneNFT",
      "outputs": [
        {
          "components": [
            {
              "internalType": "uint256",
              "name": "tokenId",
              "type": "uint256"
            },
            {
              "internalType": "address payable",
              "name": "creator",
              "type": "address"
            },
            {
              "internalType": "address payable",
              "name": "owner",
              "type": "address"
            },
            {
              "internalType": "address payable",
              "name": "reader",
              "type": "address"
            },
            {
              "internalType": "string",
              "name": "category",
              "type": "string"
            },
            {
              "internalType": "bool",
              "name": "read",
              "type": "bool"
            }
          ],
          "internalType": "struct Ebook.LibraryItem[]",
          "name": "",
          "type": "tuple[]"
        }
      ],
      "stateMutability": "view",
      "type": "function"
    },
    {
      "inputs": [],
      "name": "fetchReader",
      "outputs": [
        {
          "components": [
            {
              "internalType": "uint256",
              "name": "tokenId",
              "type": "uint256"
            },
            {
              "internalType": "address payable",
              "name": "creator",
              "type": "address"
            },
            {
              "internalType": "address payable",
              "name": "owner",
              "type": "address"
            },
            {
              "internalType": "address payable",
              "name": "reader",
              "type": "address"
            },
            {
              "internalType": "string",
              "name": "category",
              "type": "string"
            },
            {
              "internalType": "bool",
              "name": "read",
              "type": "bool"
            }
          ],
          "internalType": "struct Ebook.LibraryItem[]",
          "name": "",
          "type": "tuple[]"
        }
      ],
      "stateMutability": "view",
      "type": "function"
    },
    {
      "inputs": [],
      "name": "fetchUnreadLibraryItems",
      "outputs": [
        {
          "components": [
            {
              "internalType": "uint256",
              "name": "tokenId",
              "type": "uint256"
            },
            {
              "internalType": "address payable",
              "name": "creator",
              "type": "address"
            },
            {
              "internalType": "address payable",
              "name": "owner",
              "type": "address"
            },
            {
              "internalType": "address payable",
              "name": "reader",
              "type": "address"
            },
            {
              "internalType": "string",
              "name": "category",
              "type": "string"
            },
            {
              "internalType": "bool",
              "name": "read",
              "type": "bool"
            }
          ],
          "internalType": "struct Ebook.LibraryItem[]",
          "name": "",
          "type": "tuple[]"
        }
      ],
      "stateMutability": "view",
      "type": "function"
    },
    {
      "inputs": [
        {
          "internalType": "uint256",
          "name": "tokenId",
          "type": "uint256"
        }
      ],
      "name": "getApproved",
      "outputs": [
        {
          "internalType": "address",
          "name": "",
          "type": "address"
        }
      ],
      "stateMutability": "view",
      "type": "function"
    },
    {
      "inputs": [],
      "name": "getTotalItems",
      "outputs": [
        {
          "internalType": "uint256",
          "name": "",
          "type": "uint256"
        }
      ],
      "stateMutability": "view",
      "type": "function"
    },
    {
      "inputs": [],
      "name": "getTotalRead",
      "outputs": [
        {
          "internalType": "uint256",
          "name": "",
          "type": "uint256"
        }
      ],
      "stateMutability": "view",
      "type": "function"
    },
    {
      "inputs": [
        {
          "internalType": "address",
          "name": "owner",
          "type": "address"
        },
        {
          "internalType": "address",
          "name": "operator",
          "type": "address"
        }
      ],
      "name": "isApprovedForAll",
      "outputs": [
        {
          "internalType": "bool",
          "name": "",
          "type": "bool"
        }
      ],
      "stateMutability": "view",
      "type": "function"
    },
    {
      "inputs": [],
      "name": "name",
      "outputs": [
        {
          "internalType": "string",
          "name": "",
          "type": "string"
        }
      ],
      "stateMutability": "view",
      "type": "function"
    },
    {
      "inputs": [
        {
          "internalType": "uint256",
          "name": "tokenId",
          "type": "uint256"
        }
      ],
      "name": "ownerOf",
      "outputs": [
        {
          "internalType": "address",
          "name": "",
          "type": "address"
        }
      ],
      "stateMutability": "view",
      "type": "function"
    },
    {
      "inputs": [
        {
          "internalType": "uint256",
          "name": "tokenId",
          "type": "uint256"
        },
        {
          "internalType": "string",
          "name": "category",
          "type": "string"
        }
      ],
      "name": "returnBook",
      "outputs": [],
      "stateMutability": "payable",
      "type": "function"
    },
    {
      "inputs": [
        {
          "internalType": "address",
          "name": "from",
          "type": "address"
        },
        {
          "internalType": "address",
          "name": "to",
          "type": "address"
        },
        {
          "internalType": "uint256",
          "name": "tokenId",
          "type": "uint256"
        }
      ],
      "name": "safeTransferFrom",
      "outputs": [],
      "stateMutability": "nonpayable",
      "type": "function"
    },
    {
      "inputs": [
        {
          "internalType": "address",
          "name": "from",
          "type": "address"
        },
        {
          "internalType": "address",
          "name": "to",
          "type": "address"
        },
        {
          "internalType": "uint256",
          "name": "tokenId",
          "type": "uint256"
        },
        {
          "internalType": "bytes",
          "name": "_data",
          "type": "bytes"
        }
      ],
      "name": "safeTransferFrom",
      "outputs": [],
      "stateMutability": "nonpayable",
      "type": "function"
    },
    {
      "inputs": [
        {
          "internalType": "address",
          "name": "operator",
          "type": "address"
        },
        {
          "internalType": "bool",
          "name": "approved",
          "type": "bool"
        }
      ],
      "name": "setApprovalForAll",
      "outputs": [],
      "stateMutability": "nonpayable",
      "type": "function"
    },
    {
      "inputs": [
        {
          "internalType": "bytes4",
          "name": "interfaceId",
          "type": "bytes4"
        }
      ],
      "name": "supportsInterface",
      "outputs": [
        {
          "internalType": "bool",
          "name": "",
          "type": "bool"
        }
      ],
      "stateMutability": "view",
      "type": "function"
    },
    {
      "inputs": [],
      "name": "symbol",
      "outputs": [
        {
          "internalType": "string",
          "name": "",
          "type": "string"
        }
      ],
      "stateMutability": "view",
      "type": "function"
    },
    {
      "inputs": [
        {
          "internalType": "uint256",
          "name": "tokenId",
          "type": "uint256"
        }
      ],
      "name": "tokenURI",
      "outputs": [
        {
          "internalType": "string",
          "name": "",
          "type": "string"
        }
      ],
      "stateMutability": "view",
      "type": "function"
    },
    {
      "inputs": [
        {
          "internalType": "address",
          "name": "from",
          "type": "address"
        },
        {
          "internalType": "address",
          "name": "to",
          "type": "address"
        },
        {
          "internalType": "uint256",
          "name": "tokenId",
          "type": "uint256"
        }
      ],
      "name": "transferFrom",
      "outputs": [],
      "stateMutability": "nonpayable",
      "type": "function"
    }
  ],
  "bytecode": "0x60806040523480156200001157600080fd5b506040518060400160405280601b81526020017f446563656e7472616c697a6564204c6962726172792045626f6f6b000000000081525060405180604001604052806005815260200164222634b12160d91b815250816000908162000077919062000146565b50600162000086828262000146565b5050600980546001600160a01b031916331790555062000212565b634e487b7160e01b600052604160045260246000fd5b600181811c90821680620000cc57607f821691505b602082108103620000ed57634e487b7160e01b600052602260045260246000fd5b50919050565b601f8211156200014157600081815260208120601f850160051c810160208610156200011c5750805b601f850160051c820191505b818110156200013d5782815560010162000128565b5050505b505050565b81516001600160401b03811115620001625762000162620000a1565b6200017a81620001738454620000b7565b84620000f3565b602080601f831160018114620001b25760008415620001995750858301515b600019600386901b1c1916600185901b1785556200013d565b600085815260208120601f198616915b82811015620001e357888601518255948401946001909101908401620001c2565b5085821015620002025787850151600019600388901b60f8161c191681555b5050505050600190811b01905550565b61300d80620002226000396000f3fe6080604052600436106101815760003560e01c80636352211e116100d1578063a22cb4651161008a578063c87b56dd11610064578063c87b56dd1461042d578063d7ed32821461044d578063e0744e8b14610460578063e985e9c51461048057600080fd5b8063a22cb465146103cd578063b796fc68146103ed578063b88d4fde1461040d57600080fd5b80636352211e1461032357806370a08231146103435780637d7487521461036357806388ceb0df1461037857806395530aea146103a557806395d89b41146103b857600080fd5b806323b872dd1161013e5780633e474b07116101185780633e474b07146102c657806342842e0e146102db57806345e3c493146102fb57806345f8fa801461030e57600080fd5b806323b872dd1461027c578063290a047b1461029c578063310aac69146102b157600080fd5b806301ffc9a71461018657806306fdde03146101bb578063081812fc146101dd578063095ea7b3146102155780630c7a792d14610237578063227967741461025a575b600080fd5b34801561019257600080fd5b506101a66101a136600461275a565b6104c9565b60405190151581526020015b60405180910390f35b3480156101c757600080fd5b506101d061051b565b6040516101b291906127cf565b3480156101e957600080fd5b506101fd6101f83660046127e2565b6105ad565b6040516001600160a01b0390911681526020016101b2565b34801561022157600080fd5b50610235610230366004612817565b61063a565b005b34801561024357600080fd5b5061024c61074f565b6040519081526020016101b2565b34801561026657600080fd5b5061026f61075f565b6040516101b291906128a4565b34801561028857600080fd5b50610235610297366004612906565b610956565b3480156102a857600080fd5b5061026f610987565b3480156102bd57600080fd5b5061024c610b74565b3480156102d257600080fd5b5061026f610b7f565b3480156102e757600080fd5b506102356102f6366004612906565b610da2565b6102356103093660046129ed565b610dbd565b34801561031a57600080fd5b5061026f610ecd565b34801561032f57600080fd5b506101fd61033e3660046127e2565b611125565b34801561034f57600080fd5b5061024c61035e366004612a33565b61119c565b34801561036f57600080fd5b5061026f611223565b34801561038457600080fd5b506103986103933660046127e2565b61146f565b6040516101b29190612a4e565b6102356103b33660046127e2565b611575565b3480156103c457600080fd5b506101d06115e9565b3480156103d957600080fd5b506102356103e8366004612a61565b6115f8565b3480156103f957600080fd5b5061026f6104083660046127e2565b611603565b34801561041957600080fd5b50610235610428366004612a9d565b611846565b34801561043957600080fd5b506101d06104483660046127e2565b61187e565b61024c61045b366004612b18565b6119f4565b34801561046c57600080fd5b5061026f61047b366004612b71565b611a36565b34801561048c57600080fd5b506101a661049b366004612ba5565b6001600160a01b03918216600090815260056020908152604080832093909416825291909152205460ff1690565b60006001600160e01b031982166380ac58cd60e01b14806104fa57506001600160e01b03198216635b5e139f60e01b145b8061051557506301ffc9a760e01b6001600160e01b03198316145b92915050565b60606000805461052a90612bd8565b80601f016020809104026020016040519081016040528092919081815260200182805461055690612bd8565b80156105a35780601f10610578576101008083540402835291602001916105a3565b820191906000526020600020905b81548152906001019060200180831161058657829003601f168201915b5050505050905090565b60006105b882611d09565b61061e5760405162461bcd60e51b815260206004820152602c60248201527f4552433732313a20617070726f76656420717565727920666f72206e6f6e657860448201526b34b9ba32b73a103a37b5b2b760a11b60648201526084015b60405180910390fd5b506000908152600460205260409020546001600160a01b031690565b600061064582611125565b9050806001600160a01b0316836001600160a01b0316036106b25760405162461bcd60e51b815260206004820152602160248201527f4552433732313a20617070726f76616c20746f2063757272656e74206f776e656044820152603960f91b6064820152608401610615565b336001600160a01b03821614806106ce57506106ce813361049b565b6107405760405162461bcd60e51b815260206004820152603860248201527f4552433732313a20617070726f76652063616c6c6572206973206e6f74206f7760448201527f6e6572206e6f7220617070726f76656420666f7220616c6c00000000000000006064820152608401610615565b61074a8383611d26565b505050565b600061075a60085490565b905090565b6060600061076c60075490565b9050600080826001600160401b0381111561078957610789612942565b6040519080825280602002602001820160405280156107c257816020015b6107af61270d565b8152602001906001900390816107a75790505b50905060005b8381101561094e5730600a60006107e0846001612c28565b81526020810191909152604001600020600201546001600160a01b03160361093c57600061080f826001612c28565b6000818152600a6020908152604091829020825160c0810184528154815260018201546001600160a01b039081169382019390935260028201548316938101939093526003810154909116606083015260048101805493945090928391608084019161087a90612bd8565b80601f01602080910402602001604051908101604052809291908181526020018280546108a690612bd8565b80156108f35780601f106108c8576101008083540402835291602001916108f3565b820191906000526020600020905b8154815290600101906020018083116108d657829003601f168201915b50505091835250506005919091015460ff161515602090910152845185908790811061092157610921612c40565b6020908102919091010152610937600186612c28565b945050505b8061094681612c56565b9150506107c8565b509392505050565b6109603382611d94565b61097c5760405162461bcd60e51b815260040161061590612c6f565b61074a838383611e7d565b6060600061099460075490565b9050600080826001600160401b038111156109b1576109b1612942565b6040519080825280602002602001820160405280156109ea57816020015b6109d761270d565b8152602001906001900390816109cf5790505b50905060005b8381101561094e57600a6000610a07836001612c28565b8152602081019190915260400160009081206005015460ff1615159003610b62576000610a35826001612c28565b6000818152600a6020908152604091829020825160c0810184528154815260018201546001600160a01b0390811693820193909352600282015483169381019390935260038101549091166060830152600481018054939450909283916080840191610aa090612bd8565b80601f0160208091040260200160405190810160405280929190818152602001828054610acc90612bd8565b8015610b195780601f10610aee57610100808354040283529160200191610b19565b820191906000526020600020905b815481529060010190602001808311610afc57829003601f168201915b50505091835250506005919091015460ff1615156020909101528451859087908110610b4757610b47612c40565b6020908102919091010152610b5d600186612c28565b945050505b80610b6c81612c56565b9150506109f0565b600061075a60075490565b60606000610b8c60075490565b9050600080826001600160401b03811115610ba957610ba9612942565b604051908082528060200260200182016040528015610be257816020015b610bcf61270d565b815260200190600190039081610bc75790505b50905060005b8381101561094e5733600a6000610c00846001612c28565b81526020810191909152604001600020600301546001600160a01b0316148015610c515750600a6000610c34836001612c28565b815260208101919091526040016000206005015460ff1615156001145b15610d90576000610c63826001612c28565b6000818152600a6020908152604091829020825160c0810184528154815260018201546001600160a01b0390811693820193909352600282015483169381019390935260038101549091166060830152600481018054939450909283916080840191610cce90612bd8565b80601f0160208091040260200160405190810160405280929190818152602001828054610cfa90612bd8565b8015610d475780601f10610d1c57610100808354040283529160200191610d47565b820191906000526020600020905b815481529060010190602001808311610d2a57829003601f168201915b50505091835250506005919091015460ff1615156020909101528451859087908110610d7557610d75612c40565b6020908102919091010152610d8b600186612c28565b945050505b80610d9a81612c56565b915050610be8565b61074a83838360405180602001604052806000815250611846565b6000828152600a6020526040902060018101546002909101546001600160a01b0391821691163314610e59576040805162461bcd60e51b81526020600482015260248101919091527f4f6e6c7920746865206f6e6520696e20706f73736573696f6e206f662074686560448201527f20626f6f6b2063616e20706572666f726d2074686973206f7065726174696f6e6064820152608401610615565b6000838152600a6020526040902060058101805460ff191690556001810180546001600160a01b0384166001600160a01b0319918216179091556002820180548216301790556003820180549091169055600401610eb78382612d0e565b50610ec26008612019565b61074a333085611e7d565b60606000610eda60075490565b905060008060005b83811015610f3c5733600a6000610efa846001612c28565b81526020810191909152604001600020600101546001600160a01b031603610f2a57610f27600184612c28565b92505b80610f3481612c56565b915050610ee2565b506000826001600160401b03811115610f5757610f57612942565b604051908082528060200260200182016040528015610f9057816020015b610f7d61270d565b815260200190600190039081610f755790505b50905060005b8481101561111c5733600a6000610fae846001612c28565b81526020810191909152604001600020600101546001600160a01b03160361110a576000610fdd826001612c28565b6000818152600a6020908152604091829020825160c0810184528154815260018201546001600160a01b039081169382019390935260028201548316938101939093526003810154909116606083015260048101805493945090928391608084019161104890612bd8565b80601f016020809104026020016040519081016040528092919081815260200182805461107490612bd8565b80156110c15780601f10611096576101008083540402835291602001916110c1565b820191906000526020600020905b8154815290600101906020018083116110a457829003601f168201915b50505091835250506005919091015460ff16151560209091015284518590879081106110ef576110ef612c40565b6020908102919091010152611105600186612c28565b945050505b8061111481612c56565b915050610f96565b50949350505050565b6000818152600260205260408120546001600160a01b0316806105155760405162461bcd60e51b815260206004820152602960248201527f4552433732313a206f776e657220717565727920666f72206e6f6e657869737460448201526832b73a103a37b5b2b760b91b6064820152608401610615565b60006001600160a01b0382166112075760405162461bcd60e51b815260206004820152602a60248201527f4552433732313a2062616c616e636520717565727920666f7220746865207a65604482015269726f206164647265737360b01b6064820152608401610615565b506001600160a01b031660009081526003602052604090205490565b6060600061123060075490565b905060008060005b8381101561128f57600a600061124f836001612c28565b815260208101919091526040016000206005015460ff16151560010361127d5761127a600184612c28565b92505b8061128781612c56565b915050611238565b506000826001600160401b038111156112aa576112aa612942565b6040519080825280602002602001820160405280156112e357816020015b6112d061270d565b8152602001906001900390816112c85790505b50905060005b8481101561111c5733600a6000611301846001612c28565b81526020810191909152604001600020600301546001600160a01b03160361145d576000611330826001612c28565b6000818152600a6020908152604091829020825160c0810184528154815260018201546001600160a01b039081169382019390935260028201548316938101939093526003810154909116606083015260048101805493945090928391608084019161139b90612bd8565b80601f01602080910402602001604051908101604052809291908181526020018280546113c790612bd8565b80156114145780601f106113e957610100808354040283529160200191611414565b820191906000526020600020905b8154815290600101906020018083116113f757829003601f168201915b50505091835250506005919091015460ff161515602090910152845185908790811061144257611442612c40565b6020908102919091010152611458600186612c28565b945050505b8061146781612c56565b9150506112e9565b61147761270d565b6000828152600a6020908152604091829020825160c0810184528154815260018201546001600160a01b03908116938201939093526002820154831693810193909352600381015490911660608301526004810180546080840191906114dc90612bd8565b80601f016020809104026020016040519081016040528092919081815260200182805461150890612bd8565b80156115555780601f1061152a57610100808354040283529160200191611555565b820191906000526020600020905b81548152906001019060200180831161153857829003601f168201915b50505091835250506005919091015460ff16151560209091015292915050565b6000818152600a6020526040902060018082018054600284018054306001600160a01b03199182161790915560058501805460ff1916851790556001600160a01b0382169181168217909255600390930180543392169190911790556008805490910190556115e5303384611e7d565b5050565b60606001805461052a90612bd8565b6115e5338383612070565b6060600061161060075490565b905060008060005b838110156116675785600a6000611630846001612c28565b8152602001908152602001600020600001540361165557611652600184612c28565b92505b8061165f81612c56565b915050611618565b506000826001600160401b0381111561168257611682612942565b6040519080825280602002602001820160405280156116bb57816020015b6116a861270d565b8152602001906001900390816116a05790505b50905060005b8481101561183c5786600a60006116d9846001612c28565b8152602001908152602001600020600001540361182a5760006116fd826001612c28565b6000818152600a6020908152604091829020825160c0810184528154815260018201546001600160a01b039081169382019390935260028201548316938101939093526003810154909116606083015260048101805493945090928391608084019161176890612bd8565b80601f016020809104026020016040519081016040528092919081815260200182805461179490612bd8565b80156117e15780601f106117b6576101008083540402835291602001916117e1565b820191906000526020600020905b8154815290600101906020018083116117c457829003601f168201915b50505091835250506005919091015460ff161515602090910152845185908790811061180f5761180f612c40565b6020908102919091010152611825600186612c28565b945050505b8061183481612c56565b9150506116c1565b5095945050505050565b6118503383611d94565b61186c5760405162461bcd60e51b815260040161061590612c6f565b6118788484848461213e565b50505050565b606061188982611d09565b6118ef5760405162461bcd60e51b815260206004820152603160248201527f45524337323155524953746f726167653a2055524920717565727920666f72206044820152703737b732bc34b9ba32b73a103a37b5b2b760791b6064820152608401610615565b6000828152600660205260408120805461190890612bd8565b80601f016020809104026020016040519081016040528092919081815260200182805461193490612bd8565b80156119815780601f1061195657610100808354040283529160200191611981565b820191906000526020600020905b81548152906001019060200180831161196457829003601f168201915b50505050509050600061199f60408051602081019091526000815290565b905080516000036119b1575092915050565b8151156119e35780826040516020016119cb929190612dcd565b60405160208183030381529060405292505050919050565b6119ec84612171565b949350505050565b6000611a04600780546001019055565b6000611a0f60075490565b9050611a1b3382612248565b611a25818561237b565b611a2f81846123ff565b9392505050565b60606000611a4360075490565b905060008060005b83811015611ae75785604051602001611a649190612dfc565b60405160208183030381529060405280519060200120600a6000836001611a8b9190612c28565b8152602001908152602001600020600401604051602001611aac9190612e18565b6040516020818303038152906040528051906020012003611ad557611ad2600184612c28565b92505b80611adf81612c56565b915050611a4b565b506000826001600160401b03811115611b0257611b02612942565b604051908082528060200260200182016040528015611b3b57816020015b611b2861270d565b815260200190600190039081611b205790505b50905060005b8481101561183c5786604051602001611b5a9190612dfc565b60405160208183030381529060405280519060200120600a6000836001611b819190612c28565b8152602001908152602001600020600401604051602001611ba29190612e18565b6040516020818303038152906040528051906020012003611cf7576000611bca826001612c28565b6000818152600a6020908152604091829020825160c0810184528154815260018201546001600160a01b0390811693820193909352600282015483169381019390935260038101549091166060830152600481018054939450909283916080840191611c3590612bd8565b80601f0160208091040260200160405190810160405280929190818152602001828054611c6190612bd8565b8015611cae5780601f10611c8357610100808354040283529160200191611cae565b820191906000526020600020905b815481529060010190602001808311611c9157829003601f168201915b50505091835250506005919091015460ff1615156020909101528451859087908110611cdc57611cdc612c40565b6020908102919091010152611cf2600186612c28565b945050505b80611d0181612c56565b915050611b41565b6000908152600260205260409020546001600160a01b0316151590565b600081815260046020526040902080546001600160a01b0319166001600160a01b0384169081179091558190611d5b82611125565b6001600160a01b03167f8c5be1e5ebec7d5bd14f71427d1e84f3dd0314c0f7b2291e5b200ac8c7c3b92560405160405180910390a45050565b6000611d9f82611d09565b611e005760405162461bcd60e51b815260206004820152602c60248201527f4552433732313a206f70657261746f7220717565727920666f72206e6f6e657860448201526b34b9ba32b73a103a37b5b2b760a11b6064820152608401610615565b6000611e0b83611125565b9050806001600160a01b0316846001600160a01b03161480611e5257506001600160a01b0380821660009081526005602090815260408083209388168352929052205460ff165b806119ec5750836001600160a01b0316611e6b846105ad565b6001600160a01b031614949350505050565b826001600160a01b0316611e9082611125565b6001600160a01b031614611ef45760405162461bcd60e51b815260206004820152602560248201527f4552433732313a207472616e736665722066726f6d20696e636f72726563742060448201526437bbb732b960d91b6064820152608401610615565b6001600160a01b038216611f565760405162461bcd60e51b8152602060048201526024808201527f4552433732313a207472616e7366657220746f20746865207a65726f206164646044820152637265737360e01b6064820152608401610615565b611f61600082611d26565b6001600160a01b0383166000908152600360205260408120805460019290611f8a908490612e8e565b90915550506001600160a01b0382166000908152600360205260408120805460019290611fb8908490612c28565b909155505060008181526002602052604080822080546001600160a01b0319166001600160a01b0386811691821790925591518493918716917fddf252ad1be2c89b69c2b068fc378daa952ba7f163c4a11628f55a4df523b3ef91a4505050565b8054806120685760405162461bcd60e51b815260206004820152601b60248201527f436f756e7465723a2064656372656d656e74206f766572666c6f7700000000006044820152606401610615565b600019019055565b816001600160a01b0316836001600160a01b0316036120d15760405162461bcd60e51b815260206004820152601960248201527f4552433732313a20617070726f766520746f2063616c6c6572000000000000006044820152606401610615565b6001600160a01b03838116600081815260056020908152604080832094871680845294825291829020805460ff191686151590811790915591519182527f17307eab39ab6107e8899845ad3d59bd9653f200f220920489ca2b5937696c31910160405180910390a3505050565b612149848484611e7d565b6121558484848461250c565b6118785760405162461bcd60e51b815260040161061590612ea5565b606061217c82611d09565b6121e05760405162461bcd60e51b815260206004820152602f60248201527f4552433732314d657461646174613a2055524920717565727920666f72206e6f60448201526e3732bc34b9ba32b73a103a37b5b2b760891b6064820152608401610615565b60006121f760408051602081019091526000815290565b905060008151116122175760405180602001604052806000815250611a2f565b806122218461260d565b604051602001612232929190612dcd565b6040516020818303038152906040529392505050565b6001600160a01b03821661229e5760405162461bcd60e51b815260206004820181905260248201527f4552433732313a206d696e7420746f20746865207a65726f20616464726573736044820152606401610615565b6122a781611d09565b156122f45760405162461bcd60e51b815260206004820152601c60248201527f4552433732313a20746f6b656e20616c7265616479206d696e746564000000006044820152606401610615565b6001600160a01b038216600090815260036020526040812080546001929061231d908490612c28565b909155505060008181526002602052604080822080546001600160a01b0319166001600160a01b03861690811790915590518392907fddf252ad1be2c89b69c2b068fc378daa952ba7f163c4a11628f55a4df523b3ef908290a45050565b61238482611d09565b6123e75760405162461bcd60e51b815260206004820152602e60248201527f45524337323155524953746f726167653a2055524920736574206f66206e6f6e60448201526d32bc34b9ba32b73a103a37b5b2b760911b6064820152608401610615565b600082815260066020526040902061074a8282612d0e565b6040805160c081018252838152336020808301918252308385019081526000606085018181526080860188815260a08701839052898352600a9094529590208451815592516001840180546001600160a01b039283166001600160a01b03199182161790915591516002850180549183169184169190911790559451600384018054919096169116179093559151909190600482019061249f9082612d0e565b5060a091909101516005909101805460ff19169115159190911790556124c6333084611e7d565b817fb00b235d12ad6e3d2e85c8e7749f1bcc0dbf1a31ac6ab928fe652ab91eaa95a133306000856000604051612500959493929190612ef7565b60405180910390a25050565b60006001600160a01b0384163b1561260257604051630a85bd0160e11b81526001600160a01b0385169063150b7a0290612550903390899088908890600401612f3f565b6020604051808303816000875af192505050801561258b575060408051601f3d908101601f1916820190925261258891810190612f7c565b60015b6125e8573d8080156125b9576040519150601f19603f3d011682016040523d82523d6000602084013e6125be565b606091505b5080516000036125e05760405162461bcd60e51b815260040161061590612ea5565b805181602001fd5b6001600160e01b031916630a85bd0160e11b1490506119ec565b506001949350505050565b6060816000036126345750506040805180820190915260018152600360fc1b602082015290565b8160005b811561265e578061264881612c56565b91506126579050600a83612faf565b9150612638565b6000816001600160401b0381111561267857612678612942565b6040519080825280601f01601f1916602001820160405280156126a2576020820181803683370190505b5090505b84156119ec576126b7600183612e8e565b91506126c4600a86612fc3565b6126cf906030612c28565b60f81b8183815181106126e4576126e4612c40565b60200101906001600160f81b031916908160001a905350612706600a86612faf565b94506126a6565b6040805160c0810182526000808252602082018190529181018290526060808201839052608082015260a081019190915290565b6001600160e01b03198116811461275757600080fd5b50565b60006020828403121561276c57600080fd5b8135611a2f81612741565b60005b8381101561279257818101518382015260200161277a565b838111156118785750506000910152565b600081518084526127bb816020860160208601612777565b601f01601f19169290920160200192915050565b602081526000611a2f60208301846127a3565b6000602082840312156127f457600080fd5b5035919050565b80356001600160a01b038116811461281257600080fd5b919050565b6000806040838503121561282a57600080fd5b612833836127fb565b946020939093013593505050565b805182526000602082015160018060a01b0380821660208601528060408501511660408601528060608501511660608601525050608082015160c0608085015261288e60c08501826127a3565b60a0938401511515949093019390935250919050565b6000602080830181845280855180835260408601915060408160051b870101925083870160005b828110156128f957603f198886030184526128e7858351612841565b945092850192908501906001016128cb565b5092979650505050505050565b60008060006060848603121561291b57600080fd5b612924846127fb565b9250612932602085016127fb565b9150604084013590509250925092565b634e487b7160e01b600052604160045260246000fd5b60006001600160401b038084111561297257612972612942565b604051601f8501601f19908116603f0116810190828211818310171561299a5761299a612942565b816040528093508581528686860111156129b357600080fd5b858560208301376000602087830101525050509392505050565b600082601f8301126129de57600080fd5b611a2f83833560208501612958565b60008060408385031215612a0057600080fd5b8235915060208301356001600160401b03811115612a1d57600080fd5b612a29858286016129cd565b9150509250929050565b600060208284031215612a4557600080fd5b611a2f826127fb565b602081526000611a2f6020830184612841565b60008060408385031215612a7457600080fd5b612a7d836127fb565b915060208301358015158114612a9257600080fd5b809150509250929050565b60008060008060808587031215612ab357600080fd5b612abc856127fb565b9350612aca602086016127fb565b92506040850135915060608501356001600160401b03811115612aec57600080fd5b8501601f81018713612afd57600080fd5b612b0c87823560208401612958565b91505092959194509250565b60008060408385031215612b2b57600080fd5b82356001600160401b0380821115612b4257600080fd5b612b4e868387016129cd565b93506020850135915080821115612b6457600080fd5b50612a29858286016129cd565b600060208284031215612b8357600080fd5b81356001600160401b03811115612b9957600080fd5b6119ec848285016129cd565b60008060408385031215612bb857600080fd5b612bc1836127fb565b9150612bcf602084016127fb565b90509250929050565b600181811c90821680612bec57607f821691505b602082108103612c0c57634e487b7160e01b600052602260045260246000fd5b50919050565b634e487b7160e01b600052601160045260246000fd5b60008219821115612c3b57612c3b612c12565b500190565b634e487b7160e01b600052603260045260246000fd5b600060018201612c6857612c68612c12565b5060010190565b60208082526031908201527f4552433732313a207472616e736665722063616c6c6572206973206e6f74206f6040820152701ddb995c881b9bdc88185c1c1c9bdd9959607a1b606082015260800190565b601f82111561074a57600081815260208120601f850160051c81016020861015612ce75750805b601f850160051c820191505b81811015612d0657828155600101612cf3565b505050505050565b81516001600160401b03811115612d2757612d27612942565b612d3b81612d358454612bd8565b84612cc0565b602080601f831160018114612d705760008415612d585750858301515b600019600386901b1c1916600185901b178555612d06565b600085815260208120601f198616915b82811015612d9f57888601518255948401946001909101908401612d80565b5085821015612dbd5787850151600019600388901b60f8161c191681555b5050505050600190811b01905550565b60008351612ddf818460208801612777565b835190830190612df3818360208801612777565b01949350505050565b60008251612e0e818460208701612777565b9190910192915050565b6000808354612e2681612bd8565b60018281168015612e3e5760018114612e5357612e82565b60ff1984168752821515830287019450612e82565b8760005260208060002060005b85811015612e795781548a820152908401908201612e60565b50505082870194505b50929695505050505050565b600082821015612ea057612ea0612c12565b500390565b60208082526032908201527f4552433732313a207472616e7366657220746f206e6f6e20455243373231526560408201527131b2b4bb32b91034b6b83632b6b2b73a32b960711b606082015260800190565b6001600160a01b03868116825285811660208301528416604082015260a060608201819052600090612f2b908301856127a3565b905082151560808301529695505050505050565b6001600160a01b0385811682528416602082015260408101839052608060608201819052600090612f72908301846127a3565b9695505050505050565b600060208284031215612f8e57600080fd5b8151611a2f81612741565b634e487b7160e01b600052601260045260246000fd5b600082612fbe57612fbe612f99565b500490565b600082612fd257612fd2612f99565b50069056fea2646970667358221220ccbd1085d5834a2e19e478a600104a7428b8aaeb15f4fe914c3eb78d56a0968464736f6c634300080f0033",
  "linkReferences": {},
  "deployedLinkReferences": {}
}