{
  "_format": "hh-sol-artifact-1",
  "contractName": "Profile",
  "sourceName": "contracts/Profile.sol",
  "abi": [
    {
      "inputs": [],
      "stateMutability": "nonpayable",
      "type": "constructor"
    },
    {
      "anonymous": false,
      "inputs": [
        {
          "indexed": true,
          "internalType": "address",
          "name": "owner",
          "type": "address"
        },
        {
          "indexed": true,
          "internalType": "address",
          "name": "approved",
          "type": "address"
        },
        {
          "indexed": true,
          "internalType": "uint256",
          "name": "tokenId",
          "type": "uint256"
        }
      ],
      "name": "Approval",
      "type": "event"
    },
    {
      "anonymous": false,
      "inputs": [
        {
          "indexed": true,
          "internalType": "address",
          "name": "owner",
          "type": "address"
        },
        {
          "indexed": true,
          "internalType": "address",
          "name": "operator",
          "type": "address"
        },
        {
          "indexed": false,
          "internalType": "bool",
          "name": "approved",
          "type": "bool"
        }
      ],
      "name": "ApprovalForAll",
      "type": "event"
    },
    {
      "anonymous": false,
      "inputs": [
        {
          "indexed": true,
          "internalType": "uint256",
          "name": "tokenId",
          "type": "uint256"
        },
        {
          "indexed": false,
          "internalType": "address",
          "name": "user",
          "type": "address"
        },
        {
          "indexed": false,
          "internalType": "string",
          "name": "quote",
          "type": "string"
        },
        {
          "indexed": false,
          "internalType": "string",
          "name": "user_type",
          "type": "string"
        },
        {
          "indexed": false,
          "internalType": "uint256",
          "name": "timestamp",
          "type": "uint256"
        }
      ],
      "name": "ProfileCreated",
      "type": "event"
    },
    {
      "anonymous": false,
      "inputs": [
        {
          "indexed": true,
          "internalType": "address",
          "name": "from",
          "type": "address"
        },
        {
          "indexed": true,
          "internalType": "address",
          "name": "to",
          "type": "address"
        },
        {
          "indexed": true,
          "internalType": "uint256",
          "name": "tokenId",
          "type": "uint256"
        }
      ],
      "name": "Transfer",
      "type": "event"
    },
    {
      "inputs": [
        {
          "internalType": "address",
          "name": "to",
          "type": "address"
        },
        {
          "internalType": "uint256",
          "name": "tokenId",
          "type": "uint256"
        }
      ],
      "name": "approve",
      "outputs": [],
      "stateMutability": "nonpayable",
      "type": "function"
    },
    {
      "inputs": [
        {
          "internalType": "address",
          "name": "owner",
          "type": "address"
        }
      ],
      "name": "balanceOf",
      "outputs": [
        {
          "internalType": "uint256",
          "name": "",
          "type": "uint256"
        }
      ],
      "stateMutability": "view",
      "type": "function"
    },
    {
      "inputs": [
        {
          "internalType": "string",
          "name": "tokenURI",
          "type": "string"
        },
        {
          "internalType": "string",
          "name": "quote",
          "type": "string"
        },
        {
          "internalType": "string",
          "name": "user_type",
          "type": "string"
        }
      ],
      "name": "createProfile",
      "outputs": [
        {
          "internalType": "uint256",
          "name": "",
          "type": "uint256"
        }
      ],
      "stateMutability": "nonpayable",
      "type": "function"
    },
    {
      "inputs": [
        {
          "internalType": "uint256",
          "name": "tokenId",
          "type": "uint256"
        }
      ],
      "name": "getApproved",
      "outputs": [
        {
          "internalType": "address",
          "name": "",
          "type": "address"
        }
      ],
      "stateMutability": "view",
      "type": "function"
    },
    {
      "inputs": [],
      "name": "getProfileCount",
      "outputs": [
        {
          "internalType": "uint256",
          "name": "",
          "type": "uint256"
        }
      ],
      "stateMutability": "view",
      "type": "function"
    },
    {
      "inputs": [],
      "name": "getUserProfile",
      "outputs": [
        {
          "components": [
            {
              "internalType": "uint256",
              "name": "tokenId",
              "type": "uint256"
            },
            {
              "internalType": "address",
              "name": "creator",
              "type": "address"
            },
            {
              "internalType": "string",
              "name": "quote",
              "type": "string"
            },
            {
              "internalType": "string",
              "name": "user_type",
              "type": "string"
            },
            {
              "internalType": "uint256",
              "name": "timestamp",
              "type": "uint256"
            }
          ],
          "internalType": "struct Profile.UserProfile[]",
          "name": "",
          "type": "tuple[]"
        }
      ],
      "stateMutability": "view",
      "type": "function"
    },
    {
      "inputs": [
        {
          "internalType": "address",
          "name": "owner",
          "type": "address"
        },
        {
          "internalType": "address",
          "name": "operator",
          "type": "address"
        }
      ],
      "name": "isApprovedForAll",
      "outputs": [
        {
          "internalType": "bool",
          "name": "",
          "type": "bool"
        }
      ],
      "stateMutability": "view",
      "type": "function"
    },
    {
      "inputs": [],
      "name": "name",
      "outputs": [
        {
          "internalType": "string",
          "name": "",
          "type": "string"
        }
      ],
      "stateMutability": "view",
      "type": "function"
    },
    {
      "inputs": [
        {
          "internalType": "uint256",
          "name": "tokenId",
          "type": "uint256"
        }
      ],
      "name": "ownerOf",
      "outputs": [
        {
          "internalType": "address",
          "name": "",
          "type": "address"
        }
      ],
      "stateMutability": "view",
      "type": "function"
    },
    {
      "inputs": [
        {
          "internalType": "address",
          "name": "from",
          "type": "address"
        },
        {
          "internalType": "address",
          "name": "to",
          "type": "address"
        },
        {
          "internalType": "uint256",
          "name": "tokenId",
          "type": "uint256"
        }
      ],
      "name": "safeTransferFrom",
      "outputs": [],
      "stateMutability": "nonpayable",
      "type": "function"
    },
    {
      "inputs": [
        {
          "internalType": "address",
          "name": "from",
          "type": "address"
        },
        {
          "internalType": "address",
          "name": "to",
          "type": "address"
        },
        {
          "internalType": "uint256",
          "name": "tokenId",
          "type": "uint256"
        },
        {
          "internalType": "bytes",
          "name": "_data",
          "type": "bytes"
        }
      ],
      "name": "safeTransferFrom",
      "outputs": [],
      "stateMutability": "nonpayable",
      "type": "function"
    },
    {
      "inputs": [
        {
          "internalType": "address",
          "name": "operator",
          "type": "address"
        },
        {
          "internalType": "bool",
          "name": "approved",
          "type": "bool"
        }
      ],
      "name": "setApprovalForAll",
      "outputs": [],
      "stateMutability": "nonpayable",
      "type": "function"
    },
    {
      "inputs": [
        {
          "internalType": "bytes4",
          "name": "interfaceId",
          "type": "bytes4"
        }
      ],
      "name": "supportsInterface",
      "outputs": [
        {
          "internalType": "bool",
          "name": "",
          "type": "bool"
        }
      ],
      "stateMutability": "view",
      "type": "function"
    },
    {
      "inputs": [],
      "name": "symbol",
      "outputs": [
        {
          "internalType": "string",
          "name": "",
          "type": "string"
        }
      ],
      "stateMutability": "view",
      "type": "function"
    },
    {
      "inputs": [
        {
          "internalType": "uint256",
          "name": "tokenId",
          "type": "uint256"
        }
      ],
      "name": "tokenURI",
      "outputs": [
        {
          "internalType": "string",
          "name": "",
          "type": "string"
        }
      ],
      "stateMutability": "view",
      "type": "function"
    },
    {
      "inputs": [
        {
          "internalType": "address",
          "name": "from",
          "type": "address"
        },
        {
          "internalType": "address",
          "name": "to",
          "type": "address"
        },
        {
          "internalType": "uint256",
          "name": "tokenId",
          "type": "uint256"
        }
      ],
      "name": "transferFrom",
      "outputs": [],
      "stateMutability": "nonpayable",
      "type": "function"
    },
    {
      "inputs": [
        {
          "internalType": "uint256",
          "name": "tokenId",
          "type": "uint256"
        },
        {
          "internalType": "string",
          "name": "quote",
          "type": "string"
        }
      ],
      "name": "updateProfile",
      "outputs": [],
      "stateMutability": "nonpayable",
      "type": "function"
    }
  ],
  "bytecode": "0x60806040523480156200001157600080fd5b50604080518082018252600f81526e444c69627261727950726f66696c6560881b6020808301918252835180850190945260038452620444c560ec1b908401528151919291620000649160009162000095565b5080516200007a90600190602084019062000095565b5050600880546001600160a01b031916331790555062000178565b828054620000a3906200013b565b90600052602060002090601f016020900481019282620000c7576000855562000112565b82601f10620000e257805160ff191683800117855562000112565b8280016001018555821562000112579182015b8281111562000112578251825591602001919060010190620000f5565b506200012092915062000124565b5090565b5b8082111562000120576000815560010162000125565b600181811c908216806200015057607f821691505b602082108114156200017257634e487b7160e01b600052602260045260246000fd5b50919050565b611d4280620001886000396000f3fe608060405234801561001057600080fd5b506004361061010b5760003560e01c80636f61c744116100a25780639841c82c116100715780639841c82c1461021f578063a22cb46514610232578063b88d4fde14610245578063c87b56dd14610258578063e985e9c51461026b57600080fd5b80636f61c744146101dc57806370a08231146101f157806389c7e0a01461020457806395d89b411461021757600080fd5b806323b872dd116100de57806323b872dd1461018d5780633697611a146101a057806342842e0e146101b65780636352211e146101c957600080fd5b806301ffc9a71461011057806306fdde0314610138578063081812fc1461014d578063095ea7b314610178575b600080fd5b61012361011e366004611653565b6102a7565b60405190151581526020015b60405180910390f35b6101406102f9565b60405161012f91906116c8565b61016061015b3660046116db565b61038b565b6040516001600160a01b03909116815260200161012f565b61018b610186366004611710565b610418565b005b61018b61019b36600461173a565b61052e565b6101a861055f565b60405190815260200161012f565b61018b6101c436600461173a565b61056f565b6101606101d73660046116db565b61058a565b6101e4610601565b60405161012f9190611776565b6101a86101ff366004611828565b6108fd565b61018b6102123660046118ef565b610984565b610140610a03565b6101a861022d366004611936565b610a12565b61018b6102403660046119be565b610a56565b61018b6102533660046119fa565b610a65565b6101406102663660046116db565b610a9d565b610123610279366004611a76565b6001600160a01b03918216600090815260056020908152604080832093909416825291909152205460ff1690565b60006001600160e01b031982166380ac58cd60e01b14806102d857506001600160e01b03198216635b5e139f60e01b145b806102f357506301ffc9a760e01b6001600160e01b03198316145b92915050565b60606000805461030890611aa9565b80601f016020809104026020016040519081016040528092919081815260200182805461033490611aa9565b80156103815780601f1061035657610100808354040283529160200191610381565b820191906000526020600020905b81548152906001019060200180831161036457829003601f168201915b5050505050905090565b600061039682610c0c565b6103fc5760405162461bcd60e51b815260206004820152602c60248201527f4552433732313a20617070726f76656420717565727920666f72206e6f6e657860448201526b34b9ba32b73a103a37b5b2b760a11b60648201526084015b60405180910390fd5b506000908152600460205260409020546001600160a01b031690565b60006104238261058a565b9050806001600160a01b0316836001600160a01b031614156104915760405162461bcd60e51b815260206004820152602160248201527f4552433732313a20617070726f76616c20746f2063757272656e74206f776e656044820152603960f91b60648201526084016103f3565b336001600160a01b03821614806104ad57506104ad8133610279565b61051f5760405162461bcd60e51b815260206004820152603860248201527f4552433732313a20617070726f76652063616c6c6572206973206e6f74206f7760448201527f6e6572206e6f7220617070726f76656420666f7220616c6c000000000000000060648201526084016103f3565b6105298383610c29565b505050565b6105383382610c97565b6105545760405162461bcd60e51b81526004016103f390611ae4565b610529838383610d80565b600061056a60075490565b905090565b61052983838360405180602001604052806000815250610a65565b6000818152600260205260408120546001600160a01b0316806102f35760405162461bcd60e51b815260206004820152602960248201527f4552433732313a206f776e657220717565727920666f72206e6f6e657869737460448201526832b73a103a37b5b2b760b91b60648201526084016103f3565b6060600061060e60075490565b905060008060005b8381101561067157336009600061062e846001611b4b565b81526020810191909152604001600020600101546001600160a01b0316141561065f5761065c600184611b4b565b92505b8061066981611b63565b915050610616565b5060008267ffffffffffffffff81111561068d5761068d611843565b6040519080825280602002602001820160405280156106f957816020015b6106e66040518060a001604052806000815260200160006001600160a01b031681526020016060815260200160608152602001600081525090565b8152602001906001900390816106ab5790505b50905060005b848110156108f4573360096000610717846001611b4b565b81526020810191909152604001600020600101546001600160a01b031614156108e2576000610747826001611b4b565b600081815260096020908152604091829020825160a0810184528154815260018201546001600160a01b031692810192909252600281018054949550909391928492908401919061079790611aa9565b80601f01602080910402602001604051908101604052809291908181526020018280546107c390611aa9565b80156108105780601f106107e557610100808354040283529160200191610810565b820191906000526020600020905b8154815290600101906020018083116107f357829003601f168201915b5050505050815260200160038201805461082990611aa9565b80601f016020809104026020016040519081016040528092919081815260200182805461085590611aa9565b80156108a25780601f10610877576101008083540402835291602001916108a2565b820191906000526020600020905b81548152906001019060200180831161088557829003601f168201915b505050505081526020016004820154815250508486815181106108c7576108c7611b7e565b60209081029190910101526108dd600186611b4b565b945050505b806108ec81611b63565b9150506106ff565b50949350505050565b60006001600160a01b0382166109685760405162461bcd60e51b815260206004820152602a60248201527f4552433732313a2062616c616e636520717565727920666f7220746865207a65604482015269726f206164647265737360b01b60648201526084016103f3565b506001600160a01b031660009081526003602052604090205490565b6008546001600160a01b031633146109de5760405162461bcd60e51b815260206004820152601e60248201527f4f6e6c79206f776e65722063616e207570646174652070726f66696c652e000060448201526064016103f3565b60008281526009602090815260409091208251610529926002909201918401906115a1565b60606001805461030890611aa9565b6000610a22600780546001019055565b6000610a2d60075490565b9050610a393382610f1c565b610a43818661104f565b610a4e8185856110da565b949350505050565b610a613383836111bc565b5050565b610a6f3383610c97565b610a8b5760405162461bcd60e51b81526004016103f390611ae4565b610a978484848461128b565b50505050565b6060610aa882610c0c565b610b0e5760405162461bcd60e51b815260206004820152603160248201527f45524337323155524953746f726167653a2055524920717565727920666f72206044820152703737b732bc34b9ba32b73a103a37b5b2b760791b60648201526084016103f3565b60008281526006602052604081208054610b2790611aa9565b80601f0160208091040260200160405190810160405280929190818152602001828054610b5390611aa9565b8015610ba05780601f10610b7557610100808354040283529160200191610ba0565b820191906000526020600020905b815481529060010190602001808311610b8357829003601f168201915b505050505090506000610bbe60408051602081019091526000815290565b9050805160001415610bd1575092915050565b815115610c03578082604051602001610beb929190611b94565b60405160208183030381529060405292505050919050565b610a4e846112be565b6000908152600260205260409020546001600160a01b0316151590565b600081815260046020526040902080546001600160a01b0319166001600160a01b0384169081179091558190610c5e8261058a565b6001600160a01b03167f8c5be1e5ebec7d5bd14f71427d1e84f3dd0314c0f7b2291e5b200ac8c7c3b92560405160405180910390a45050565b6000610ca282610c0c565b610d035760405162461bcd60e51b815260206004820152602c60248201527f4552433732313a206f70657261746f7220717565727920666f72206e6f6e657860448201526b34b9ba32b73a103a37b5b2b760a11b60648201526084016103f3565b6000610d0e8361058a565b9050806001600160a01b0316846001600160a01b03161480610d5557506001600160a01b0380821660009081526005602090815260408083209388168352929052205460ff165b80610a4e5750836001600160a01b0316610d6e8461038b565b6001600160a01b031614949350505050565b826001600160a01b0316610d938261058a565b6001600160a01b031614610df75760405162461bcd60e51b815260206004820152602560248201527f4552433732313a207472616e736665722066726f6d20696e636f72726563742060448201526437bbb732b960d91b60648201526084016103f3565b6001600160a01b038216610e595760405162461bcd60e51b8152602060048201526024808201527f4552433732313a207472616e7366657220746f20746865207a65726f206164646044820152637265737360e01b60648201526084016103f3565b610e64600082610c29565b6001600160a01b0383166000908152600360205260408120805460019290610e8d908490611bc3565b90915550506001600160a01b0382166000908152600360205260408120805460019290610ebb908490611b4b565b909155505060008181526002602052604080822080546001600160a01b0319166001600160a01b0386811691821790925591518493918716917fddf252ad1be2c89b69c2b068fc378daa952ba7f163c4a11628f55a4df523b3ef91a4505050565b6001600160a01b038216610f725760405162461bcd60e51b815260206004820181905260248201527f4552433732313a206d696e7420746f20746865207a65726f206164647265737360448201526064016103f3565b610f7b81610c0c565b15610fc85760405162461bcd60e51b815260206004820152601c60248201527f4552433732313a20746f6b656e20616c7265616479206d696e7465640000000060448201526064016103f3565b6001600160a01b0382166000908152600360205260408120805460019290610ff1908490611b4b565b909155505060008181526002602052604080822080546001600160a01b0319166001600160a01b03861690811790915590518392907fddf252ad1be2c89b69c2b068fc378daa952ba7f163c4a11628f55a4df523b3ef908290a45050565b61105882610c0c565b6110bb5760405162461bcd60e51b815260206004820152602e60248201527f45524337323155524953746f726167653a2055524920736574206f66206e6f6e60448201526d32bc34b9ba32b73a103a37b5b2b760911b60648201526084016103f3565b60008281526006602090815260409091208251610529928401906115a1565b6040805160a08101825284815233602080830191825282840186815260608401869052426080850152600088815260098352949094208351815591516001830180546001600160a01b0319166001600160a01b03909216919091179055925180519293919261114f92600285019201906115a1565b506060820151805161116b9160038401916020909101906115a1565b5060808201518160040155905050827f2ee9864d4973303038e7c69e8abb92e6d4f40ece780d3bc8ae54706668cf73e0338484426040516111af9493929190611bda565b60405180910390a2505050565b816001600160a01b0316836001600160a01b0316141561121e5760405162461bcd60e51b815260206004820152601960248201527f4552433732313a20617070726f766520746f2063616c6c65720000000000000060448201526064016103f3565b6001600160a01b03838116600081815260056020908152604080832094871680845294825291829020805460ff191686151590811790915591519182527f17307eab39ab6107e8899845ad3d59bd9653f200f220920489ca2b5937696c31910160405180910390a3505050565b611296848484610d80565b6112a284848484611396565b610a975760405162461bcd60e51b81526004016103f390611c22565b60606112c982610c0c565b61132d5760405162461bcd60e51b815260206004820152602f60248201527f4552433732314d657461646174613a2055524920717565727920666f72206e6f60448201526e3732bc34b9ba32b73a103a37b5b2b760891b60648201526084016103f3565b600061134460408051602081019091526000815290565b90506000815111611364576040518060200160405280600081525061138f565b8061136e846114a3565b60405160200161137f929190611b94565b6040516020818303038152906040525b9392505050565b60006001600160a01b0384163b1561149857604051630a85bd0160e11b81526001600160a01b0385169063150b7a02906113da903390899088908890600401611c74565b602060405180830381600087803b1580156113f457600080fd5b505af1925050508015611424575060408051601f3d908101601f1916820190925261142191810190611cb1565b60015b61147e573d808015611452576040519150601f19603f3d011682016040523d82523d6000602084013e611457565b606091505b5080516114765760405162461bcd60e51b81526004016103f390611c22565b805181602001fd5b6001600160e01b031916630a85bd0160e11b149050610a4e565b506001949350505050565b6060816114c75750506040805180820190915260018152600360fc1b602082015290565b8160005b81156114f157806114db81611b63565b91506114ea9050600a83611ce4565b91506114cb565b60008167ffffffffffffffff81111561150c5761150c611843565b6040519080825280601f01601f191660200182016040528015611536576020820181803683370190505b5090505b8415610a4e5761154b600183611bc3565b9150611558600a86611cf8565b611563906030611b4b565b60f81b81838151811061157857611578611b7e565b60200101906001600160f81b031916908160001a90535061159a600a86611ce4565b945061153a565b8280546115ad90611aa9565b90600052602060002090601f0160209004810192826115cf5760008555611615565b82601f106115e857805160ff1916838001178555611615565b82800160010185558215611615579182015b828111156116155782518255916020019190600101906115fa565b50611621929150611625565b5090565b5b808211156116215760008155600101611626565b6001600160e01b03198116811461165057600080fd5b50565b60006020828403121561166557600080fd5b813561138f8161163a565b60005b8381101561168b578181015183820152602001611673565b83811115610a975750506000910152565b600081518084526116b4816020860160208601611670565b601f01601f19169290920160200192915050565b60208152600061138f602083018461169c565b6000602082840312156116ed57600080fd5b5035919050565b80356001600160a01b038116811461170b57600080fd5b919050565b6000806040838503121561172357600080fd5b61172c836116f4565b946020939093013593505050565b60008060006060848603121561174f57600080fd5b611758846116f4565b9250611766602085016116f4565b9150604084013590509250925092565b60006020808301818452808551808352604092508286019150828160051b87010184880160005b8381101561181a57888303603f19018552815180518452878101516001600160a01b0316888501528681015160a0888601819052906117de8287018261169c565b915050606080830151868303828801526117f8838261169c565b608094850151979094019690965250509487019492509086019060010161179d565b509098975050505050505050565b60006020828403121561183a57600080fd5b61138f826116f4565b634e487b7160e01b600052604160045260246000fd5b600067ffffffffffffffff8084111561187457611874611843565b604051601f8501601f19908116603f0116810190828211818310171561189c5761189c611843565b816040528093508581528686860111156118b557600080fd5b858560208301376000602087830101525050509392505050565b600082601f8301126118e057600080fd5b61138f83833560208501611859565b6000806040838503121561190257600080fd5b82359150602083013567ffffffffffffffff81111561192057600080fd5b61192c858286016118cf565b9150509250929050565b60008060006060848603121561194b57600080fd5b833567ffffffffffffffff8082111561196357600080fd5b61196f878388016118cf565b9450602086013591508082111561198557600080fd5b611991878388016118cf565b935060408601359150808211156119a757600080fd5b506119b4868287016118cf565b9150509250925092565b600080604083850312156119d157600080fd5b6119da836116f4565b9150602083013580151581146119ef57600080fd5b809150509250929050565b60008060008060808587031215611a1057600080fd5b611a19856116f4565b9350611a27602086016116f4565b925060408501359150606085013567ffffffffffffffff811115611a4a57600080fd5b8501601f81018713611a5b57600080fd5b611a6a87823560208401611859565b91505092959194509250565b60008060408385031215611a8957600080fd5b611a92836116f4565b9150611aa0602084016116f4565b90509250929050565b600181811c90821680611abd57607f821691505b60208210811415611ade57634e487b7160e01b600052602260045260246000fd5b50919050565b60208082526031908201527f4552433732313a207472616e736665722063616c6c6572206973206e6f74206f6040820152701ddb995c881b9bdc88185c1c1c9bdd9959607a1b606082015260800190565b634e487b7160e01b600052601160045260246000fd5b60008219821115611b5e57611b5e611b35565b500190565b6000600019821415611b7757611b77611b35565b5060010190565b634e487b7160e01b600052603260045260246000fd5b60008351611ba6818460208801611670565b835190830190611bba818360208801611670565b01949350505050565b600082821015611bd557611bd5611b35565b500390565b6001600160a01b0385168152608060208201819052600090611bfe9083018661169c565b8281036040840152611c10818661169c565b91505082606083015295945050505050565b60208082526032908201527f4552433732313a207472616e7366657220746f206e6f6e20455243373231526560408201527131b2b4bb32b91034b6b83632b6b2b73a32b960711b606082015260800190565b6001600160a01b0385811682528416602082015260408101839052608060608201819052600090611ca79083018461169c565b9695505050505050565b600060208284031215611cc357600080fd5b815161138f8161163a565b634e487b7160e01b600052601260045260246000fd5b600082611cf357611cf3611cce565b500490565b600082611d0757611d07611cce565b50069056fea2646970667358221220a76f369fcf8a8857e7fc8f22f3fac5126773cce4bfacebbf824a17e1e8ee2d8c64736f6c63430008090033",
  "linkReferences": {},
  "deployedLinkReferences": {}
}