{
  "_format": "hh-sol-artifact-1",
  "contractName": "Profile",
  "sourceName": "contracts/Profile.sol",
  "abi": [
    {
      "inputs": [],
      "stateMutability": "nonpayable",
      "type": "constructor"
    },
    {
      "anonymous": false,
      "inputs": [
        {
          "indexed": true,
          "internalType": "address",
          "name": "owner",
          "type": "address"
        },
        {
          "indexed": true,
          "internalType": "address",
          "name": "approved",
          "type": "address"
        },
        {
          "indexed": true,
          "internalType": "uint256",
          "name": "tokenId",
          "type": "uint256"
        }
      ],
      "name": "Approval",
      "type": "event"
    },
    {
      "anonymous": false,
      "inputs": [
        {
          "indexed": true,
          "internalType": "address",
          "name": "owner",
          "type": "address"
        },
        {
          "indexed": true,
          "internalType": "address",
          "name": "operator",
          "type": "address"
        },
        {
          "indexed": false,
          "internalType": "bool",
          "name": "approved",
          "type": "bool"
        }
      ],
      "name": "ApprovalForAll",
      "type": "event"
    },
    {
      "anonymous": false,
      "inputs": [
        {
          "indexed": true,
          "internalType": "uint256",
          "name": "tokenId",
          "type": "uint256"
        },
        {
          "indexed": false,
          "internalType": "address",
          "name": "user",
          "type": "address"
        },
        {
          "indexed": false,
          "internalType": "string",
          "name": "quote",
          "type": "string"
        },
        {
          "indexed": false,
          "internalType": "string",
          "name": "user_type",
          "type": "string"
        },
        {
          "indexed": false,
          "internalType": "uint256",
          "name": "timestamp",
          "type": "uint256"
        }
      ],
      "name": "ProfileCreated",
      "type": "event"
    },
    {
      "anonymous": false,
      "inputs": [
        {
          "indexed": true,
          "internalType": "address",
          "name": "from",
          "type": "address"
        },
        {
          "indexed": true,
          "internalType": "address",
          "name": "to",
          "type": "address"
        },
        {
          "indexed": true,
          "internalType": "uint256",
          "name": "tokenId",
          "type": "uint256"
        }
      ],
      "name": "Transfer",
      "type": "event"
    },
    {
      "inputs": [
        {
          "internalType": "address",
          "name": "to",
          "type": "address"
        },
        {
          "internalType": "uint256",
          "name": "tokenId",
          "type": "uint256"
        }
      ],
      "name": "approve",
      "outputs": [],
      "stateMutability": "nonpayable",
      "type": "function"
    },
    {
      "inputs": [
        {
          "internalType": "address",
          "name": "owner",
          "type": "address"
        }
      ],
      "name": "balanceOf",
      "outputs": [
        {
          "internalType": "uint256",
          "name": "",
          "type": "uint256"
        }
      ],
      "stateMutability": "view",
      "type": "function"
    },
    {
      "inputs": [
        {
          "internalType": "string",
          "name": "tokenURI",
          "type": "string"
        },
        {
          "internalType": "string",
          "name": "quote",
          "type": "string"
        },
        {
          "internalType": "string",
          "name": "user_type",
          "type": "string"
        }
      ],
      "name": "createProfile",
      "outputs": [
        {
          "internalType": "uint256",
          "name": "",
          "type": "uint256"
        }
      ],
      "stateMutability": "nonpayable",
      "type": "function"
    },
    {
      "inputs": [
        {
          "internalType": "uint256",
          "name": "tokenId",
          "type": "uint256"
        }
      ],
      "name": "getApproved",
      "outputs": [
        {
          "internalType": "address",
          "name": "",
          "type": "address"
        }
      ],
      "stateMutability": "view",
      "type": "function"
    },
    {
      "inputs": [],
      "name": "getProfileCount",
      "outputs": [
        {
          "internalType": "uint256",
          "name": "",
          "type": "uint256"
        }
      ],
      "stateMutability": "view",
      "type": "function"
    },
    {
      "inputs": [],
      "name": "getUserProfile",
      "outputs": [
        {
          "components": [
            {
              "internalType": "uint256",
              "name": "tokenId",
              "type": "uint256"
            },
            {
              "internalType": "address",
              "name": "creator",
              "type": "address"
            },
            {
              "internalType": "string",
              "name": "quote",
              "type": "string"
            },
            {
              "internalType": "string",
              "name": "user_type",
              "type": "string"
            },
            {
              "internalType": "uint256",
              "name": "timestamp",
              "type": "uint256"
            }
          ],
          "internalType": "struct Profile.UserProfile[]",
          "name": "",
          "type": "tuple[]"
        }
      ],
      "stateMutability": "view",
      "type": "function"
    },
    {
      "inputs": [
        {
          "internalType": "address",
          "name": "owner",
          "type": "address"
        },
        {
          "internalType": "address",
          "name": "operator",
          "type": "address"
        }
      ],
      "name": "isApprovedForAll",
      "outputs": [
        {
          "internalType": "bool",
          "name": "",
          "type": "bool"
        }
      ],
      "stateMutability": "view",
      "type": "function"
    },
    {
      "inputs": [],
      "name": "name",
      "outputs": [
        {
          "internalType": "string",
          "name": "",
          "type": "string"
        }
      ],
      "stateMutability": "view",
      "type": "function"
    },
    {
      "inputs": [
        {
          "internalType": "uint256",
          "name": "tokenId",
          "type": "uint256"
        }
      ],
      "name": "ownerOf",
      "outputs": [
        {
          "internalType": "address",
          "name": "",
          "type": "address"
        }
      ],
      "stateMutability": "view",
      "type": "function"
    },
    {
      "inputs": [
        {
          "internalType": "address",
          "name": "from",
          "type": "address"
        },
        {
          "internalType": "address",
          "name": "to",
          "type": "address"
        },
        {
          "internalType": "uint256",
          "name": "tokenId",
          "type": "uint256"
        }
      ],
      "name": "safeTransferFrom",
      "outputs": [],
      "stateMutability": "nonpayable",
      "type": "function"
    },
    {
      "inputs": [
        {
          "internalType": "address",
          "name": "from",
          "type": "address"
        },
        {
          "internalType": "address",
          "name": "to",
          "type": "address"
        },
        {
          "internalType": "uint256",
          "name": "tokenId",
          "type": "uint256"
        },
        {
          "internalType": "bytes",
          "name": "_data",
          "type": "bytes"
        }
      ],
      "name": "safeTransferFrom",
      "outputs": [],
      "stateMutability": "nonpayable",
      "type": "function"
    },
    {
      "inputs": [
        {
          "internalType": "address",
          "name": "operator",
          "type": "address"
        },
        {
          "internalType": "bool",
          "name": "approved",
          "type": "bool"
        }
      ],
      "name": "setApprovalForAll",
      "outputs": [],
      "stateMutability": "nonpayable",
      "type": "function"
    },
    {
      "inputs": [
        {
          "internalType": "bytes4",
          "name": "interfaceId",
          "type": "bytes4"
        }
      ],
      "name": "supportsInterface",
      "outputs": [
        {
          "internalType": "bool",
          "name": "",
          "type": "bool"
        }
      ],
      "stateMutability": "view",
      "type": "function"
    },
    {
      "inputs": [],
      "name": "symbol",
      "outputs": [
        {
          "internalType": "string",
          "name": "",
          "type": "string"
        }
      ],
      "stateMutability": "view",
      "type": "function"
    },
    {
      "inputs": [
        {
          "internalType": "uint256",
          "name": "tokenId",
          "type": "uint256"
        }
      ],
      "name": "tokenURI",
      "outputs": [
        {
          "internalType": "string",
          "name": "",
          "type": "string"
        }
      ],
      "stateMutability": "view",
      "type": "function"
    },
    {
      "inputs": [
        {
          "internalType": "address",
          "name": "from",
          "type": "address"
        },
        {
          "internalType": "address",
          "name": "to",
          "type": "address"
        },
        {
          "internalType": "uint256",
          "name": "tokenId",
          "type": "uint256"
        }
      ],
      "name": "transferFrom",
      "outputs": [],
      "stateMutability": "nonpayable",
      "type": "function"
    },
    {
      "inputs": [
        {
          "internalType": "uint256",
          "name": "tokenId",
          "type": "uint256"
        },
        {
          "internalType": "string",
          "name": "quote",
          "type": "string"
        }
      ],
      "name": "updateProfile",
      "outputs": [],
      "stateMutability": "nonpayable",
      "type": "function"
    }
  ],
  "bytecode": "0x60806040523480156200001157600080fd5b506040518060400160405280600f81526020016e444c69627261727950726f66696c6560881b815250604051806040016040528060038152602001620444c560ec1b815250816000908162000067919062000136565b50600162000076828262000136565b5050600880546001600160a01b031916331790555062000202565b634e487b7160e01b600052604160045260246000fd5b600181811c90821680620000bc57607f821691505b602082108103620000dd57634e487b7160e01b600052602260045260246000fd5b50919050565b601f8211156200013157600081815260208120601f850160051c810160208610156200010c5750805b601f850160051c820191505b818110156200012d5782815560010162000118565b5050505b505050565b81516001600160401b0381111562000152576200015262000091565b6200016a81620001638454620000a7565b84620000e3565b602080601f831160018114620001a25760008415620001895750858301515b600019600386901b1c1916600185901b1785556200012d565b600085815260208120601f198616915b82811015620001d357888601518255948401946001909101908401620001b2565b5085821015620001f25787850151600019600388901b60f8161c191681555b5050505050600190811b01905550565b611d8a80620002126000396000f3fe608060405234801561001057600080fd5b506004361061010b5760003560e01c80636f61c744116100a25780639841c82c116100715780639841c82c1461021f578063a22cb46514610232578063b88d4fde14610245578063c87b56dd14610258578063e985e9c51461026b57600080fd5b80636f61c744146101dc57806370a08231146101f157806389c7e0a01461020457806395d89b411461021757600080fd5b806323b872dd116100de57806323b872dd1461018d5780633697611a146101a057806342842e0e146101b65780636352211e146101c957600080fd5b806301ffc9a71461011057806306fdde0314610138578063081812fc1461014d578063095ea7b314610178575b600080fd5b61012361011e366004611590565b6102a7565b60405190151581526020015b60405180910390f35b6101406102f9565b60405161012f9190611605565b61016061015b366004611618565b61038b565b6040516001600160a01b03909116815260200161012f565b61018b61018636600461164d565b610418565b005b61018b61019b366004611677565b61052d565b6101a861055e565b60405190815260200161012f565b61018b6101c4366004611677565b61056e565b6101606101d7366004611618565b610589565b6101e4610600565b60405161012f91906116b3565b6101a86101ff366004611765565b6108fa565b61018b61021236600461182c565b610981565b6101406109f6565b6101a861022d366004611873565b610a05565b61018b6102403660046118fb565b610a49565b61018b610253366004611937565b610a58565b610140610266366004611618565b610a90565b6101236102793660046119b3565b6001600160a01b03918216600090815260056020908152604080832093909416825291909152205460ff1690565b60006001600160e01b031982166380ac58cd60e01b14806102d857506001600160e01b03198216635b5e139f60e01b145b806102f357506301ffc9a760e01b6001600160e01b03198316145b92915050565b606060008054610308906119e6565b80601f0160208091040260200160405190810160405280929190818152602001828054610334906119e6565b80156103815780601f1061035657610100808354040283529160200191610381565b820191906000526020600020905b81548152906001019060200180831161036457829003601f168201915b5050505050905090565b600061039682610bfe565b6103fc5760405162461bcd60e51b815260206004820152602c60248201527f4552433732313a20617070726f76656420717565727920666f72206e6f6e657860448201526b34b9ba32b73a103a37b5b2b760a11b60648201526084015b60405180910390fd5b506000908152600460205260409020546001600160a01b031690565b600061042382610589565b9050806001600160a01b0316836001600160a01b0316036104905760405162461bcd60e51b815260206004820152602160248201527f4552433732313a20617070726f76616c20746f2063757272656e74206f776e656044820152603960f91b60648201526084016103f3565b336001600160a01b03821614806104ac57506104ac8133610279565b61051e5760405162461bcd60e51b815260206004820152603860248201527f4552433732313a20617070726f76652063616c6c6572206973206e6f74206f7760448201527f6e6572206e6f7220617070726f76656420666f7220616c6c000000000000000060648201526084016103f3565b6105288383610c1b565b505050565b6105373382610c89565b6105535760405162461bcd60e51b81526004016103f390611a20565b610528838383610d72565b600061056960075490565b905090565b61052883838360405180602001604052806000815250610a58565b6000818152600260205260408120546001600160a01b0316806102f35760405162461bcd60e51b815260206004820152602960248201527f4552433732313a206f776e657220717565727920666f72206e6f6e657869737460448201526832b73a103a37b5b2b760b91b60648201526084016103f3565b6060600061060d60075490565b905060008060005b8381101561066f57336009600061062d846001611a87565b81526020810191909152604001600020600101546001600160a01b03160361065d5761065a600184611a87565b92505b8061066781611a9f565b915050610615565b5060008267ffffffffffffffff81111561068b5761068b611780565b6040519080825280602002602001820160405280156106f757816020015b6106e46040518060a001604052806000815260200160006001600160a01b031681526020016060815260200160608152602001600081525090565b8152602001906001900390816106a95790505b50905060005b848110156108f1573360096000610715846001611a87565b81526020810191909152604001600020600101546001600160a01b0316036108df576000610744826001611a87565b600081815260096020908152604091829020825160a0810184528154815260018201546001600160a01b0316928101929092526002810180549495509093919284929084019190610794906119e6565b80601f01602080910402602001604051908101604052809291908181526020018280546107c0906119e6565b801561080d5780601f106107e25761010080835404028352916020019161080d565b820191906000526020600020905b8154815290600101906020018083116107f057829003601f168201915b50505050508152602001600382018054610826906119e6565b80601f0160208091040260200160405190810160405280929190818152602001828054610852906119e6565b801561089f5780601f106108745761010080835404028352916020019161089f565b820191906000526020600020905b81548152906001019060200180831161088257829003601f168201915b505050505081526020016004820154815250508486815181106108c4576108c4611ab8565b60209081029190910101526108da600186611a87565b945050505b806108e981611a9f565b9150506106fd565b50949350505050565b60006001600160a01b0382166109655760405162461bcd60e51b815260206004820152602a60248201527f4552433732313a2062616c616e636520717565727920666f7220746865207a65604482015269726f206164647265737360b01b60648201526084016103f3565b506001600160a01b031660009081526003602052604090205490565b6008546001600160a01b031633146109db5760405162461bcd60e51b815260206004820152601e60248201527f4f6e6c79206f776e65722063616e207570646174652070726f66696c652e000060448201526064016103f3565b60008281526009602052604090206002016105288282611b1c565b606060018054610308906119e6565b6000610a15600780546001019055565b6000610a2060075490565b9050610a2c3382610f0e565b610a368186611041565b610a418185856110c5565b949350505050565b610a5433838361119c565b5050565b610a623383610c89565b610a7e5760405162461bcd60e51b81526004016103f390611a20565b610a8a8484848461126a565b50505050565b6060610a9b82610bfe565b610b015760405162461bcd60e51b815260206004820152603160248201527f45524337323155524953746f726167653a2055524920717565727920666f72206044820152703737b732bc34b9ba32b73a103a37b5b2b760791b60648201526084016103f3565b60008281526006602052604081208054610b1a906119e6565b80601f0160208091040260200160405190810160405280929190818152602001828054610b46906119e6565b8015610b935780601f10610b6857610100808354040283529160200191610b93565b820191906000526020600020905b815481529060010190602001808311610b7657829003601f168201915b505050505090506000610bb160408051602081019091526000815290565b90508051600003610bc3575092915050565b815115610bf5578082604051602001610bdd929190611bdc565b60405160208183030381529060405292505050919050565b610a418461129d565b6000908152600260205260409020546001600160a01b0316151590565b600081815260046020526040902080546001600160a01b0319166001600160a01b0384169081179091558190610c5082610589565b6001600160a01b03167f8c5be1e5ebec7d5bd14f71427d1e84f3dd0314c0f7b2291e5b200ac8c7c3b92560405160405180910390a45050565b6000610c9482610bfe565b610cf55760405162461bcd60e51b815260206004820152602c60248201527f4552433732313a206f70657261746f7220717565727920666f72206e6f6e657860448201526b34b9ba32b73a103a37b5b2b760a11b60648201526084016103f3565b6000610d0083610589565b9050806001600160a01b0316846001600160a01b03161480610d4757506001600160a01b0380821660009081526005602090815260408083209388168352929052205460ff165b80610a415750836001600160a01b0316610d608461038b565b6001600160a01b031614949350505050565b826001600160a01b0316610d8582610589565b6001600160a01b031614610de95760405162461bcd60e51b815260206004820152602560248201527f4552433732313a207472616e736665722066726f6d20696e636f72726563742060448201526437bbb732b960d91b60648201526084016103f3565b6001600160a01b038216610e4b5760405162461bcd60e51b8152602060048201526024808201527f4552433732313a207472616e7366657220746f20746865207a65726f206164646044820152637265737360e01b60648201526084016103f3565b610e56600082610c1b565b6001600160a01b0383166000908152600360205260408120805460019290610e7f908490611c0b565b90915550506001600160a01b0382166000908152600360205260408120805460019290610ead908490611a87565b909155505060008181526002602052604080822080546001600160a01b0319166001600160a01b0386811691821790925591518493918716917fddf252ad1be2c89b69c2b068fc378daa952ba7f163c4a11628f55a4df523b3ef91a4505050565b6001600160a01b038216610f645760405162461bcd60e51b815260206004820181905260248201527f4552433732313a206d696e7420746f20746865207a65726f206164647265737360448201526064016103f3565b610f6d81610bfe565b15610fba5760405162461bcd60e51b815260206004820152601c60248201527f4552433732313a20746f6b656e20616c7265616479206d696e7465640000000060448201526064016103f3565b6001600160a01b0382166000908152600360205260408120805460019290610fe3908490611a87565b909155505060008181526002602052604080822080546001600160a01b0319166001600160a01b03861690811790915590518392907fddf252ad1be2c89b69c2b068fc378daa952ba7f163c4a11628f55a4df523b3ef908290a45050565b61104a82610bfe565b6110ad5760405162461bcd60e51b815260206004820152602e60248201527f45524337323155524953746f726167653a2055524920736574206f66206e6f6e60448201526d32bc34b9ba32b73a103a37b5b2b760911b60648201526084016103f3565b60008281526006602052604090206105288282611b1c565b6040805160a08101825284815233602080830191825282840186815260608401869052426080850152600088815260099092529390208251815590516001820180546001600160a01b0319166001600160a01b03909216919091179055915190919060028201906111369082611b1c565b506060820151600382019061114b9082611b1c565b5060808201518160040155905050827f2ee9864d4973303038e7c69e8abb92e6d4f40ece780d3bc8ae54706668cf73e03384844260405161118f9493929190611c22565b60405180910390a2505050565b816001600160a01b0316836001600160a01b0316036111fd5760405162461bcd60e51b815260206004820152601960248201527f4552433732313a20617070726f766520746f2063616c6c65720000000000000060448201526064016103f3565b6001600160a01b03838116600081815260056020908152604080832094871680845294825291829020805460ff191686151590811790915591519182527f17307eab39ab6107e8899845ad3d59bd9653f200f220920489ca2b5937696c31910160405180910390a3505050565b611275848484610d72565b61128184848484611375565b610a8a5760405162461bcd60e51b81526004016103f390611c6a565b60606112a882610bfe565b61130c5760405162461bcd60e51b815260206004820152602f60248201527f4552433732314d657461646174613a2055524920717565727920666f72206e6f60448201526e3732bc34b9ba32b73a103a37b5b2b760891b60648201526084016103f3565b600061132360408051602081019091526000815290565b90506000815111611343576040518060200160405280600081525061136e565b8061134d84611476565b60405160200161135e929190611bdc565b6040516020818303038152906040525b9392505050565b60006001600160a01b0384163b1561146b57604051630a85bd0160e11b81526001600160a01b0385169063150b7a02906113b9903390899088908890600401611cbc565b6020604051808303816000875af19250505080156113f4575060408051601f3d908101601f191682019092526113f191810190611cf9565b60015b611451573d808015611422576040519150601f19603f3d011682016040523d82523d6000602084013e611427565b606091505b5080516000036114495760405162461bcd60e51b81526004016103f390611c6a565b805181602001fd5b6001600160e01b031916630a85bd0160e11b149050610a41565b506001949350505050565b60608160000361149d5750506040805180820190915260018152600360fc1b602082015290565b8160005b81156114c757806114b181611a9f565b91506114c09050600a83611d2c565b91506114a1565b60008167ffffffffffffffff8111156114e2576114e2611780565b6040519080825280601f01601f19166020018201604052801561150c576020820181803683370190505b5090505b8415610a4157611521600183611c0b565b915061152e600a86611d40565b611539906030611a87565b60f81b81838151811061154e5761154e611ab8565b60200101906001600160f81b031916908160001a905350611570600a86611d2c565b9450611510565b6001600160e01b03198116811461158d57600080fd5b50565b6000602082840312156115a257600080fd5b813561136e81611577565b60005b838110156115c85781810151838201526020016115b0565b83811115610a8a5750506000910152565b600081518084526115f18160208601602086016115ad565b601f01601f19169290920160200192915050565b60208152600061136e60208301846115d9565b60006020828403121561162a57600080fd5b5035919050565b80356001600160a01b038116811461164857600080fd5b919050565b6000806040838503121561166057600080fd5b61166983611631565b946020939093013593505050565b60008060006060848603121561168c57600080fd5b61169584611631565b92506116a360208501611631565b9150604084013590509250925092565b60006020808301818452808551808352604092508286019150828160051b87010184880160005b8381101561175757888303603f19018552815180518452878101516001600160a01b0316888501528681015160a08886018190529061171b828701826115d9565b9150506060808301518683038288015261173583826115d9565b60809485015197909401969096525050948701949250908601906001016116da565b509098975050505050505050565b60006020828403121561177757600080fd5b61136e82611631565b634e487b7160e01b600052604160045260246000fd5b600067ffffffffffffffff808411156117b1576117b1611780565b604051601f8501601f19908116603f011681019082821181831017156117d9576117d9611780565b816040528093508581528686860111156117f257600080fd5b858560208301376000602087830101525050509392505050565b600082601f83011261181d57600080fd5b61136e83833560208501611796565b6000806040838503121561183f57600080fd5b82359150602083013567ffffffffffffffff81111561185d57600080fd5b6118698582860161180c565b9150509250929050565b60008060006060848603121561188857600080fd5b833567ffffffffffffffff808211156118a057600080fd5b6118ac8783880161180c565b945060208601359150808211156118c257600080fd5b6118ce8783880161180c565b935060408601359150808211156118e457600080fd5b506118f18682870161180c565b9150509250925092565b6000806040838503121561190e57600080fd5b61191783611631565b91506020830135801515811461192c57600080fd5b809150509250929050565b6000806000806080858703121561194d57600080fd5b61195685611631565b935061196460208601611631565b925060408501359150606085013567ffffffffffffffff81111561198757600080fd5b8501601f8101871361199857600080fd5b6119a787823560208401611796565b91505092959194509250565b600080604083850312156119c657600080fd5b6119cf83611631565b91506119dd60208401611631565b90509250929050565b600181811c908216806119fa57607f821691505b602082108103611a1a57634e487b7160e01b600052602260045260246000fd5b50919050565b60208082526031908201527f4552433732313a207472616e736665722063616c6c6572206973206e6f74206f6040820152701ddb995c881b9bdc88185c1c1c9bdd9959607a1b606082015260800190565b634e487b7160e01b600052601160045260246000fd5b60008219821115611a9a57611a9a611a71565b500190565b600060018201611ab157611ab1611a71565b5060010190565b634e487b7160e01b600052603260045260246000fd5b601f82111561052857600081815260208120601f850160051c81016020861015611af55750805b601f850160051c820191505b81811015611b1457828155600101611b01565b505050505050565b815167ffffffffffffffff811115611b3657611b36611780565b611b4a81611b4484546119e6565b84611ace565b602080601f831160018114611b7f5760008415611b675750858301515b600019600386901b1c1916600185901b178555611b14565b600085815260208120601f198616915b82811015611bae57888601518255948401946001909101908401611b8f565b5085821015611bcc5787850151600019600388901b60f8161c191681555b5050505050600190811b01905550565b60008351611bee8184602088016115ad565b835190830190611c028183602088016115ad565b01949350505050565b600082821015611c1d57611c1d611a71565b500390565b6001600160a01b0385168152608060208201819052600090611c46908301866115d9565b8281036040840152611c5881866115d9565b91505082606083015295945050505050565b60208082526032908201527f4552433732313a207472616e7366657220746f206e6f6e20455243373231526560408201527131b2b4bb32b91034b6b83632b6b2b73a32b960711b606082015260800190565b6001600160a01b0385811682528416602082015260408101839052608060608201819052600090611cef908301846115d9565b9695505050505050565b600060208284031215611d0b57600080fd5b815161136e81611577565b634e487b7160e01b600052601260045260246000fd5b600082611d3b57611d3b611d16565b500490565b600082611d4f57611d4f611d16565b50069056fea2646970667358221220bc4d9b8031c52939ca7679cb5dfafd5061db0b760d6f06909925bcfc05990fb864736f6c634300080f0033",
  "linkReferences": {},
  "deployedLinkReferences": {}
}