{
  "_format": "hh-sol-artifact-1",
  "contractName": "TestCounter",
  "sourceName": "contracts/counter.sol",
  "abi": [
    {
      "inputs": [],
      "name": "decrementCounter",
      "outputs": [],
      "stateMutability": "nonpayable",
      "type": "function"
    },
    {
      "inputs": [],
      "name": "getCount",
      "outputs": [
        {
          "internalType": "uint256",
          "name": "",
          "type": "uint256"
        }
      ],
      "stateMutability": "view",
      "type": "function"
    },
    {
      "inputs": [],
      "name": "increment13",
      "outputs": [],
      "stateMutability": "nonpayable",
      "type": "function"
    },
    {
      "inputs": [],
      "name": "increment177",
      "outputs": [],
      "stateMutability": "nonpayable",
      "type": "function"
    },
    {
      "inputs": [],
      "name": "incrementCounter",
      "outputs": [],
      "stateMutability": "nonpayable",
      "type": "function"
    }
  ],
  "bytecode": "0x60806040526000805534801561001457600080fd5b506101b9806100246000396000f3fe608060405234801561001057600080fd5b50600436106100575760003560e01c806340a5f4f41461005c5780635b34b966146100665780636fcacddb1461006e578063a87d942c14610076578063f5c5ad831461008b575b600080fd5b610064610093565b005b6100646100ac565b6100646100be565b60005460405190815260200160405180910390f35b6100646100d0565b60b16000808282546100a59190610154565b9091555050565b60016000808282546100a59190610154565b600d6000808282546100a59190610154565b600054806101245760405162461bcd60e51b815260206004820152601b60248201527f436f756e7465723a2064656372656d656e74206f766572666c6f770000000000604482015260640160405180910390fd5b6001600080828254610136919061016c565b909155505050565b634e487b7160e01b600052601160045260246000fd5b600082198211156101675761016761013e565b500190565b60008282101561017e5761017e61013e565b50039056fea2646970667358221220d9ac0f8538a67aef6b5576a4a97194d29bd4714565a53a48d2db629b2d3e9deb64736f6c634300080f0033",
  "linkReferences": {},
  "deployedLinkReferences": {}
}