{
  "_format": "hh-sol-artifact-1",
  "contractName": "Transactions",
  "sourceName": "contracts/Transactions.sol",
  "abi": [
    {
      "inputs": [],
      "stateMutability": "nonpayable",
      "type": "constructor"
    },
    {
      "anonymous": false,
      "inputs": [
        {
          "indexed": false,
          "internalType": "address",
          "name": "from",
          "type": "address"
        },
        {
          "indexed": false,
          "internalType": "address",
          "name": "receiver",
          "type": "address"
        },
        {
          "indexed": false,
          "internalType": "uint256",
          "name": "amount",
          "type": "uint256"
        },
        {
          "indexed": false,
          "internalType": "string",
          "name": "message",
          "type": "string"
        },
        {
          "indexed": false,
          "internalType": "uint256",
          "name": "timestamp",
          "type": "uint256"
        }
      ],
      "name": "Transfer",
      "type": "event"
    },
    {
      "inputs": [
        {
          "internalType": "uint256",
          "name": "amount",
          "type": "uint256"
        },
        {
          "internalType": "string",
          "name": "message",
          "type": "string"
        }
      ],
      "name": "addToBlockchain",
      "outputs": [],
      "stateMutability": "nonpayable",
      "type": "function"
    },
    {
      "inputs": [],
      "name": "getAllTransactions",
      "outputs": [
        {
          "components": [
            {
              "internalType": "address",
              "name": "sender",
              "type": "address"
            },
            {
              "internalType": "address",
              "name": "receiver",
              "type": "address"
            },
            {
              "internalType": "uint256",
              "name": "amount",
              "type": "uint256"
            },
            {
              "internalType": "string",
              "name": "message",
              "type": "string"
            },
            {
              "internalType": "uint256",
              "name": "timestamp",
              "type": "uint256"
            }
          ],
          "internalType": "struct Transactions.TransferStruct[]",
          "name": "",
          "type": "tuple[]"
        }
      ],
      "stateMutability": "view",
      "type": "function"
    },
    {
      "inputs": [],
      "name": "getTransactionCount",
      "outputs": [
        {
          "internalType": "uint256",
          "name": "",
          "type": "uint256"
        }
      ],
      "stateMutability": "view",
      "type": "function"
    },
    {
      "inputs": [],
      "name": "withdraw",
      "outputs": [],
      "stateMutability": "payable",
      "type": "function"
    }
  ],
  "bytecode": "0x608060405234801561001057600080fd5b50600180546001600160a01b03191633179055610702806100326000396000f3fe60806040526004361061003f5760003560e01c806327506f53146100445780632e7700f01461006f5780633ccfd60b1461008d578063864826cf14610097575b600080fd5b34801561005057600080fd5b506100596100b7565b60405161006691906104af565b60405180910390f35b34801561007b57600080fd5b50600054604051908152602001610066565b6100956101e0565b005b3480156100a357600080fd5b506100956100b236600461056b565b61024f565b60606002805480602002602001604051908101604052809291908181526020016000905b828210156101d75760008481526020908190206040805160a0810182526005860290920180546001600160a01b0390811684526001820154169383019390935260028301549082015260038201805491929160608401919061013c90610626565b80601f016020809104026020016040519081016040528092919081815260200182805461016890610626565b80156101b55780601f1061018a576101008083540402835291602001916101b5565b820191906000526020600020905b81548152906001019060200180831161019857829003601f168201915b50505050508152602001600482015481525050815260200190600101906100db565b50505050905090565b6001546001600160a01b031633146101f757600080fd5b604051600090339047908381818185875af1925050503d8060008114610239576040519150601f19603f3d011682016040523d82523d6000602084013e61023e565b606091505b505090508061024c57600080fd5b50565b60016000808282546102619190610661565b90915550506040805160a0810182523381523060208083019182529282018581526060830185815242608085015260028054600181018255600091909152845160059091027f405787fa12a823e0f2b7631cc41b3ba8828b3321ca811111fa75cd3aa3bb5ace810180546001600160a01b039384166001600160a01b031991821617825595517f405787fa12a823e0f2b7631cc41b3ba8828b3321ca811111fa75cd3aa3bb5acf830180549190941696169590951790915591517f405787fa12a823e0f2b7631cc41b3ba8828b3321ca811111fa75cd3aa3bb5ad083015551805193949293610379937f405787fa12a823e0f2b7631cc41b3ba8828b3321ca811111fa75cd3aa3bb5ad19093019291909101906103c9565b506080820151816004015550507fc4b32d7ff75a51e487f3cbb5d3202f2efecca1f4c2b987e0039c1d3220b48a8333308484426040516103bd959493929190610687565b60405180910390a15050565b8280546103d590610626565b90600052602060002090601f0160209004810192826103f7576000855561043d565b82601f1061041057805160ff191683800117855561043d565b8280016001018555821561043d579182015b8281111561043d578251825591602001919060010190610422565b5061044992915061044d565b5090565b5b80821115610449576000815560010161044e565b6000815180845260005b818110156104885760208185018101518683018201520161046c565b8181111561049a576000602083870101525b50601f01601f19169290920160200192915050565b60006020808301818452808551808352604092508286019150828160051b87010184880160005b8381101561054757888303603f19018552815180516001600160a01b039081168552888201511688850152868101518785015260608082015160a0828701819052919061052583880182610462565b60809485015197909401969096525050948701949250908601906001016104d6565b509098975050505050505050565b634e487b7160e01b600052604160045260246000fd5b6000806040838503121561057e57600080fd5b82359150602083013567ffffffffffffffff8082111561059d57600080fd5b818501915085601f8301126105b157600080fd5b8135818111156105c3576105c3610555565b604051601f8201601f19908116603f011681019083821181831017156105eb576105eb610555565b8160405282815288602084870101111561060457600080fd5b8260208601602083013760006020848301015280955050505050509250929050565b600181811c9082168061063a57607f821691505b6020821081141561065b57634e487b7160e01b600052602260045260246000fd5b50919050565b6000821982111561068257634e487b7160e01b600052601160045260246000fd5b500190565b6001600160a01b038681168252851660208201526040810184905260a0606082018190526000906106ba90830185610462565b9050826080830152969550505050505056fea2646970667358221220cccf0710860d681b0cb974ed120b7cef34a5c18ab27655fc0d1c728385a71e2e64736f6c63430008090033",
  "linkReferences": {},
  "deployedLinkReferences": {}
}