{
  "_format": "hh-sol-artifact-1",
  "contractName": "VideoBook",
  "sourceName": "contracts/VideoBook.sol",
  "abi": [
    {
      "inputs": [],
      "stateMutability": "nonpayable",
      "type": "constructor"
    },
    {
      "anonymous": false,
      "inputs": [
        {
          "indexed": true,
          "internalType": "address",
          "name": "owner",
          "type": "address"
        },
        {
          "indexed": true,
          "internalType": "address",
          "name": "approved",
          "type": "address"
        },
        {
          "indexed": true,
          "internalType": "uint256",
          "name": "tokenId",
          "type": "uint256"
        }
      ],
      "name": "Approval",
      "type": "event"
    },
    {
      "anonymous": false,
      "inputs": [
        {
          "indexed": true,
          "internalType": "address",
          "name": "owner",
          "type": "address"
        },
        {
          "indexed": true,
          "internalType": "address",
          "name": "operator",
          "type": "address"
        },
        {
          "indexed": false,
          "internalType": "bool",
          "name": "approved",
          "type": "bool"
        }
      ],
      "name": "ApprovalForAll",
      "type": "event"
    },
    {
      "anonymous": false,
      "inputs": [
        {
          "indexed": true,
          "internalType": "uint256",
          "name": "tokenId",
          "type": "uint256"
        },
        {
          "indexed": false,
          "internalType": "address",
          "name": "creator",
          "type": "address"
        },
        {
          "indexed": false,
          "internalType": "address",
          "name": "owner",
          "type": "address"
        },
        {
          "indexed": false,
          "internalType": "address",
          "name": "viewer",
          "type": "address"
        },
        {
          "indexed": false,
          "internalType": "string",
          "name": "category",
          "type": "string"
        },
        {
          "indexed": false,
          "internalType": "bool",
          "name": "watched",
          "type": "bool"
        }
      ],
      "name": "LibraryItemCreated",
      "type": "event"
    },
    {
      "anonymous": false,
      "inputs": [
        {
          "indexed": true,
          "internalType": "address",
          "name": "from",
          "type": "address"
        },
        {
          "indexed": true,
          "internalType": "address",
          "name": "to",
          "type": "address"
        },
        {
          "indexed": true,
          "internalType": "uint256",
          "name": "tokenId",
          "type": "uint256"
        }
      ],
      "name": "Transfer",
      "type": "event"
    },
    {
      "inputs": [
        {
          "internalType": "address",
          "name": "to",
          "type": "address"
        },
        {
          "internalType": "uint256",
          "name": "tokenId",
          "type": "uint256"
        }
      ],
      "name": "approve",
      "outputs": [],
      "stateMutability": "nonpayable",
      "type": "function"
    },
    {
      "inputs": [
        {
          "internalType": "address",
          "name": "owner",
          "type": "address"
        }
      ],
      "name": "balanceOf",
      "outputs": [
        {
          "internalType": "uint256",
          "name": "",
          "type": "uint256"
        }
      ],
      "stateMutability": "view",
      "type": "function"
    },
    {
      "inputs": [
        {
          "internalType": "uint256",
          "name": "tokenId",
          "type": "uint256"
        }
      ],
      "name": "createLibraryWatched",
      "outputs": [],
      "stateMutability": "payable",
      "type": "function"
    },
    {
      "inputs": [
        {
          "internalType": "string",
          "name": "tokenURI",
          "type": "string"
        },
        {
          "internalType": "string",
          "name": "category",
          "type": "string"
        }
      ],
      "name": "createVideo",
      "outputs": [
        {
          "internalType": "uint256",
          "name": "",
          "type": "uint256"
        }
      ],
      "stateMutability": "payable",
      "type": "function"
    },
    {
      "inputs": [],
      "name": "fetchAllLibraryItems",
      "outputs": [
        {
          "components": [
            {
              "internalType": "uint256",
              "name": "tokenId",
              "type": "uint256"
            },
            {
              "internalType": "address payable",
              "name": "creator",
              "type": "address"
            },
            {
              "internalType": "address payable",
              "name": "owner",
              "type": "address"
            },
            {
              "internalType": "address payable",
              "name": "viewer",
              "type": "address"
            },
            {
              "internalType": "string",
              "name": "category",
              "type": "string"
            },
            {
              "internalType": "bool",
              "name": "watched",
              "type": "bool"
            }
          ],
          "internalType": "struct VideoBook.LibraryItem[]",
          "name": "",
          "type": "tuple[]"
        }
      ],
      "stateMutability": "view",
      "type": "function"
    },
    {
      "inputs": [],
      "name": "fetchItemsListed",
      "outputs": [
        {
          "components": [
            {
              "internalType": "uint256",
              "name": "tokenId",
              "type": "uint256"
            },
            {
              "internalType": "address payable",
              "name": "creator",
              "type": "address"
            },
            {
              "internalType": "address payable",
              "name": "owner",
              "type": "address"
            },
            {
              "internalType": "address payable",
              "name": "viewer",
              "type": "address"
            },
            {
              "internalType": "string",
              "name": "category",
              "type": "string"
            },
            {
              "internalType": "bool",
              "name": "watched",
              "type": "bool"
            }
          ],
          "internalType": "struct VideoBook.LibraryItem[]",
          "name": "",
          "type": "tuple[]"
        }
      ],
      "stateMutability": "view",
      "type": "function"
    },
    {
      "inputs": [],
      "name": "fetchMyVideos",
      "outputs": [
        {
          "components": [
            {
              "internalType": "uint256",
              "name": "tokenId",
              "type": "uint256"
            },
            {
              "internalType": "address payable",
              "name": "creator",
              "type": "address"
            },
            {
              "internalType": "address payable",
              "name": "owner",
              "type": "address"
            },
            {
              "internalType": "address payable",
              "name": "viewer",
              "type": "address"
            },
            {
              "internalType": "string",
              "name": "category",
              "type": "string"
            },
            {
              "internalType": "bool",
              "name": "watched",
              "type": "bool"
            }
          ],
          "internalType": "struct VideoBook.LibraryItem[]",
          "name": "",
          "type": "tuple[]"
        }
      ],
      "stateMutability": "view",
      "type": "function"
    },
    {
      "inputs": [
        {
          "internalType": "uint256",
          "name": "tokenId",
          "type": "uint256"
        }
      ],
      "name": "fetchOneItem",
      "outputs": [
        {
          "components": [
            {
              "internalType": "uint256",
              "name": "tokenId",
              "type": "uint256"
            },
            {
              "internalType": "address payable",
              "name": "creator",
              "type": "address"
            },
            {
              "internalType": "address payable",
              "name": "owner",
              "type": "address"
            },
            {
              "internalType": "address payable",
              "name": "viewer",
              "type": "address"
            },
            {
              "internalType": "string",
              "name": "category",
              "type": "string"
            },
            {
              "internalType": "bool",
              "name": "watched",
              "type": "bool"
            }
          ],
          "internalType": "struct VideoBook.LibraryItem",
          "name": "",
          "type": "tuple"
        }
      ],
      "stateMutability": "view",
      "type": "function"
    },
    {
      "inputs": [],
      "name": "fetchUnwatchedLibraryItems",
      "outputs": [
        {
          "components": [
            {
              "internalType": "uint256",
              "name": "tokenId",
              "type": "uint256"
            },
            {
              "internalType": "address payable",
              "name": "creator",
              "type": "address"
            },
            {
              "internalType": "address payable",
              "name": "owner",
              "type": "address"
            },
            {
              "internalType": "address payable",
              "name": "viewer",
              "type": "address"
            },
            {
              "internalType": "string",
              "name": "category",
              "type": "string"
            },
            {
              "internalType": "bool",
              "name": "watched",
              "type": "bool"
            }
          ],
          "internalType": "struct VideoBook.LibraryItem[]",
          "name": "",
          "type": "tuple[]"
        }
      ],
      "stateMutability": "view",
      "type": "function"
    },
    {
      "inputs": [],
      "name": "fetchViewer",
      "outputs": [
        {
          "components": [
            {
              "internalType": "uint256",
              "name": "tokenId",
              "type": "uint256"
            },
            {
              "internalType": "address payable",
              "name": "creator",
              "type": "address"
            },
            {
              "internalType": "address payable",
              "name": "owner",
              "type": "address"
            },
            {
              "internalType": "address payable",
              "name": "viewer",
              "type": "address"
            },
            {
              "internalType": "string",
              "name": "category",
              "type": "string"
            },
            {
              "internalType": "bool",
              "name": "watched",
              "type": "bool"
            }
          ],
          "internalType": "struct VideoBook.LibraryItem[]",
          "name": "",
          "type": "tuple[]"
        }
      ],
      "stateMutability": "view",
      "type": "function"
    },
    {
      "inputs": [
        {
          "internalType": "uint256",
          "name": "tokenId",
          "type": "uint256"
        }
      ],
      "name": "getApproved",
      "outputs": [
        {
          "internalType": "address",
          "name": "",
          "type": "address"
        }
      ],
      "stateMutability": "view",
      "type": "function"
    },
    {
      "inputs": [],
      "name": "getTotalItems",
      "outputs": [
        {
          "internalType": "uint256",
          "name": "",
          "type": "uint256"
        }
      ],
      "stateMutability": "view",
      "type": "function"
    },
    {
      "inputs": [],
      "name": "getTotalWatched",
      "outputs": [
        {
          "internalType": "uint256",
          "name": "",
          "type": "uint256"
        }
      ],
      "stateMutability": "view",
      "type": "function"
    },
    {
      "inputs": [
        {
          "internalType": "address",
          "name": "owner",
          "type": "address"
        },
        {
          "internalType": "address",
          "name": "operator",
          "type": "address"
        }
      ],
      "name": "isApprovedForAll",
      "outputs": [
        {
          "internalType": "bool",
          "name": "",
          "type": "bool"
        }
      ],
      "stateMutability": "view",
      "type": "function"
    },
    {
      "inputs": [],
      "name": "name",
      "outputs": [
        {
          "internalType": "string",
          "name": "",
          "type": "string"
        }
      ],
      "stateMutability": "view",
      "type": "function"
    },
    {
      "inputs": [
        {
          "internalType": "uint256",
          "name": "tokenId",
          "type": "uint256"
        }
      ],
      "name": "ownerOf",
      "outputs": [
        {
          "internalType": "address",
          "name": "",
          "type": "address"
        }
      ],
      "stateMutability": "view",
      "type": "function"
    },
    {
      "inputs": [
        {
          "internalType": "uint256",
          "name": "tokenId",
          "type": "uint256"
        },
        {
          "internalType": "string",
          "name": "category",
          "type": "string"
        }
      ],
      "name": "returnVideo",
      "outputs": [],
      "stateMutability": "payable",
      "type": "function"
    },
    {
      "inputs": [
        {
          "internalType": "address",
          "name": "from",
          "type": "address"
        },
        {
          "internalType": "address",
          "name": "to",
          "type": "address"
        },
        {
          "internalType": "uint256",
          "name": "tokenId",
          "type": "uint256"
        }
      ],
      "name": "safeTransferFrom",
      "outputs": [],
      "stateMutability": "nonpayable",
      "type": "function"
    },
    {
      "inputs": [
        {
          "internalType": "address",
          "name": "from",
          "type": "address"
        },
        {
          "internalType": "address",
          "name": "to",
          "type": "address"
        },
        {
          "internalType": "uint256",
          "name": "tokenId",
          "type": "uint256"
        },
        {
          "internalType": "bytes",
          "name": "_data",
          "type": "bytes"
        }
      ],
      "name": "safeTransferFrom",
      "outputs": [],
      "stateMutability": "nonpayable",
      "type": "function"
    },
    {
      "inputs": [
        {
          "internalType": "address",
          "name": "operator",
          "type": "address"
        },
        {
          "internalType": "bool",
          "name": "approved",
          "type": "bool"
        }
      ],
      "name": "setApprovalForAll",
      "outputs": [],
      "stateMutability": "nonpayable",
      "type": "function"
    },
    {
      "inputs": [
        {
          "internalType": "bytes4",
          "name": "interfaceId",
          "type": "bytes4"
        }
      ],
      "name": "supportsInterface",
      "outputs": [
        {
          "internalType": "bool",
          "name": "",
          "type": "bool"
        }
      ],
      "stateMutability": "view",
      "type": "function"
    },
    {
      "inputs": [],
      "name": "symbol",
      "outputs": [
        {
          "internalType": "string",
          "name": "",
          "type": "string"
        }
      ],
      "stateMutability": "view",
      "type": "function"
    },
    {
      "inputs": [
        {
          "internalType": "uint256",
          "name": "tokenId",
          "type": "uint256"
        }
      ],
      "name": "tokenURI",
      "outputs": [
        {
          "internalType": "string",
          "name": "",
          "type": "string"
        }
      ],
      "stateMutability": "view",
      "type": "function"
    },
    {
      "inputs": [
        {
          "internalType": "address",
          "name": "from",
          "type": "address"
        },
        {
          "internalType": "address",
          "name": "to",
          "type": "address"
        },
        {
          "internalType": "uint256",
          "name": "tokenId",
          "type": "uint256"
        }
      ],
      "name": "transferFrom",
      "outputs": [],
      "stateMutability": "nonpayable",
      "type": "function"
    }
  ],
  "bytecode": "0x60806040523480156200001157600080fd5b50604080518082018252601b81527f446563656e7472616c697a6564204c69627261727920766964656f0000000000602080830191825283518085019094526005845264222634b12160d91b9084015281519192916200007491600091620000a5565b5080516200008a906001906020840190620000a5565b5050600980546001600160a01b031916331790555062000188565b828054620000b3906200014b565b90600052602060002090601f016020900481019282620000d7576000855562000122565b82601f10620000f257805160ff191683800117855562000122565b8280016001018555821562000122579182015b828111156200012257825182559160200191906001019062000105565b506200013092915062000134565b5090565b5b8082111562000130576000815560010162000135565b600181811c908216806200016057607f821691505b602082108114156200018257634e487b7160e01b600052602260045260246000fd5b50919050565b61297980620001986000396000f3fe60806040526004361061014b5760003560e01c806370a08231116100b6578063b88d4fde1161006f578063b88d4fde1461038d578063c5f67edf146103ad578063c87b56dd146103c2578063e7685e2b146103e2578063e985e9c5146103f5578063f36550e11461043e57600080fd5b806370a08231146102e357806388ceb0df1461030357806395d89b41146103305780639da14f1b14610345578063a22cb4651461035a578063b3b2bc7c1461037a57600080fd5b8063310aac6911610108578063310aac69146102435780633db3518d1461026657806342842e0e1461027b57806345f8fa801461029b5780636352211e146102b05780636cbb855d146102d057600080fd5b806301ffc9a71461015057806306fdde0314610185578063081812fc146101a7578063095ea7b3146101df578063227967741461020157806323b872dd14610223575b600080fd5b34801561015c57600080fd5b5061017061016b366004612292565b610453565b60405190151581526020015b60405180910390f35b34801561019157600080fd5b5061019a6104a5565b60405161017c9190612307565b3480156101b357600080fd5b506101c76101c236600461231a565b610537565b6040516001600160a01b03909116815260200161017c565b3480156101eb57600080fd5b506101ff6101fa36600461234f565b6105c4565b005b34801561020d57600080fd5b506102166106da565b60405161017c91906123dc565b34801561022f57600080fd5b506101ff61023e36600461243e565b6108d3565b34801561024f57600080fd5b50610258610904565b60405190815260200161017c565b34801561027257600080fd5b50610216610914565b34801561028757600080fd5b506101ff61029636600461243e565b610b6c565b3480156102a757600080fd5b50610216610b87565b3480156102bc57600080fd5b506101c76102cb36600461231a565b610dd9565b6102586102de366004612526565b610e50565b3480156102ef57600080fd5b506102586102fe36600461258a565b610e92565b34801561030f57600080fd5b5061032361031e36600461231a565b610f19565b60405161017c91906125a5565b34801561033c57600080fd5b5061019a61101f565b34801561035157600080fd5b5061021661102e565b34801561036657600080fd5b506101ff6103753660046125b8565b611216565b6101ff6103883660046125f4565b611225565b34801561039957600080fd5b506101ff6103a8366004612631565b611347565b3480156103b957600080fd5b5061025861137f565b3480156103ce57600080fd5b5061019a6103dd36600461231a565b61138a565b6101ff6103f036600461231a565b611501565b34801561040157600080fd5b506101706104103660046126ad565b6001600160a01b03918216600090815260056020908152604080832093909416825291909152205460ff1690565b34801561044a57600080fd5b50610216611571565b60006001600160e01b031982166380ac58cd60e01b148061048457506001600160e01b03198216635b5e139f60e01b145b8061049f57506301ffc9a760e01b6001600160e01b03198316145b92915050565b6060600080546104b4906126e0565b80601f01602080910402602001604051908101604052809291908181526020018280546104e0906126e0565b801561052d5780601f106105025761010080835404028352916020019161052d565b820191906000526020600020905b81548152906001019060200180831161051057829003601f168201915b5050505050905090565b600061054282611795565b6105a85760405162461bcd60e51b815260206004820152602c60248201527f4552433732313a20617070726f76656420717565727920666f72206e6f6e657860448201526b34b9ba32b73a103a37b5b2b760a11b60648201526084015b60405180910390fd5b506000908152600460205260409020546001600160a01b031690565b60006105cf82610dd9565b9050806001600160a01b0316836001600160a01b0316141561063d5760405162461bcd60e51b815260206004820152602160248201527f4552433732313a20617070726f76616c20746f2063757272656e74206f776e656044820152603960f91b606482015260840161059f565b336001600160a01b038216148061065957506106598133610410565b6106cb5760405162461bcd60e51b815260206004820152603860248201527f4552433732313a20617070726f76652063616c6c6572206973206e6f74206f7760448201527f6e6572206e6f7220617070726f76656420666f7220616c6c0000000000000000606482015260840161059f565b6106d583836117b2565b505050565b606060006106e760075490565b90506000808267ffffffffffffffff8111156107055761070561247a565b60405190808252806020026020018201604052801561073e57816020015b61072b6121ac565b8152602001906001900390816107235790505b50905060005b838110156108cb5730600a600061075c846001612731565b81526020810191909152604001600020600201546001600160a01b031614156108b957600061078c826001612731565b6000818152600a6020908152604091829020825160c0810184528154815260018201546001600160a01b03908116938201939093526002820154831693810193909352600381015490911660608301526004810180549394509092839160808401916107f7906126e0565b80601f0160208091040260200160405190810160405280929190818152602001828054610823906126e0565b80156108705780601f1061084557610100808354040283529160200191610870565b820191906000526020600020905b81548152906001019060200180831161085357829003601f168201915b50505091835250506005919091015460ff161515602090910152845185908790811061089e5761089e612749565b60209081029190910101526108b4600186612731565b945050505b806108c38161275f565b915050610744565b509392505050565b6108dd3382611820565b6108f95760405162461bcd60e51b815260040161059f9061277a565b6106d5838383611909565b600061090f60075490565b905090565b6060600061092160075490565b905060008060005b8381101561098157600a6000610940836001612731565b815260208101919091526040016000206005015460ff1615156001141561096f5761096c600184612731565b92505b806109798161275f565b915050610929565b5060008267ffffffffffffffff81111561099d5761099d61247a565b6040519080825280602002602001820160405280156109d657816020015b6109c36121ac565b8152602001906001900390816109bb5790505b50905060005b84811015610b635733600a60006109f4846001612731565b81526020810191909152604001600020600301546001600160a01b03161415610b51576000610a24826001612731565b6000818152600a6020908152604091829020825160c0810184528154815260018201546001600160a01b0390811693820193909352600282015483169381019390935260038101549091166060830152600481018054939450909283916080840191610a8f906126e0565b80601f0160208091040260200160405190810160405280929190818152602001828054610abb906126e0565b8015610b085780601f10610add57610100808354040283529160200191610b08565b820191906000526020600020905b815481529060010190602001808311610aeb57829003601f168201915b50505091835250506005919091015460ff1615156020909101528451859087908110610b3657610b36612749565b6020908102919091010152610b4c600186612731565b945050505b80610b5b8161275f565b9150506109dc565b50949350505050565b6106d583838360405180602001604052806000815250611347565b60606000610b9460075490565b905060008060005b83811015610bf75733600a6000610bb4846001612731565b81526020810191909152604001600020600101546001600160a01b03161415610be557610be2600184612731565b92505b80610bef8161275f565b915050610b9c565b5060008267ffffffffffffffff811115610c1357610c1361247a565b604051908082528060200260200182016040528015610c4c57816020015b610c396121ac565b815260200190600190039081610c315790505b50905060005b84811015610b635733600a6000610c6a846001612731565b81526020810191909152604001600020600101546001600160a01b03161415610dc7576000610c9a826001612731565b6000818152600a6020908152604091829020825160c0810184528154815260018201546001600160a01b0390811693820193909352600282015483169381019390935260038101549091166060830152600481018054939450909283916080840191610d05906126e0565b80601f0160208091040260200160405190810160405280929190818152602001828054610d31906126e0565b8015610d7e5780601f10610d5357610100808354040283529160200191610d7e565b820191906000526020600020905b815481529060010190602001808311610d6157829003601f168201915b50505091835250506005919091015460ff1615156020909101528451859087908110610dac57610dac612749565b6020908102919091010152610dc2600186612731565b945050505b80610dd18161275f565b915050610c52565b6000818152600260205260408120546001600160a01b03168061049f5760405162461bcd60e51b815260206004820152602960248201527f4552433732313a206f776e657220717565727920666f72206e6f6e657869737460448201526832b73a103a37b5b2b760b91b606482015260840161059f565b6000610e60600780546001019055565b6000610e6b60075490565b9050610e773382611aa5565b610e818185611bd8565b610e8b8184611c63565b9392505050565b60006001600160a01b038216610efd5760405162461bcd60e51b815260206004820152602a60248201527f4552433732313a2062616c616e636520717565727920666f7220746865207a65604482015269726f206164647265737360b01b606482015260840161059f565b506001600160a01b031660009081526003602052604090205490565b610f216121ac565b6000828152600a6020908152604091829020825160c0810184528154815260018201546001600160a01b0390811693820193909352600282015483169381019390935260038101549091166060830152600481018054608084019190610f86906126e0565b80601f0160208091040260200160405190810160405280929190818152602001828054610fb2906126e0565b8015610fff5780601f10610fd457610100808354040283529160200191610fff565b820191906000526020600020905b815481529060010190602001808311610fe257829003601f168201915b50505091835250506005919091015460ff16151560209091015292915050565b6060600180546104b4906126e0565b6060600061103b60075490565b90506000808267ffffffffffffffff8111156110595761105961247a565b60405190808252806020026020018201604052801561109257816020015b61107f6121ac565b8152602001906001900390816110775790505b50905060005b838110156108cb57600a60006110af836001612731565b815260208101919091526040016000206005015460ff166112045760006110d7826001612731565b6000818152600a6020908152604091829020825160c0810184528154815260018201546001600160a01b0390811693820193909352600282015483169381019390935260038101549091166060830152600481018054939450909283916080840191611142906126e0565b80601f016020809104026020016040519081016040528092919081815260200182805461116e906126e0565b80156111bb5780601f10611190576101008083540402835291602001916111bb565b820191906000526020600020905b81548152906001019060200180831161119e57829003601f168201915b50505091835250506005919091015460ff16151560209091015284518590879081106111e9576111e9612749565b60209081029190910101526111ff600186612731565b945050505b8061120e8161275f565b915050611098565b611221338383611d71565b5050565b6000828152600a6020526040902060018101546002909101546001600160a01b03918216911633146112c95760405162461bcd60e51b815260206004820152604160248201527f4f6e6c7920746865206f6e6520696e20706f73736573696f6e206f662074686560448201527f20766964656f2063616e20706572666f726d2074686973206f7065726174696f6064820152603760f91b608482015260a40161059f565b6000838152600a6020908152604090912060058101805460ff191690556001810180546001600160a01b0385166001600160a01b03199182161790915560028201805482163017905560038201805490911690558351611331926004909201918501906121e0565b5061133c6008611e40565b6106d5333085611909565b6113513383611820565b61136d5760405162461bcd60e51b815260040161059f9061277a565b61137984848484611e97565b50505050565b600061090f60085490565b606061139582611795565b6113fb5760405162461bcd60e51b815260206004820152603160248201527f45524337323155524953746f726167653a2055524920717565727920666f72206044820152703737b732bc34b9ba32b73a103a37b5b2b760791b606482015260840161059f565b60008281526006602052604081208054611414906126e0565b80601f0160208091040260200160405190810160405280929190818152602001828054611440906126e0565b801561148d5780601f106114625761010080835404028352916020019161148d565b820191906000526020600020905b81548152906001019060200180831161147057829003601f168201915b5050505050905060006114ab60408051602081019091526000815290565b90508051600014156114be575092915050565b8151156114f05780826040516020016114d89291906127cb565b60405160208183030381529060405292505050919050565b6114f984611eca565b949350505050565b6000818152600a6020526040902060018082018054600284018054306001600160a01b03199182161790915560058501805460ff1916851790556001600160a01b038216918116821790925560039093018054339216919091179055600880549091019055611221303384611909565b6060600061157e60075490565b90506000808267ffffffffffffffff81111561159c5761159c61247a565b6040519080825280602002602001820160405280156115d557816020015b6115c26121ac565b8152602001906001900390816115ba5790505b50905060005b838110156108cb5733600a60006115f3846001612731565b81526020810191909152604001600020600301546001600160a01b03161480156116445750600a6000611627836001612731565b815260208101919091526040016000206005015460ff1615156001145b15611783576000611656826001612731565b6000818152600a6020908152604091829020825160c0810184528154815260018201546001600160a01b03908116938201939093526002820154831693810193909352600381015490911660608301526004810180549394509092839160808401916116c1906126e0565b80601f01602080910402602001604051908101604052809291908181526020018280546116ed906126e0565b801561173a5780601f1061170f5761010080835404028352916020019161173a565b820191906000526020600020905b81548152906001019060200180831161171d57829003601f168201915b50505091835250506005919091015460ff161515602090910152845185908790811061176857611768612749565b602090810291909101015261177e600186612731565b945050505b8061178d8161275f565b9150506115db565b6000908152600260205260409020546001600160a01b0316151590565b600081815260046020526040902080546001600160a01b0319166001600160a01b03841690811790915581906117e782610dd9565b6001600160a01b03167f8c5be1e5ebec7d5bd14f71427d1e84f3dd0314c0f7b2291e5b200ac8c7c3b92560405160405180910390a45050565b600061182b82611795565b61188c5760405162461bcd60e51b815260206004820152602c60248201527f4552433732313a206f70657261746f7220717565727920666f72206e6f6e657860448201526b34b9ba32b73a103a37b5b2b760a11b606482015260840161059f565b600061189783610dd9565b9050806001600160a01b0316846001600160a01b031614806118de57506001600160a01b0380821660009081526005602090815260408083209388168352929052205460ff165b806114f95750836001600160a01b03166118f784610537565b6001600160a01b031614949350505050565b826001600160a01b031661191c82610dd9565b6001600160a01b0316146119805760405162461bcd60e51b815260206004820152602560248201527f4552433732313a207472616e736665722066726f6d20696e636f72726563742060448201526437bbb732b960d91b606482015260840161059f565b6001600160a01b0382166119e25760405162461bcd60e51b8152602060048201526024808201527f4552433732313a207472616e7366657220746f20746865207a65726f206164646044820152637265737360e01b606482015260840161059f565b6119ed6000826117b2565b6001600160a01b0383166000908152600360205260408120805460019290611a169084906127fa565b90915550506001600160a01b0382166000908152600360205260408120805460019290611a44908490612731565b909155505060008181526002602052604080822080546001600160a01b0319166001600160a01b0386811691821790925591518493918716917fddf252ad1be2c89b69c2b068fc378daa952ba7f163c4a11628f55a4df523b3ef91a4505050565b6001600160a01b038216611afb5760405162461bcd60e51b815260206004820181905260248201527f4552433732313a206d696e7420746f20746865207a65726f2061646472657373604482015260640161059f565b611b0481611795565b15611b515760405162461bcd60e51b815260206004820152601c60248201527f4552433732313a20746f6b656e20616c7265616479206d696e74656400000000604482015260640161059f565b6001600160a01b0382166000908152600360205260408120805460019290611b7a908490612731565b909155505060008181526002602052604080822080546001600160a01b0319166001600160a01b03861690811790915590518392907fddf252ad1be2c89b69c2b068fc378daa952ba7f163c4a11628f55a4df523b3ef908290a45050565b611be182611795565b611c445760405162461bcd60e51b815260206004820152602e60248201527f45524337323155524953746f726167653a2055524920736574206f66206e6f6e60448201526d32bc34b9ba32b73a103a37b5b2b760911b606482015260840161059f565b600082815260066020908152604090912082516106d5928401906121e0565b6040805160c081018252838152336020808301918252308385019081526000606085018181526080860188815260a08701839052898352600a8552969091208551815593516001850180546001600160a01b03199081166001600160a01b039384161790915592516002860180548516918316919091179055905160038501805490931691161790559251805192939192611d0492600485019201906121e0565b5060a091909101516005909101805460ff1916911515919091179055611d2b333084611909565b817fb00b235d12ad6e3d2e85c8e7749f1bcc0dbf1a31ac6ab928fe652ab91eaa95a133306000856000604051611d65959493929190612811565b60405180910390a25050565b816001600160a01b0316836001600160a01b03161415611dd35760405162461bcd60e51b815260206004820152601960248201527f4552433732313a20617070726f766520746f2063616c6c657200000000000000604482015260640161059f565b6001600160a01b03838116600081815260056020908152604080832094871680845294825291829020805460ff191686151590811790915591519182527f17307eab39ab6107e8899845ad3d59bd9653f200f220920489ca2b5937696c31910160405180910390a3505050565b805480611e8f5760405162461bcd60e51b815260206004820152601b60248201527f436f756e7465723a2064656372656d656e74206f766572666c6f770000000000604482015260640161059f565b600019019055565b611ea2848484611909565b611eae84848484611fa1565b6113795760405162461bcd60e51b815260040161059f90612859565b6060611ed582611795565b611f395760405162461bcd60e51b815260206004820152602f60248201527f4552433732314d657461646174613a2055524920717565727920666f72206e6f60448201526e3732bc34b9ba32b73a103a37b5b2b760891b606482015260840161059f565b6000611f5060408051602081019091526000815290565b90506000815111611f705760405180602001604052806000815250610e8b565b80611f7a846120ae565b604051602001611f8b9291906127cb565b6040516020818303038152906040529392505050565b60006001600160a01b0384163b156120a357604051630a85bd0160e11b81526001600160a01b0385169063150b7a0290611fe59033908990889088906004016128ab565b602060405180830381600087803b158015611fff57600080fd5b505af192505050801561202f575060408051601f3d908101601f1916820190925261202c918101906128e8565b60015b612089573d80801561205d576040519150601f19603f3d011682016040523d82523d6000602084013e612062565b606091505b5080516120815760405162461bcd60e51b815260040161059f90612859565b805181602001fd5b6001600160e01b031916630a85bd0160e11b1490506114f9565b506001949350505050565b6060816120d25750506040805180820190915260018152600360fc1b602082015290565b8160005b81156120fc57806120e68161275f565b91506120f59050600a8361291b565b91506120d6565b60008167ffffffffffffffff8111156121175761211761247a565b6040519080825280601f01601f191660200182016040528015612141576020820181803683370190505b5090505b84156114f9576121566001836127fa565b9150612163600a8661292f565b61216e906030612731565b60f81b81838151811061218357612183612749565b60200101906001600160f81b031916908160001a9053506121a5600a8661291b565b9450612145565b6040805160c0810182526000808252602082018190529181018290526060808201839052608082015260a081019190915290565b8280546121ec906126e0565b90600052602060002090601f01602090048101928261220e5760008555612254565b82601f1061222757805160ff1916838001178555612254565b82800160010185558215612254579182015b82811115612254578251825591602001919060010190612239565b50612260929150612264565b5090565b5b808211156122605760008155600101612265565b6001600160e01b03198116811461228f57600080fd5b50565b6000602082840312156122a457600080fd5b8135610e8b81612279565b60005b838110156122ca5781810151838201526020016122b2565b838111156113795750506000910152565b600081518084526122f38160208601602086016122af565b601f01601f19169290920160200192915050565b602081526000610e8b60208301846122db565b60006020828403121561232c57600080fd5b5035919050565b80356001600160a01b038116811461234a57600080fd5b919050565b6000806040838503121561236257600080fd5b61236b83612333565b946020939093013593505050565b805182526000602082015160018060a01b0380821660208601528060408501511660408601528060608501511660608601525050608082015160c060808501526123c660c08501826122db565b60a0938401511515949093019390935250919050565b6000602080830181845280855180835260408601915060408160051b870101925083870160005b8281101561243157603f1988860301845261241f858351612379565b94509285019290850190600101612403565b5092979650505050505050565b60008060006060848603121561245357600080fd5b61245c84612333565b925061246a60208501612333565b9150604084013590509250925092565b634e487b7160e01b600052604160045260246000fd5b600067ffffffffffffffff808411156124ab576124ab61247a565b604051601f8501601f19908116603f011681019082821181831017156124d3576124d361247a565b816040528093508581528686860111156124ec57600080fd5b858560208301376000602087830101525050509392505050565b600082601f83011261251757600080fd5b610e8b83833560208501612490565b6000806040838503121561253957600080fd5b823567ffffffffffffffff8082111561255157600080fd5b61255d86838701612506565b9350602085013591508082111561257357600080fd5b5061258085828601612506565b9150509250929050565b60006020828403121561259c57600080fd5b610e8b82612333565b602081526000610e8b6020830184612379565b600080604083850312156125cb57600080fd5b6125d483612333565b9150602083013580151581146125e957600080fd5b809150509250929050565b6000806040838503121561260757600080fd5b82359150602083013567ffffffffffffffff81111561262557600080fd5b61258085828601612506565b6000806000806080858703121561264757600080fd5b61265085612333565b935061265e60208601612333565b925060408501359150606085013567ffffffffffffffff81111561268157600080fd5b8501601f8101871361269257600080fd5b6126a187823560208401612490565b91505092959194509250565b600080604083850312156126c057600080fd5b6126c983612333565b91506126d760208401612333565b90509250929050565b600181811c908216806126f457607f821691505b6020821081141561271557634e487b7160e01b600052602260045260246000fd5b50919050565b634e487b7160e01b600052601160045260246000fd5b600082198211156127445761274461271b565b500190565b634e487b7160e01b600052603260045260246000fd5b60006000198214156127735761277361271b565b5060010190565b60208082526031908201527f4552433732313a207472616e736665722063616c6c6572206973206e6f74206f6040820152701ddb995c881b9bdc88185c1c1c9bdd9959607a1b606082015260800190565b600083516127dd8184602088016122af565b8351908301906127f18183602088016122af565b01949350505050565b60008282101561280c5761280c61271b565b500390565b6001600160a01b03868116825285811660208301528416604082015260a060608201819052600090612845908301856122db565b905082151560808301529695505050505050565b60208082526032908201527f4552433732313a207472616e7366657220746f206e6f6e20455243373231526560408201527131b2b4bb32b91034b6b83632b6b2b73a32b960711b606082015260800190565b6001600160a01b03858116825284166020820152604081018390526080606082018190526000906128de908301846122db565b9695505050505050565b6000602082840312156128fa57600080fd5b8151610e8b81612279565b634e487b7160e01b600052601260045260246000fd5b60008261292a5761292a612905565b500490565b60008261293e5761293e612905565b50069056fea26469706673582212202932ba8ccb4c7b3c9a21946819ac024e33d85914306f38f33c7ed0f41fb8588b64736f6c63430008090033",
  "linkReferences": {},
  "deployedLinkReferences": {}
}