{
  "_format": "hh-sol-artifact-1",
  "contractName": "VideoBook",
  "sourceName": "contracts/VideoBook.sol",
  "abi": [
    {
      "inputs": [],
      "stateMutability": "nonpayable",
      "type": "constructor"
    },
    {
      "anonymous": false,
      "inputs": [
        {
          "indexed": true,
          "internalType": "address",
          "name": "owner",
          "type": "address"
        },
        {
          "indexed": true,
          "internalType": "address",
          "name": "approved",
          "type": "address"
        },
        {
          "indexed": true,
          "internalType": "uint256",
          "name": "tokenId",
          "type": "uint256"
        }
      ],
      "name": "Approval",
      "type": "event"
    },
    {
      "anonymous": false,
      "inputs": [
        {
          "indexed": true,
          "internalType": "address",
          "name": "owner",
          "type": "address"
        },
        {
          "indexed": true,
          "internalType": "address",
          "name": "operator",
          "type": "address"
        },
        {
          "indexed": false,
          "internalType": "bool",
          "name": "approved",
          "type": "bool"
        }
      ],
      "name": "ApprovalForAll",
      "type": "event"
    },
    {
      "anonymous": false,
      "inputs": [
        {
          "indexed": true,
          "internalType": "uint256",
          "name": "tokenId",
          "type": "uint256"
        },
        {
          "indexed": false,
          "internalType": "address",
          "name": "creator",
          "type": "address"
        },
        {
          "indexed": false,
          "internalType": "address",
          "name": "owner",
          "type": "address"
        },
        {
          "indexed": false,
          "internalType": "address",
          "name": "viewer",
          "type": "address"
        },
        {
          "indexed": false,
          "internalType": "uint256",
          "name": "category",
          "type": "uint256"
        },
        {
          "indexed": false,
          "internalType": "bool",
          "name": "watched",
          "type": "bool"
        }
      ],
      "name": "LibraryItemCreated",
      "type": "event"
    },
    {
      "anonymous": false,
      "inputs": [
        {
          "indexed": true,
          "internalType": "address",
          "name": "from",
          "type": "address"
        },
        {
          "indexed": true,
          "internalType": "address",
          "name": "to",
          "type": "address"
        },
        {
          "indexed": true,
          "internalType": "uint256",
          "name": "tokenId",
          "type": "uint256"
        }
      ],
      "name": "Transfer",
      "type": "event"
    },
    {
      "inputs": [
        {
          "internalType": "address",
          "name": "to",
          "type": "address"
        },
        {
          "internalType": "uint256",
          "name": "tokenId",
          "type": "uint256"
        }
      ],
      "name": "approve",
      "outputs": [],
      "stateMutability": "nonpayable",
      "type": "function"
    },
    {
      "inputs": [
        {
          "internalType": "address",
          "name": "owner",
          "type": "address"
        }
      ],
      "name": "balanceOf",
      "outputs": [
        {
          "internalType": "uint256",
          "name": "",
          "type": "uint256"
        }
      ],
      "stateMutability": "view",
      "type": "function"
    },
    {
      "inputs": [
        {
          "internalType": "uint256",
          "name": "tokenId",
          "type": "uint256"
        }
      ],
      "name": "createLibraryWatched",
      "outputs": [],
      "stateMutability": "payable",
      "type": "function"
    },
    {
      "inputs": [
        {
          "internalType": "string",
          "name": "tokenURI",
          "type": "string"
        },
        {
          "internalType": "uint256",
          "name": "category",
          "type": "uint256"
        }
      ],
      "name": "createVideo",
      "outputs": [
        {
          "internalType": "uint256",
          "name": "",
          "type": "uint256"
        }
      ],
      "stateMutability": "payable",
      "type": "function"
    },
    {
      "inputs": [],
      "name": "fetchAllLibraryItems",
      "outputs": [
        {
          "components": [
            {
              "internalType": "uint256",
              "name": "tokenId",
              "type": "uint256"
            },
            {
              "internalType": "address payable",
              "name": "creator",
              "type": "address"
            },
            {
              "internalType": "address payable",
              "name": "owner",
              "type": "address"
            },
            {
              "internalType": "address payable",
              "name": "viewer",
              "type": "address"
            },
            {
              "internalType": "uint256",
              "name": "category",
              "type": "uint256"
            },
            {
              "internalType": "bool",
              "name": "watched",
              "type": "bool"
            }
          ],
          "internalType": "struct VideoBook.LibraryItem[]",
          "name": "",
          "type": "tuple[]"
        }
      ],
      "stateMutability": "view",
      "type": "function"
    },
    {
      "inputs": [
        {
          "internalType": "uint256",
          "name": "category",
          "type": "uint256"
        }
      ],
      "name": "fetchItemsByCategory",
      "outputs": [
        {
          "components": [
            {
              "internalType": "uint256",
              "name": "tokenId",
              "type": "uint256"
            },
            {
              "internalType": "address payable",
              "name": "creator",
              "type": "address"
            },
            {
              "internalType": "address payable",
              "name": "owner",
              "type": "address"
            },
            {
              "internalType": "address payable",
              "name": "viewer",
              "type": "address"
            },
            {
              "internalType": "uint256",
              "name": "category",
              "type": "uint256"
            },
            {
              "internalType": "bool",
              "name": "watched",
              "type": "bool"
            }
          ],
          "internalType": "struct VideoBook.LibraryItem[]",
          "name": "",
          "type": "tuple[]"
        }
      ],
      "stateMutability": "view",
      "type": "function"
    },
    {
      "inputs": [],
      "name": "fetchItemsListed",
      "outputs": [
        {
          "components": [
            {
              "internalType": "uint256",
              "name": "tokenId",
              "type": "uint256"
            },
            {
              "internalType": "address payable",
              "name": "creator",
              "type": "address"
            },
            {
              "internalType": "address payable",
              "name": "owner",
              "type": "address"
            },
            {
              "internalType": "address payable",
              "name": "viewer",
              "type": "address"
            },
            {
              "internalType": "uint256",
              "name": "category",
              "type": "uint256"
            },
            {
              "internalType": "bool",
              "name": "watched",
              "type": "bool"
            }
          ],
          "internalType": "struct VideoBook.LibraryItem[]",
          "name": "",
          "type": "tuple[]"
        }
      ],
      "stateMutability": "view",
      "type": "function"
    },
    {
      "inputs": [],
      "name": "fetchMyVideos",
      "outputs": [
        {
          "components": [
            {
              "internalType": "uint256",
              "name": "tokenId",
              "type": "uint256"
            },
            {
              "internalType": "address payable",
              "name": "creator",
              "type": "address"
            },
            {
              "internalType": "address payable",
              "name": "owner",
              "type": "address"
            },
            {
              "internalType": "address payable",
              "name": "viewer",
              "type": "address"
            },
            {
              "internalType": "uint256",
              "name": "category",
              "type": "uint256"
            },
            {
              "internalType": "bool",
              "name": "watched",
              "type": "bool"
            }
          ],
          "internalType": "struct VideoBook.LibraryItem[]",
          "name": "",
          "type": "tuple[]"
        }
      ],
      "stateMutability": "view",
      "type": "function"
    },
    {
      "inputs": [
        {
          "internalType": "uint256",
          "name": "_tokenId",
          "type": "uint256"
        }
      ],
      "name": "fetchOneNFT",
      "outputs": [
        {
          "components": [
            {
              "internalType": "uint256",
              "name": "tokenId",
              "type": "uint256"
            },
            {
              "internalType": "address payable",
              "name": "creator",
              "type": "address"
            },
            {
              "internalType": "address payable",
              "name": "owner",
              "type": "address"
            },
            {
              "internalType": "address payable",
              "name": "viewer",
              "type": "address"
            },
            {
              "internalType": "uint256",
              "name": "category",
              "type": "uint256"
            },
            {
              "internalType": "bool",
              "name": "watched",
              "type": "bool"
            }
          ],
          "internalType": "struct VideoBook.LibraryItem[]",
          "name": "",
          "type": "tuple[]"
        }
      ],
      "stateMutability": "view",
      "type": "function"
    },
    {
      "inputs": [],
      "name": "fetchUnwatchedLibraryItems",
      "outputs": [
        {
          "components": [
            {
              "internalType": "uint256",
              "name": "tokenId",
              "type": "uint256"
            },
            {
              "internalType": "address payable",
              "name": "creator",
              "type": "address"
            },
            {
              "internalType": "address payable",
              "name": "owner",
              "type": "address"
            },
            {
              "internalType": "address payable",
              "name": "viewer",
              "type": "address"
            },
            {
              "internalType": "uint256",
              "name": "category",
              "type": "uint256"
            },
            {
              "internalType": "bool",
              "name": "watched",
              "type": "bool"
            }
          ],
          "internalType": "struct VideoBook.LibraryItem[]",
          "name": "",
          "type": "tuple[]"
        }
      ],
      "stateMutability": "view",
      "type": "function"
    },
    {
      "inputs": [],
      "name": "fetchViewer",
      "outputs": [
        {
          "components": [
            {
              "internalType": "uint256",
              "name": "tokenId",
              "type": "uint256"
            },
            {
              "internalType": "address payable",
              "name": "creator",
              "type": "address"
            },
            {
              "internalType": "address payable",
              "name": "owner",
              "type": "address"
            },
            {
              "internalType": "address payable",
              "name": "viewer",
              "type": "address"
            },
            {
              "internalType": "uint256",
              "name": "category",
              "type": "uint256"
            },
            {
              "internalType": "bool",
              "name": "watched",
              "type": "bool"
            }
          ],
          "internalType": "struct VideoBook.LibraryItem[]",
          "name": "",
          "type": "tuple[]"
        }
      ],
      "stateMutability": "view",
      "type": "function"
    },
    {
      "inputs": [
        {
          "internalType": "uint256",
          "name": "tokenId",
          "type": "uint256"
        }
      ],
      "name": "getApproved",
      "outputs": [
        {
          "internalType": "address",
          "name": "",
          "type": "address"
        }
      ],
      "stateMutability": "view",
      "type": "function"
    },
    {
      "inputs": [],
      "name": "getTotalItems",
      "outputs": [
        {
          "internalType": "uint256",
          "name": "",
          "type": "uint256"
        }
      ],
      "stateMutability": "view",
      "type": "function"
    },
    {
      "inputs": [],
      "name": "getTotalWatched",
      "outputs": [
        {
          "internalType": "uint256",
          "name": "",
          "type": "uint256"
        }
      ],
      "stateMutability": "view",
      "type": "function"
    },
    {
      "inputs": [
        {
          "internalType": "address",
          "name": "owner",
          "type": "address"
        },
        {
          "internalType": "address",
          "name": "operator",
          "type": "address"
        }
      ],
      "name": "isApprovedForAll",
      "outputs": [
        {
          "internalType": "bool",
          "name": "",
          "type": "bool"
        }
      ],
      "stateMutability": "view",
      "type": "function"
    },
    {
      "inputs": [],
      "name": "name",
      "outputs": [
        {
          "internalType": "string",
          "name": "",
          "type": "string"
        }
      ],
      "stateMutability": "view",
      "type": "function"
    },
    {
      "inputs": [
        {
          "internalType": "uint256",
          "name": "tokenId",
          "type": "uint256"
        }
      ],
      "name": "ownerOf",
      "outputs": [
        {
          "internalType": "address",
          "name": "",
          "type": "address"
        }
      ],
      "stateMutability": "view",
      "type": "function"
    },
    {
      "inputs": [
        {
          "internalType": "address",
          "name": "from",
          "type": "address"
        },
        {
          "internalType": "address",
          "name": "to",
          "type": "address"
        },
        {
          "internalType": "uint256",
          "name": "tokenId",
          "type": "uint256"
        }
      ],
      "name": "safeTransferFrom",
      "outputs": [],
      "stateMutability": "nonpayable",
      "type": "function"
    },
    {
      "inputs": [
        {
          "internalType": "address",
          "name": "from",
          "type": "address"
        },
        {
          "internalType": "address",
          "name": "to",
          "type": "address"
        },
        {
          "internalType": "uint256",
          "name": "tokenId",
          "type": "uint256"
        },
        {
          "internalType": "bytes",
          "name": "_data",
          "type": "bytes"
        }
      ],
      "name": "safeTransferFrom",
      "outputs": [],
      "stateMutability": "nonpayable",
      "type": "function"
    },
    {
      "inputs": [
        {
          "internalType": "address",
          "name": "operator",
          "type": "address"
        },
        {
          "internalType": "bool",
          "name": "approved",
          "type": "bool"
        }
      ],
      "name": "setApprovalForAll",
      "outputs": [],
      "stateMutability": "nonpayable",
      "type": "function"
    },
    {
      "inputs": [
        {
          "internalType": "bytes4",
          "name": "interfaceId",
          "type": "bytes4"
        }
      ],
      "name": "supportsInterface",
      "outputs": [
        {
          "internalType": "bool",
          "name": "",
          "type": "bool"
        }
      ],
      "stateMutability": "view",
      "type": "function"
    },
    {
      "inputs": [],
      "name": "symbol",
      "outputs": [
        {
          "internalType": "string",
          "name": "",
          "type": "string"
        }
      ],
      "stateMutability": "view",
      "type": "function"
    },
    {
      "inputs": [
        {
          "internalType": "uint256",
          "name": "tokenId",
          "type": "uint256"
        }
      ],
      "name": "tokenURI",
      "outputs": [
        {
          "internalType": "string",
          "name": "",
          "type": "string"
        }
      ],
      "stateMutability": "view",
      "type": "function"
    },
    {
      "inputs": [
        {
          "internalType": "address",
          "name": "from",
          "type": "address"
        },
        {
          "internalType": "address",
          "name": "to",
          "type": "address"
        },
        {
          "internalType": "uint256",
          "name": "tokenId",
          "type": "uint256"
        }
      ],
      "name": "transferFrom",
      "outputs": [],
      "stateMutability": "nonpayable",
      "type": "function"
    }
  ],
  "bytecode": "0x60806040523480156200001157600080fd5b506040518060400160405280601b81526020017f446563656e7472616c697a6564204c69627261727920766964656f000000000081525060405180604001604052806005815260200164222634b12160d91b815250816000908162000077919062000146565b50600162000086828262000146565b5050600980546001600160a01b031916331790555062000212565b634e487b7160e01b600052604160045260246000fd5b600181811c90821680620000cc57607f821691505b602082108103620000ed57634e487b7160e01b600052602260045260246000fd5b50919050565b601f8211156200014157600081815260208120601f850160051c810160208610156200011c5750805b601f850160051c820191505b818110156200013d5782815560010162000128565b5050505b505050565b81516001600160401b03811115620001625762000162620000a1565b6200017a81620001738454620000b7565b84620000f3565b602080601f831160018114620001b25760008415620001995750858301515b600019600386901b1c1916600185901b1785556200013d565b600085815260208120601f198616915b82811015620001e357888601518255948401946001909101908401620001c2565b5085821015620002025787850151600019600388901b60f8161c191681555b5050505050600190811b01905550565b6126df80620002226000396000f3fe60806040526004361061014b5760003560e01c806370a08231116100b6578063b88d4fde1161006f578063b88d4fde1461038d578063c5f67edf146103ad578063c87b56dd146103c2578063e7685e2b146103e2578063e985e9c5146103f5578063f36550e11461043e57600080fd5b806370a08231146102f057806370b02a531461031057806395d89b41146103235780639da14f1b14610338578063a22cb4651461034d578063b796fc681461036d57600080fd5b806323b872dd1161010857806323b872dd14610243578063310aac69146102635780633db3518d1461028657806342842e0e1461029b57806345f8fa80146102bb5780636352211e146102d057600080fd5b806301ffc9a71461015057806306fdde0314610185578063081812fc146101a7578063084bcb06146101df578063095ea7b31461020c578063227967741461022e575b600080fd5b34801561015c57600080fd5b5061017061016b366004611feb565b610453565b60405190151581526020015b60405180910390f35b34801561019157600080fd5b5061019a6104a5565b60405161017c9190612060565b3480156101b357600080fd5b506101c76101c2366004612073565b610537565b6040516001600160a01b03909116815260200161017c565b3480156101eb57600080fd5b506101ff6101fa366004612073565b6105c4565b60405161017c919061208c565b34801561021857600080fd5b5061022c610227366004612132565b610777565b005b34801561023a57600080fd5b506101ff61088c565b34801561024f57600080fd5b5061022c61025e36600461215c565b6109f3565b34801561026f57600080fd5b50610278610a24565b60405190815260200161017c565b34801561029257600080fd5b506101ff610a34565b3480156102a757600080fd5b5061022c6102b636600461215c565b610bf9565b3480156102c757600080fd5b506101ff610c14565b3480156102dc57600080fd5b506101c76102eb366004612073565b610dd3565b3480156102fc57600080fd5b5061027861030b366004612198565b610e4a565b61027861031e36600461223f565b610ed1565b34801561032f57600080fd5b5061019a610f13565b34801561034457600080fd5b506101ff610f22565b34801561035957600080fd5b5061022c610368366004612298565b61107f565b34801561037957600080fd5b506101ff610388366004612073565b61108e565b34801561039957600080fd5b5061022c6103a83660046122d4565b611237565b3480156103b957600080fd5b5061027861126f565b3480156103ce57600080fd5b5061019a6103dd366004612073565b61127a565b61022c6103f0366004612073565b6113f0565b34801561040157600080fd5b50610170610410366004612350565b6001600160a01b03918216600090815260056020908152604080832093909416825291909152205460ff1690565b34801561044a57600080fd5b506101ff611460565b60006001600160e01b031982166380ac58cd60e01b148061048457506001600160e01b03198216635b5e139f60e01b145b8061049f57506301ffc9a760e01b6001600160e01b03198316145b92915050565b6060600080546104b490612383565b80601f01602080910402602001604051908101604052809291908181526020018280546104e090612383565b801561052d5780601f106105025761010080835404028352916020019161052d565b820191906000526020600020905b81548152906001019060200180831161051057829003601f168201915b5050505050905090565b6000610542826115f3565b6105a85760405162461bcd60e51b815260206004820152602c60248201527f4552433732313a20617070726f76656420717565727920666f72206e6f6e657860448201526b34b9ba32b73a103a37b5b2b760a11b60648201526084015b60405180910390fd5b506000908152600460205260409020546001600160a01b031690565b606060006105d160075490565b905060008060005b838110156106285785600a60006105f18460016123d3565b81526020019081526020016000206004015403610616576106136001846123d3565b92505b80610620816123eb565b9150506105d9565b5060008267ffffffffffffffff811115610644576106446121b3565b60405190808252806020026020018201604052801561067d57816020015b61066a611f9d565b8152602001906001900390816106625790505b50905060005b8481101561076d5786600a600061069b8460016123d3565b8152602001908152602001600020600401540361075b5760006106bf8260016123d3565b6000818152600a6020908152604091829020825160c0810184528154815260018201546001600160a01b039081169382019390935260028201548316938101939093526003810154909116606083015260048101546080830152600581015460ff16151560a083015285519293509185908790811061074057610740612404565b60209081029190910101526107566001866123d3565b945050505b80610765816123eb565b915050610683565b5095945050505050565b600061078282610dd3565b9050806001600160a01b0316836001600160a01b0316036107ef5760405162461bcd60e51b815260206004820152602160248201527f4552433732313a20617070726f76616c20746f2063757272656e74206f776e656044820152603960f91b606482015260840161059f565b336001600160a01b038216148061080b575061080b8133610410565b61087d5760405162461bcd60e51b815260206004820152603860248201527f4552433732313a20617070726f76652063616c6c6572206973206e6f74206f7760448201527f6e6572206e6f7220617070726f76656420666f7220616c6c0000000000000000606482015260840161059f565b6108878383611610565b505050565b6060600061089960075490565b90506000808267ffffffffffffffff8111156108b7576108b76121b3565b6040519080825280602002602001820160405280156108f057816020015b6108dd611f9d565b8152602001906001900390816108d55790505b50905060005b838110156109eb5730600a600061090e8460016123d3565b81526020810191909152604001600020600201546001600160a01b0316036109d957600061093d8260016123d3565b6000818152600a6020908152604091829020825160c0810184528154815260018201546001600160a01b039081169382019390935260028201548316938101939093526003810154909116606083015260048101546080830152600581015460ff16151560a08301528551929350918590879081106109be576109be612404565b60209081029190910101526109d46001866123d3565b945050505b806109e3816123eb565b9150506108f6565b509392505050565b6109fd338261167e565b610a195760405162461bcd60e51b815260040161059f9061241a565b610887838383611767565b6000610a2f60075490565b905090565b60606000610a4160075490565b905060008060005b83811015610aa057600a6000610a608360016123d3565b815260208101919091526040016000206005015460ff161515600103610a8e57610a8b6001846123d3565b92505b80610a98816123eb565b915050610a49565b5060008267ffffffffffffffff811115610abc57610abc6121b3565b604051908082528060200260200182016040528015610af557816020015b610ae2611f9d565b815260200190600190039081610ada5790505b50905060005b84811015610bf05733600a6000610b138460016123d3565b81526020810191909152604001600020600301546001600160a01b031603610bde576000610b428260016123d3565b6000818152600a6020908152604091829020825160c0810184528154815260018201546001600160a01b039081169382019390935260028201548316938101939093526003810154909116606083015260048101546080830152600581015460ff16151560a0830152855192935091859087908110610bc357610bc3612404565b6020908102919091010152610bd96001866123d3565b945050505b80610be8816123eb565b915050610afb565b50949350505050565b61088783838360405180602001604052806000815250611237565b60606000610c2160075490565b905060008060005b83811015610c835733600a6000610c418460016123d3565b81526020810191909152604001600020600101546001600160a01b031603610c7157610c6e6001846123d3565b92505b80610c7b816123eb565b915050610c29565b5060008267ffffffffffffffff811115610c9f57610c9f6121b3565b604051908082528060200260200182016040528015610cd857816020015b610cc5611f9d565b815260200190600190039081610cbd5790505b50905060005b84811015610bf05733600a6000610cf68460016123d3565b81526020810191909152604001600020600101546001600160a01b031603610dc1576000610d258260016123d3565b6000818152600a6020908152604091829020825160c0810184528154815260018201546001600160a01b039081169382019390935260028201548316938101939093526003810154909116606083015260048101546080830152600581015460ff16151560a0830152855192935091859087908110610da657610da6612404565b6020908102919091010152610dbc6001866123d3565b945050505b80610dcb816123eb565b915050610cde565b6000818152600260205260408120546001600160a01b03168061049f5760405162461bcd60e51b815260206004820152602960248201527f4552433732313a206f776e657220717565727920666f72206e6f6e657869737460448201526832b73a103a37b5b2b760b91b606482015260840161059f565b60006001600160a01b038216610eb55760405162461bcd60e51b815260206004820152602a60248201527f4552433732313a2062616c616e636520717565727920666f7220746865207a65604482015269726f206164647265737360b01b606482015260840161059f565b506001600160a01b031660009081526003602052604090205490565b6000610ee1600780546001019055565b6000610eec60075490565b9050610ef83382611903565b610f028185611a36565b610f0c8184611aba565b9392505050565b6060600180546104b490612383565b60606000610f2f60075490565b90506000808267ffffffffffffffff811115610f4d57610f4d6121b3565b604051908082528060200260200182016040528015610f8657816020015b610f73611f9d565b815260200190600190039081610f6b5790505b50905060005b838110156109eb57600a6000610fa38360016123d3565b8152602081019190915260400160009081206005015460ff161515900361106d576000610fd18260016123d3565b6000818152600a6020908152604091829020825160c0810184528154815260018201546001600160a01b039081169382019390935260028201548316938101939093526003810154909116606083015260048101546080830152600581015460ff16151560a083015285519293509185908790811061105257611052612404565b60209081029190910101526110686001866123d3565b945050505b80611077816123eb565b915050610f8c565b61108a338383611bc3565b5050565b6060600061109b60075490565b905060008060005b838110156110f25785600a60006110bb8460016123d3565b815260200190815260200160002060000154036110e0576110dd6001846123d3565b92505b806110ea816123eb565b9150506110a3565b5060008267ffffffffffffffff81111561110e5761110e6121b3565b60405190808252806020026020018201604052801561114757816020015b611134611f9d565b81526020019060019003908161112c5790505b50905060005b8481101561076d5786600a60006111658460016123d3565b815260200190815260200160002060000154036112255760006111898260016123d3565b6000818152600a6020908152604091829020825160c0810184528154815260018201546001600160a01b039081169382019390935260028201548316938101939093526003810154909116606083015260048101546080830152600581015460ff16151560a083015285519293509185908790811061120a5761120a612404565b60209081029190910101526112206001866123d3565b945050505b8061122f816123eb565b91505061114d565b611241338361167e565b61125d5760405162461bcd60e51b815260040161059f9061241a565b61126984848484611c91565b50505050565b6000610a2f60085490565b6060611285826115f3565b6112eb5760405162461bcd60e51b815260206004820152603160248201527f45524337323155524953746f726167653a2055524920717565727920666f72206044820152703737b732bc34b9ba32b73a103a37b5b2b760791b606482015260840161059f565b6000828152600660205260408120805461130490612383565b80601f016020809104026020016040519081016040528092919081815260200182805461133090612383565b801561137d5780601f106113525761010080835404028352916020019161137d565b820191906000526020600020905b81548152906001019060200180831161136057829003601f168201915b50505050509050600061139b60408051602081019091526000815290565b905080516000036113ad575092915050565b8151156113df5780826040516020016113c792919061246b565b60405160208183030381529060405292505050919050565b6113e884611cc4565b949350505050565b6000818152600a6020526040902060018082018054600284018054306001600160a01b03199182161790915560058501805460ff1916851790556001600160a01b03821691811682179092556003909301805433921691909117905560088054909101905561108a303384611767565b6060600061146d60075490565b90506000808267ffffffffffffffff81111561148b5761148b6121b3565b6040519080825280602002602001820160405280156114c457816020015b6114b1611f9d565b8152602001906001900390816114a95790505b50905060005b838110156109eb5733600a60006114e28460016123d3565b81526020810191909152604001600020600301546001600160a01b03161480156115335750600a60006115168360016123d3565b815260208101919091526040016000206005015460ff1615156001145b156115e15760006115458260016123d3565b6000818152600a6020908152604091829020825160c0810184528154815260018201546001600160a01b039081169382019390935260028201548316938101939093526003810154909116606083015260048101546080830152600581015460ff16151560a08301528551929350918590879081106115c6576115c6612404565b60209081029190910101526115dc6001866123d3565b945050505b806115eb816123eb565b9150506114ca565b6000908152600260205260409020546001600160a01b0316151590565b600081815260046020526040902080546001600160a01b0319166001600160a01b038416908117909155819061164582610dd3565b6001600160a01b03167f8c5be1e5ebec7d5bd14f71427d1e84f3dd0314c0f7b2291e5b200ac8c7c3b92560405160405180910390a45050565b6000611689826115f3565b6116ea5760405162461bcd60e51b815260206004820152602c60248201527f4552433732313a206f70657261746f7220717565727920666f72206e6f6e657860448201526b34b9ba32b73a103a37b5b2b760a11b606482015260840161059f565b60006116f583610dd3565b9050806001600160a01b0316846001600160a01b0316148061173c57506001600160a01b0380821660009081526005602090815260408083209388168352929052205460ff165b806113e85750836001600160a01b031661175584610537565b6001600160a01b031614949350505050565b826001600160a01b031661177a82610dd3565b6001600160a01b0316146117de5760405162461bcd60e51b815260206004820152602560248201527f4552433732313a207472616e736665722066726f6d20696e636f72726563742060448201526437bbb732b960d91b606482015260840161059f565b6001600160a01b0382166118405760405162461bcd60e51b8152602060048201526024808201527f4552433732313a207472616e7366657220746f20746865207a65726f206164646044820152637265737360e01b606482015260840161059f565b61184b600082611610565b6001600160a01b038316600090815260036020526040812080546001929061187490849061249a565b90915550506001600160a01b03821660009081526003602052604081208054600192906118a29084906123d3565b909155505060008181526002602052604080822080546001600160a01b0319166001600160a01b0386811691821790925591518493918716917fddf252ad1be2c89b69c2b068fc378daa952ba7f163c4a11628f55a4df523b3ef91a4505050565b6001600160a01b0382166119595760405162461bcd60e51b815260206004820181905260248201527f4552433732313a206d696e7420746f20746865207a65726f2061646472657373604482015260640161059f565b611962816115f3565b156119af5760405162461bcd60e51b815260206004820152601c60248201527f4552433732313a20746f6b656e20616c7265616479206d696e74656400000000604482015260640161059f565b6001600160a01b03821660009081526003602052604081208054600192906119d89084906123d3565b909155505060008181526002602052604080822080546001600160a01b0319166001600160a01b03861690811790915590518392907fddf252ad1be2c89b69c2b068fc378daa952ba7f163c4a11628f55a4df523b3ef908290a45050565b611a3f826115f3565b611aa25760405162461bcd60e51b815260206004820152602e60248201527f45524337323155524953746f726167653a2055524920736574206f66206e6f6e60448201526d32bc34b9ba32b73a103a37b5b2b760911b606482015260840161059f565b600082815260066020526040902061088782826124ff565b6040805160c08101825283815233602080830182815230848601818152600060608701818152608088018a815260a089018381528c8452600a909752989091209651875592516001870180546001600160a01b03199081166001600160a01b039384161790915591516002880180548416918316919091179055925160038701805490921693169290921790915593516004840155516005909201805460ff191692151592909217909155611b6f9184611767565b604080513381523060208201526000818301819052606082018490526080820152905183917f0a56213f83ac87e5b48db0624170b28f1c01cae043e2166c68dca6d520bcd3f2919081900360a00190a25050565b816001600160a01b0316836001600160a01b031603611c245760405162461bcd60e51b815260206004820152601960248201527f4552433732313a20617070726f766520746f2063616c6c657200000000000000604482015260640161059f565b6001600160a01b03838116600081815260056020908152604080832094871680845294825291829020805460ff191686151590811790915591519182527f17307eab39ab6107e8899845ad3d59bd9653f200f220920489ca2b5937696c31910160405180910390a3505050565b611c9c848484611767565b611ca884848484611d9b565b6112695760405162461bcd60e51b815260040161059f906125bf565b6060611ccf826115f3565b611d335760405162461bcd60e51b815260206004820152602f60248201527f4552433732314d657461646174613a2055524920717565727920666f72206e6f60448201526e3732bc34b9ba32b73a103a37b5b2b760891b606482015260840161059f565b6000611d4a60408051602081019091526000815290565b90506000815111611d6a5760405180602001604052806000815250610f0c565b80611d7484611e9c565b604051602001611d8592919061246b565b6040516020818303038152906040529392505050565b60006001600160a01b0384163b15611e9157604051630a85bd0160e11b81526001600160a01b0385169063150b7a0290611ddf903390899088908890600401612611565b6020604051808303816000875af1925050508015611e1a575060408051601f3d908101601f19168201909252611e179181019061264e565b60015b611e77573d808015611e48576040519150601f19603f3d011682016040523d82523d6000602084013e611e4d565b606091505b508051600003611e6f5760405162461bcd60e51b815260040161059f906125bf565b805181602001fd5b6001600160e01b031916630a85bd0160e11b1490506113e8565b506001949350505050565b606081600003611ec35750506040805180820190915260018152600360fc1b602082015290565b8160005b8115611eed5780611ed7816123eb565b9150611ee69050600a83612681565b9150611ec7565b60008167ffffffffffffffff811115611f0857611f086121b3565b6040519080825280601f01601f191660200182016040528015611f32576020820181803683370190505b5090505b84156113e857611f4760018361249a565b9150611f54600a86612695565b611f5f9060306123d3565b60f81b818381518110611f7457611f74612404565b60200101906001600160f81b031916908160001a905350611f96600a86612681565b9450611f36565b6040805160c081018252600080825260208201819052918101829052606081018290526080810182905260a081019190915290565b6001600160e01b031981168114611fe857600080fd5b50565b600060208284031215611ffd57600080fd5b8135610f0c81611fd2565b60005b8381101561202357818101518382015260200161200b565b838111156112695750506000910152565b6000815180845261204c816020860160208601612008565b601f01601f19169290920160200192915050565b602081526000610f0c6020830184612034565b60006020828403121561208557600080fd5b5035919050565b602080825282518282018190526000919060409081850190868401855b8281101561210957815180518552868101516001600160a01b039081168887015286820151811687870152606080830151909116908601526080808201519086015260a09081015115159085015260c090930192908501906001016120a9565b5091979650505050505050565b80356001600160a01b038116811461212d57600080fd5b919050565b6000806040838503121561214557600080fd5b61214e83612116565b946020939093013593505050565b60008060006060848603121561217157600080fd5b61217a84612116565b925061218860208501612116565b9150604084013590509250925092565b6000602082840312156121aa57600080fd5b610f0c82612116565b634e487b7160e01b600052604160045260246000fd5b600067ffffffffffffffff808411156121e4576121e46121b3565b604051601f8501601f19908116603f0116810190828211818310171561220c5761220c6121b3565b8160405280935085815286868601111561222557600080fd5b858560208301376000602087830101525050509392505050565b6000806040838503121561225257600080fd5b823567ffffffffffffffff81111561226957600080fd5b8301601f8101851361227a57600080fd5b612289858235602084016121c9565b95602094909401359450505050565b600080604083850312156122ab57600080fd5b6122b483612116565b9150602083013580151581146122c957600080fd5b809150509250929050565b600080600080608085870312156122ea57600080fd5b6122f385612116565b935061230160208601612116565b925060408501359150606085013567ffffffffffffffff81111561232457600080fd5b8501601f8101871361233557600080fd5b612344878235602084016121c9565b91505092959194509250565b6000806040838503121561236357600080fd5b61236c83612116565b915061237a60208401612116565b90509250929050565b600181811c9082168061239757607f821691505b6020821081036123b757634e487b7160e01b600052602260045260246000fd5b50919050565b634e487b7160e01b600052601160045260246000fd5b600082198211156123e6576123e66123bd565b500190565b6000600182016123fd576123fd6123bd565b5060010190565b634e487b7160e01b600052603260045260246000fd5b60208082526031908201527f4552433732313a207472616e736665722063616c6c6572206973206e6f74206f6040820152701ddb995c881b9bdc88185c1c1c9bdd9959607a1b606082015260800190565b6000835161247d818460208801612008565b835190830190612491818360208801612008565b01949350505050565b6000828210156124ac576124ac6123bd565b500390565b601f82111561088757600081815260208120601f850160051c810160208610156124d85750805b601f850160051c820191505b818110156124f7578281556001016124e4565b505050505050565b815167ffffffffffffffff811115612519576125196121b3565b61252d816125278454612383565b846124b1565b602080601f831160018114612562576000841561254a5750858301515b600019600386901b1c1916600185901b1785556124f7565b600085815260208120601f198616915b8281101561259157888601518255948401946001909101908401612572565b50858210156125af5787850151600019600388901b60f8161c191681555b5050505050600190811b01905550565b60208082526032908201527f4552433732313a207472616e7366657220746f206e6f6e20455243373231526560408201527131b2b4bb32b91034b6b83632b6b2b73a32b960711b606082015260800190565b6001600160a01b038581168252841660208201526040810183905260806060820181905260009061264490830184612034565b9695505050505050565b60006020828403121561266057600080fd5b8151610f0c81611fd2565b634e487b7160e01b600052601260045260246000fd5b6000826126905761269061266b565b500490565b6000826126a4576126a461266b565b50069056fea2646970667358221220b63e6463a58c6ededc39695c3c2448d575c6e4817d018c504867dca4e86d1b2a64736f6c634300080f0033",
  "linkReferences": {},
  "deployedLinkReferences": {}
}